{
  "_format": "hh-sol-artifact-1",
  "contractName": "Factory",
  "sourceName": "contracts/yfsc.sol",
  "abi": [
    {
      "inputs": [
        {
          "internalType": "address",
          "name": "_token0",
          "type": "address"
        },
        {
          "internalType": "address",
          "name": "_token1",
          "type": "address"
        },
        {
          "internalType": "uint24",
          "name": "_fee",
          "type": "uint24"
        }
      ],
      "name": "getPool",
      "outputs": [
        {
          "internalType": "address",
          "name": "",
          "type": "address"
        }
      ],
      "stateMutability": "nonpayable",
      "type": "function"
    }
  ],
  "bytecode": "0x6080806040523460145760a5908161001a8239f35b600080fdfe6080806040526004361015601257600080fd5b600090813560e01c631698ee8214602857600080fd5b3460675760603660031901126067576001600160a01b0360043581811603606b576024359081160360675760443562ffffff8116036067576020918152f35b5080fd5b8280fdfea2646970667358221220bce97c458cbb9f16df3378a6c283617ed937182c15c19e56df615accf3d4bb4664736f6c63430008130033",
  "linkReferences": {},
  "deployedLinkReferences": {}
}