{
  "_format": "hh-sol-artifact-1",
  "contractName": "PositionsNFT",
  "sourceName": "contracts/yfsc.sol",
  "abi": [
    {
      "inputs": [],
      "stateMutability": "nonpayable",
      "type": "constructor"
    },
    {
      "anonymous": false,
      "inputs": [
        {
          "indexed": true,
          "internalType": "address",
          "name": "owner",
          "type": "address"
        },
        {
          "indexed": true,
          "internalType": "address",
          "name": "approved",
          "type": "address"
        },
        {
          "indexed": true,
          "internalType": "uint256",
          "name": "tokenId",
          "type": "uint256"
        }
      ],
      "name": "Approval",
      "type": "event"
    },
    {
      "anonymous": false,
      "inputs": [
        {
          "indexed": true,
          "internalType": "address",
          "name": "owner",
          "type": "address"
        },
        {
          "indexed": true,
          "internalType": "address",
          "name": "operator",
          "type": "address"
        },
        {
          "indexed": false,
          "internalType": "bool",
          "name": "approved",
          "type": "bool"
        }
      ],
      "name": "ApprovalForAll",
      "type": "event"
    },
    {
      "anonymous": false,
      "inputs": [
        {
          "indexed": false,
          "internalType": "address",
          "name": "account",
          "type": "address"
        }
      ],
      "name": "Paused",
      "type": "event"
    },
    {
      "anonymous": false,
      "inputs": [
        {
          "indexed": true,
          "internalType": "bytes32",
          "name": "role",
          "type": "bytes32"
        },
        {
          "indexed": true,
          "internalType": "bytes32",
          "name": "previousAdminRole",
          "type": "bytes32"
        },
        {
          "indexed": true,
          "internalType": "bytes32",
          "name": "newAdminRole",
          "type": "bytes32"
        }
      ],
      "name": "RoleAdminChanged",
      "type": "event"
    },
    {
      "anonymous": false,
      "inputs": [
        {
          "indexed": true,
          "internalType": "bytes32",
          "name": "role",
          "type": "bytes32"
        },
        {
          "indexed": true,
          "internalType": "address",
          "name": "account",
          "type": "address"
        },
        {
          "indexed": true,
          "internalType": "address",
          "name": "sender",
          "type": "address"
        }
      ],
      "name": "RoleGranted",
      "type": "event"
    },
    {
      "anonymous": false,
      "inputs": [
        {
          "indexed": true,
          "internalType": "bytes32",
          "name": "role",
          "type": "bytes32"
        },
        {
          "indexed": true,
          "internalType": "address",
          "name": "account",
          "type": "address"
        },
        {
          "indexed": true,
          "internalType": "address",
          "name": "sender",
          "type": "address"
        }
      ],
      "name": "RoleRevoked",
      "type": "event"
    },
    {
      "anonymous": false,
      "inputs": [
        {
          "indexed": true,
          "internalType": "address",
          "name": "from",
          "type": "address"
        },
        {
          "indexed": true,
          "internalType": "address",
          "name": "to",
          "type": "address"
        },
        {
          "indexed": true,
          "internalType": "uint256",
          "name": "tokenId",
          "type": "uint256"
        }
      ],
      "name": "Transfer",
      "type": "event"
    },
    {
      "anonymous": false,
      "inputs": [
        {
          "indexed": false,
          "internalType": "address",
          "name": "account",
          "type": "address"
        }
      ],
      "name": "Unpaused",
      "type": "event"
    },
    {
      "inputs": [],
      "name": "DEFAULT_ADMIN_ROLE",
      "outputs": [
        {
          "internalType": "bytes32",
          "name": "",
          "type": "bytes32"
        }
      ],
      "stateMutability": "view",
      "type": "function"
    },
    {
      "inputs": [],
      "name": "MINTER_ROLE",
      "outputs": [
        {
          "internalType": "bytes32",
          "name": "",
          "type": "bytes32"
        }
      ],
      "stateMutability": "view",
      "type": "function"
    },
    {
      "inputs": [],
      "name": "PAUSER_ROLE",
      "outputs": [
        {
          "internalType": "bytes32",
          "name": "",
          "type": "bytes32"
        }
      ],
      "stateMutability": "view",
      "type": "function"
    },
    {
      "inputs": [
        {
          "internalType": "address",
          "name": "to",
          "type": "address"
        },
        {
          "internalType": "uint256",
          "name": "tokenId",
          "type": "uint256"
        }
      ],
      "name": "approve",
      "outputs": [],
      "stateMutability": "nonpayable",
      "type": "function"
    },
    {
      "inputs": [
        {
          "internalType": "address",
          "name": "owner",
          "type": "address"
        }
      ],
      "name": "balanceOf",
      "outputs": [
        {
          "internalType": "uint256",
          "name": "",
          "type": "uint256"
        }
      ],
      "stateMutability": "view",
      "type": "function"
    },
    {
      "inputs": [
        {
          "internalType": "uint256",
          "name": "tokenId",
          "type": "uint256"
        }
      ],
      "name": "getApproved",
      "outputs": [
        {
          "internalType": "address",
          "name": "",
          "type": "address"
        }
      ],
      "stateMutability": "view",
      "type": "function"
    },
    {
      "inputs": [
        {
          "internalType": "uint256",
          "name": "_userPositionNft",
          "type": "uint256"
        },
        {
          "internalType": "uint256",
          "name": "_state",
          "type": "uint256"
        }
      ],
      "name": "getLiquidityForUserInPoolAtState",
      "outputs": [
        {
          "internalType": "uint128",
          "name": "liquidity",
          "type": "uint128"
        }
      ],
      "stateMutability": "view",
      "type": "function"
    },
    {
      "inputs": [
        {
          "internalType": "bytes32",
          "name": "role",
          "type": "bytes32"
        }
      ],
      "name": "getRoleAdmin",
      "outputs": [
        {
          "internalType": "bytes32",
          "name": "",
          "type": "bytes32"
        }
      ],
      "stateMutability": "view",
      "type": "function"
    },
    {
      "inputs": [
        {
          "internalType": "uint256",
          "name": "_userPositionNft",
          "type": "uint256"
        },
        {
          "internalType": "uint256",
          "name": "_stateId",
          "type": "uint256"
        }
      ],
      "name": "getStatesIdsForPosition",
      "outputs": [
        {
          "internalType": "uint256",
          "name": "id",
          "type": "uint256"
        }
      ],
      "stateMutability": "view",
      "type": "function"
    },
    {
      "inputs": [
        {
          "internalType": "address",
          "name": "receiver",
          "type": "address"
        },
        {
          "internalType": "uint256",
          "name": "uniswapNftId",
          "type": "uint256"
        }
      ],
      "name": "getUserNftPerPool",
      "outputs": [
        {
          "internalType": "uint256",
          "name": "",
          "type": "uint256"
        }
      ],
      "stateMutability": "view",
      "type": "function"
    },
    {
      "inputs": [
        {
          "internalType": "bytes32",
          "name": "role",
          "type": "bytes32"
        },
        {
          "internalType": "address",
          "name": "account",
          "type": "address"
        }
      ],
      "name": "grantRole",
      "outputs": [],
      "stateMutability": "nonpayable",
      "type": "function"
    },
    {
      "inputs": [
        {
          "internalType": "bytes32",
          "name": "role",
          "type": "bytes32"
        },
        {
          "internalType": "address",
          "name": "account",
          "type": "address"
        }
      ],
      "name": "hasRole",
      "outputs": [
        {
          "internalType": "bool",
          "name": "",
          "type": "bool"
        }
      ],
      "stateMutability": "view",
      "type": "function"
    },
    {
      "inputs": [
        {
          "internalType": "address",
          "name": "owner",
          "type": "address"
        },
        {
          "internalType": "address",
          "name": "operator",
          "type": "address"
        }
      ],
      "name": "isApprovedForAll",
      "outputs": [
        {
          "internalType": "bool",
          "name": "",
          "type": "bool"
        }
      ],
      "stateMutability": "view",
      "type": "function"
    },
    {
      "inputs": [
        {
          "internalType": "uint256",
          "name": "",
          "type": "uint256"
        }
      ],
      "name": "lastClaimForPosition",
      "outputs": [
        {
          "internalType": "uint256",
          "name": "",
          "type": "uint256"
        }
      ],
      "stateMutability": "view",
      "type": "function"
    },
    {
      "inputs": [
        {
          "internalType": "uint256",
          "name": "",
          "type": "uint256"
        },
        {
          "internalType": "uint256",
          "name": "",
          "type": "uint256"
        }
      ],
      "name": "liquidityForUserInPoolAtState",
      "outputs": [
        {
          "internalType": "uint128",
          "name": "",
          "type": "uint128"
        }
      ],
      "stateMutability": "view",
      "type": "function"
    },
    {
      "inputs": [],
      "name": "name",
      "outputs": [
        {
          "internalType": "string",
          "name": "",
          "type": "string"
        }
      ],
      "stateMutability": "view",
      "type": "function"
    },
    {
      "inputs": [
        {
          "internalType": "uint256",
          "name": "tokenId",
          "type": "uint256"
        }
      ],
      "name": "ownerOf",
      "outputs": [
        {
          "internalType": "address",
          "name": "",
          "type": "address"
        }
      ],
      "stateMutability": "view",
      "type": "function"
    },
    {
      "inputs": [],
      "name": "pause",
      "outputs": [],
      "stateMutability": "nonpayable",
      "type": "function"
    },
    {
      "inputs": [],
      "name": "paused",
      "outputs": [
        {
          "internalType": "bool",
          "name": "",
          "type": "bool"
        }
      ],
      "stateMutability": "view",
      "type": "function"
    },
    {
      "inputs": [
        {
          "internalType": "bytes32",
          "name": "role",
          "type": "bytes32"
        },
        {
          "internalType": "address",
          "name": "account",
          "type": "address"
        }
      ],
      "name": "renounceRole",
      "outputs": [],
      "stateMutability": "nonpayable",
      "type": "function"
    },
    {
      "inputs": [
        {
          "internalType": "bytes32",
          "name": "role",
          "type": "bytes32"
        },
        {
          "internalType": "address",
          "name": "account",
          "type": "address"
        }
      ],
      "name": "revokeRole",
      "outputs": [],
      "stateMutability": "nonpayable",
      "type": "function"
    },
    {
      "inputs": [
        {
          "internalType": "uint256",
          "name": "_uniswapNftId",
          "type": "uint256"
        },
        {
          "internalType": "address",
          "name": "_receiver",
          "type": "address"
        },
        {
          "internalType": "uint128",
          "name": "_liquidity",
          "type": "uint128"
        },
        {
          "internalType": "uint256",
          "name": "_state",
          "type": "uint256"
        }
      ],
      "name": "safeMint",
      "outputs": [],
      "stateMutability": "nonpayable",
      "type": "function"
    },
    {
      "inputs": [
        {
          "internalType": "address",
          "name": "from",
          "type": "address"
        },
        {
          "internalType": "address",
          "name": "to",
          "type": "address"
        },
        {
          "internalType": "uint256",
          "name": "tokenId",
          "type": "uint256"
        }
      ],
      "name": "safeTransferFrom",
      "outputs": [],
      "stateMutability": "nonpayable",
      "type": "function"
    },
    {
      "inputs": [
        {
          "internalType": "address",
          "name": "from",
          "type": "address"
        },
        {
          "internalType": "address",
          "name": "to",
          "type": "address"
        },
        {
          "internalType": "uint256",
          "name": "tokenId",
          "type": "uint256"
        },
        {
          "internalType": "bytes",
          "name": "data",
          "type": "bytes"
        }
      ],
      "name": "safeTransferFrom",
      "outputs": [],
      "stateMutability": "nonpayable",
      "type": "function"
    },
    {
      "inputs": [
        {
          "internalType": "address",
          "name": "operator",
          "type": "address"
        },
        {
          "internalType": "bool",
          "name": "approved",
          "type": "bool"
        }
      ],
      "name": "setApprovalForAll",
      "outputs": [],
      "stateMutability": "nonpayable",
      "type": "function"
    },
    {
      "inputs": [
        {
          "internalType": "uint256",
          "name": "",
          "type": "uint256"
        },
        {
          "internalType": "uint256",
          "name": "",
          "type": "uint256"
        }
      ],
      "name": "statesIdsForPosition",
      "outputs": [
        {
          "internalType": "uint256",
          "name": "",
          "type": "uint256"
        }
      ],
      "stateMutability": "view",
      "type": "function"
    },
    {
      "inputs": [
        {
          "internalType": "bytes4",
          "name": "interfaceId",
          "type": "bytes4"
        }
      ],
      "name": "supportsInterface",
      "outputs": [
        {
          "internalType": "bool",
          "name": "",
          "type": "bool"
        }
      ],
      "stateMutability": "view",
      "type": "function"
    },
    {
      "inputs": [],
      "name": "symbol",
      "outputs": [
        {
          "internalType": "string",
          "name": "",
          "type": "string"
        }
      ],
      "stateMutability": "view",
      "type": "function"
    },
    {
      "inputs": [
        {
          "internalType": "uint256",
          "name": "tokenId",
          "type": "uint256"
        }
      ],
      "name": "tokenURI",
      "outputs": [
        {
          "internalType": "string",
          "name": "",
          "type": "string"
        }
      ],
      "stateMutability": "view",
      "type": "function"
    },
    {
      "inputs": [
        {
          "internalType": "uint256",
          "name": "",
          "type": "uint256"
        }
      ],
      "name": "totalClaimedforPositionToken0",
      "outputs": [
        {
          "internalType": "uint256",
          "name": "",
          "type": "uint256"
        }
      ],
      "stateMutability": "view",
      "type": "function"
    },
    {
      "inputs": [
        {
          "internalType": "uint256",
          "name": "",
          "type": "uint256"
        }
      ],
      "name": "totalClaimedforPositionToken1",
      "outputs": [
        {
          "internalType": "uint256",
          "name": "",
          "type": "uint256"
        }
      ],
      "stateMutability": "view",
      "type": "function"
    },
    {
      "inputs": [
        {
          "internalType": "uint256",
          "name": "",
          "type": "uint256"
        }
      ],
      "name": "totalStatesForPosition",
      "outputs": [
        {
          "internalType": "uint256",
          "name": "",
          "type": "uint256"
        }
      ],
      "stateMutability": "view",
      "type": "function"
    },
    {
      "inputs": [
        {
          "internalType": "address",
          "name": "from",
          "type": "address"
        },
        {
          "internalType": "address",
          "name": "to",
          "type": "address"
        },
        {
          "internalType": "uint256",
          "name": "tokenId",
          "type": "uint256"
        }
      ],
      "name": "transferFrom",
      "outputs": [],
      "stateMutability": "nonpayable",
      "type": "function"
    },
    {
      "inputs": [],
      "name": "unpause",
      "outputs": [],
      "stateMutability": "nonpayable",
      "type": "function"
    },
    {
      "inputs": [
        {
          "internalType": "uint256",
          "name": "_positionNftId",
          "type": "uint256"
        },
        {
          "internalType": "uint256",
          "name": "_state",
          "type": "uint256"
        }
      ],
      "name": "updateLastClaimForPosition",
      "outputs": [],
      "stateMutability": "nonpayable",
      "type": "function"
    },
    {
      "inputs": [
        {
          "internalType": "uint256",
          "name": "positionNftId",
          "type": "uint256"
        },
        {
          "internalType": "uint128",
          "name": "_liquidity",
          "type": "uint128"
        },
        {
          "internalType": "uint256",
          "name": "_state",
          "type": "uint256"
        }
      ],
      "name": "updateLiquidityForUser",
      "outputs": [],
      "stateMutability": "nonpayable",
      "type": "function"
    },
    {
      "inputs": [
        {
          "internalType": "uint256",
          "name": "positionNftId",
          "type": "uint256"
        },
        {
          "internalType": "uint256",
          "name": "_state",
          "type": "uint256"
        }
      ],
      "name": "updateStatesIdsForPosition",
      "outputs": [],
      "stateMutability": "nonpayable",
      "type": "function"
    },
    {
      "inputs": [
        {
          "internalType": "uint256",
          "name": "_positionNftId",
          "type": "uint256"
        },
        {
          "internalType": "uint256",
          "name": "_newClaim0",
          "type": "uint256"
        },
        {
          "internalType": "uint256",
          "name": "_newClaim1",
          "type": "uint256"
        }
      ],
      "name": "updateTotalClaimForPosition",
      "outputs": [],
      "stateMutability": "nonpayable",
      "type": "function"
    },
    {
      "inputs": [
        {
          "internalType": "address",
          "name": "",
          "type": "address"
        },
        {
          "internalType": "uint256",
          "name": "",
          "type": "uint256"
        }
      ],
      "name": "userNftPerPool",
      "outputs": [
        {
          "internalType": "uint256",
          "name": "",
          "type": "uint256"
        }
      ],
      "stateMutability": "view",
      "type": "function"
    }
  ],
  "bytecode": "0x60803462000482576040906001600160401b03818301818111838210176200046c5783526013825260207f596620536320506f736974696f6e73204e46540000000000000000000000000081840152835190848201828110848211176200046c578552600792838352661654d417d3919560ca1b8284015284518181116200046c576000938454916001978884811c9416801562000461575b868510146200044d578190601f94858111620003fa575b508690858311600114620003965788926200038a575b5050600019600383901b1c191690881b1785555b8051928311620003765786548781811c911680156200036b575b8582101462000357579081838594931162000302575b50849183116001146200029e57859262000292575b5050600019600383901b1c191690851b1784555b60ff19908160065416600655828052838152858320338452815260ff8684205416156200025d575b7f65d7a28e3265b37a6474929f336521b332c1681b933f6cb9f3376673440d862a808452848252868420338552825260ff87852054161562000226575b507f9f2df0fed2c77648de5860a4cc508cd0818c85b8b8a1ab4ceeef8d981c8956a693848452808252868420338552825260ff878520541615620001ed575b86866008540160085551611ec79081620004888239f35b84845281528583209033845252838583209182541617905533916000805160206200234f833981519152339280a43880808080620001d6565b80845284825286842033855282528684208684825416179055339033906000805160206200234f8339815191528680a43862000197565b828052838152858320338452815285832085838254161790553333846000805160206200234f8339815191528180a46200015a565b0151905038806200011e565b8786528486208894509190601f198416875b87828210620002eb5750508411620002d1575b505050811b01845562000132565b015160001960f88460031b161c19169055388080620002c3565b8385015186558b97909501949384019301620002b0565b909192508786528486208380860160051c8201928787106200034d575b9186958b929594930160051c01915b8281106200033e57505062000109565b8881558695508a91016200032e565b925081926200031f565b634e487b7160e01b86526022600452602486fd5b90607f1690620000f3565b634e487b7160e01b85526041600452602485fd5b015190503880620000c5565b8880528789208b94509190601f1984168a5b8a828210620003e35750508411620003c9575b505050811b018555620000d9565b015160001960f88460031b161c19169055388080620003bb565b8385015186558e97909501949384019301620003a8565b9091508780528688208580850160051c82019289861062000443575b918c91869594930160051c01915b82811062000434575050620000af565b8a81558594508c910162000424565b9250819262000416565b634e487b7160e01b87526022600452602487fd5b93607f169362000098565b634e487b7160e01b600052604160045260246000fd5b600080fdfe6080604081815260048036101561001557600080fd5b600092833560e01c90816301ffc9a7146110d05750806306fdde0314611005578063081812fc14610fe5578063095ea7b314610e7857806323b872dd14610e53578063248a9ca314610e295780632f2ff15d14610d7d5780633190b1721461084557806336568abe14610ceb57806337193ece146105155780633f4ba83a14610c5657806342842e0e14610c225780634829f32914610bfb5780635c975abb14610bd75780636352211e14610ba657806363f9f48214610b0e57806364ac1f6a146103775780636c95d5191461091057806370a082311461087a57806371a6f44014610845578063814440b31461081e5780638456cb59146107c357806391d148541461077d57806395d89b4114610667578063a217fddf1461064c578063a22cb4651461057d578063b175778814610556578063b3f363c114610515578063b88d4fde14610462578063c87b56dd146103f2578063ce16c931146103a3578063cff5128d14610377578063d53913931461033c578063d547741f146102fe578063dc207477146102d7578063e63ab1e91461029c578063e985e9c51461024a578063eea2d394146101fa5763f82cdafb146101d057600080fd5b346101f65760203660031901126101f6576020928291358152600d845220549051908152f35b8280fd5b50346101f65760603660031901126101f657356102156114c1565b808352600e60205281832061022d6024358254611c99565b90558252600f60205281206102456044358254611c99565b905580f35b50503461029857806003193601126102985760ff8160209361026a61119e565b6102726111b9565b6001600160a01b0391821683526005875283832091168252855220549151911615158152f35b5080fd5b505034610298578160031936011261029857602090517f65d7a28e3265b37a6474929f336521b332c1681b933f6cb9f3376673440d862a8152f35b50346101f65760203660031901126101f6576020928291358152600f845220549051908152f35b5090346101f657806003193601126101f657610339913561033460016103226111b9565b93838752600760205286200154611606565b611711565b80f35b505034610298578160031936011261029857602090517f9f2df0fed2c77648de5860a4cc508cd0818c85b8b8a1ab4ceeef8d981c8956a68152f35b505034610298578060209261038b36611204565b908252600b8552828220908252845220549051908152f35b505034610298576103b336611204565b91906103bd6114c1565b808452600c6020528184206103d28154611e82565b90558352600b602052808320600c60205281842054845260205282205580f35b509190346102985760203660031901126102985761043161042c61045e9435600052600260205260018060a01b0360406000205416151590565b611787565b81815161043d8161121a565b5280519161044a8361121a565b825251918291602083526020830190611179565b0390f35b5090346101f65760803660031901126101f65761047d61119e565b906104866111b9565b604435906064359467ffffffffffffffff8611610511573660238701121561051157850135936104c16104b88661128a565b94519485611268565b84845286366024878901011161050e576020866105099760246103399a0183890137860101526104f96104f4843361190c565b611837565b6105048383836119d4565b611c0e565b6118ec565b80fd5b8680fd5b50503461029857806003193601126102985760209181906001600160a01b0361053c61119e565b168152600984528181206024358252845220549051908152f35b50346101f65760203660031901126101f6576020928291358152600c845220549051908152f35b5090346101f657806003193601126101f65761059761119e565b9060243591821515809303610648576001600160a01b0316923384146106065750338452600560205280842083855260205280842060ff1981541660ff8416179055519081527f17307eab39ab6107e8899845ad3d59bd9653f200f220920489ca2b5937696c3160203392a380f35b6020606492519162461bcd60e51b8352820152601960248201527f4552433732313a20617070726f766520746f2063616c6c6572000000000000006044820152fd5b8480fd5b50503461029857816003193601126102985751908152602090f35b50913461050e578060031936011261050e578151918160019283549384811c91818616958615610773575b6020968785108114610760578899509688969785829a5291826000146107395750506001146106de575b50505061045e92916106cf910385611268565b51928284938452830190611179565b91908693508083527fb10e2d527612073b26eecdfd717e6a320cf44b4afac2b0732d9fcbe2b7fa0cf65b82841061072157505050820101816106cf61045e6106bc565b8054848a018601528895508794909301928101610708565b60ff19168782015293151560051b860190930193508492506106cf915061045e90506106bc565b634e487b7160e01b835260228a52602483fd5b92607f1692610692565b50346101f657816003193601126101f6578160209360ff9261079d6111b9565b90358252600786528282206001600160a01b039091168252855220549151911615158152f35b50503461029857816003193601126102985760207f62e78cea01bee320cd4e420270b5ea74000d11b0c9f74754ebdbfc544b05a258916108016112a6565b610809611df2565b600160ff19600654161760065551338152a180f35b50346101f65760203660031901126101f6576020928291358152600e845220549051908152f35b505034610298576001600160801b038160209361086136611204565b908252600a865282822090825285522054169051908152f35b50829034610298576020366003190112610298576001600160a01b0361089e61119e565b169081156108bb5760208480858581526003845220549051908152f35b608490602085519162461bcd60e51b8352820152602960248201527f4552433732313a2061646472657373207a65726f206973206e6f7420612076616044820152683634b21037bbb732b960b91b6064820152fd5b5090346101f65760803660031901126101f65761092b6111b9565b6044356001600160801b038116809103610648576064359361094b6114c1565b600854926001840160085584516109618161121a565b8781526001600160a01b038216918215610acb57610509869594939286610a36936109ab6109a58e9b600052600260205260018060a01b0360406000205416151590565b15611e36565b6109b3611df2565b6000828152600260205260409020546109d6906001600160a01b031615156109a5565b858a52818660209b60038d528d81206001815401905582815260028d528d8120826bffffffffffffffffffffffff60a01b8254161790557fddf252ad1be2c89b69c2b068fc378daa952ba7f163c4a11628f55a4df523b3ef8180a4611af2565b8752600984528487209035875283528184872055610a526114c1565b818652600a83528386208587528352838620906001600160801b0319825416179055808552600b8252828520600c83528386205486528252838386205410610ab0575b8452600b815281842090600c81528285205485525282205580f35b808552600c8252828520610ac48154611e82565b9055610a95565b865162461bcd60e51b8152602081860181905260248201527f4552433732313a206d696e7420746f20746865207a65726f20616464726573736044820152606490fd5b50346101f65760603660031901126101f65735906024356001600160801b038116809103610ba25760443592610b426114c1565b808552602091600a83528386208587528352838620906001600160801b0319825416179055808552600b8252828520600c83528386205486528252838386205410610ab0578452600b815281842090600c81528285205485525282205580f35b8380fd5b50913461050e57602036600319011261050e5750610bc6602092356117d3565b90516001600160a01b039091168152f35b50503461029857816003193601126102985760209060ff6006541690519015158152f35b50503461029857610c0b36611204565b9190610c156114c1565b8352600d60205282205580f35b5050346102985761050961033991610c39366111cf565b91925192610c468461121a565b8684526104f96104f4843361190c565b50346101f657826003193601126101f657610c6f6112a6565b6006549060ff821615610cb1575060ff1916600655513381527f5db9ee0a495bf2e6ff9c91a7834c1ba4fdd244a5e8aa4e537bd38aeae4b073aa90602090a180f35b606490602084519162461bcd60e51b8352820152601460248201527314185d5cd8589b194e881b9bdd081c185d5cd95960621b6044820152fd5b50829034610298578260031936011261029857610d066111b9565b90336001600160a01b03831603610d2257906103399135611711565b608490602085519162461bcd60e51b8352820152602f60248201527f416363657373436f6e74726f6c3a2063616e206f6e6c792072656e6f756e636560448201526e103937b632b9903337b91039b2b63360891b6064820152fd5b50346101f657816003193601126101f6573590610d986111b9565b908284526007602052610db060018286200154611606565b828452600760209081528185206001600160a01b039093168086529290528084205460ff1615610dde578380f35b82845260076020528084208285526020528320600160ff1982541617905533917f2f8788117e7eff1d82e926ec794901d17c78024a50270940304540a733656f0d8480a43880808380f35b50346101f65760203660031901126101f65781602093600192358152600785522001549051908152f35b833461050e57610339610e65366111cf565b91610e736104f4843361190c565b6119d4565b50346101f657816003193601126101f657610e9161119e565b6024359290916001600160a01b0391908280610eac876117d3565b16941693808514610f9857803314908115610f79575b5015610f1157848652602052842080546001600160a01b03191683179055610ee9836117d3565b167f8c5be1e5ebec7d5bd14f71427d1e84f3dd0314c0f7b2291e5b200ac8c7c3b9258480a480f35b6020608492519162461bcd60e51b8352820152603d60248201527f4552433732313a20617070726f76652063616c6c6572206973206e6f7420746f60448201527f6b656e206f776e6572206f7220617070726f76656420666f7220616c6c0000006064820152fd5b90508652600560205281862033875260205260ff828720541638610ec2565b506020608492519162461bcd60e51b8352820152602160248201527f4552433732313a20617070726f76616c20746f2063757272656e74206f776e656044820152603960f91b6064820152fd5b50913461050e57602036600319011261050e5750610bc6602092356117f9565b50913461050e578060031936011261050e5781519181825492600184811c918186169586156110c6575b6020968785108114610760578899509688969785829a52918260001461073957505060011461106b5750505061045e92916106cf910385611268565b91908693508280527f290decd9548b62a8d60345a988386fc84ba6bc95484008f6362f93160ef3e5635b8284106110ae57505050820101816106cf61045e6106bc565b8054848a018601528895508794909301928101611095565b92607f169261102f565b925050346101f65760203660031901126101f6573563ffffffff60e01b81168091036101f65760209250637965db0b60e01b8114908115611113575b5015158152f35b6380ac58cd60e01b811491508115611145575b8115611134575b503861110c565b6301ffc9a760e01b1490503861112d565b635b5e139f60e01b81149150611126565b60005b8381106111695750506000910152565b8181015183820152602001611159565b9060209161119281518092818552858086019101611156565b601f01601f1916010190565b600435906001600160a01b03821682036111b457565b600080fd5b602435906001600160a01b03821682036111b457565b60609060031901126111b4576001600160a01b039060043582811681036111b4579160243590811681036111b4579060443590565b60409060031901126111b4576004359060243590565b6020810190811067ffffffffffffffff82111761123657604052565b634e487b7160e01b600052604160045260246000fd5b6080810190811067ffffffffffffffff82111761123657604052565b90601f8019910116810190811067ffffffffffffffff82111761123657604052565b67ffffffffffffffff811161123657601f01601f191660200190565b3360009081527f270c7cc4331b1445974c76712d9bb2afa8846ba0435cde7d1460f79fd91c04bd602090815260408083205490927f65d7a28e3265b37a6474929f336521b332c1681b933f6cb9f3376673440d862a9160ff161561130a5750505050565b61131333611ce3565b918451906113208261124c565b604282528482019260603685378251156114ad57603084538251906001918210156114ad5790607860218501536041915b81831161143f575050506113fd5760486113f99386936113dd936113ce985198899376020b1b1b2b9b9a1b7b73a3937b61d1030b1b1b7bab73a1604d1b8a8601526113a5815180928c603789019101611156565b8401917001034b99036b4b9b9b4b733903937b6329607d1b603784015251809386840190611156565b01036028810187520185611268565b5192839262461bcd60e51b845260048401526024830190611179565b0390fd5b60648486519062461bcd60e51b825280600483015260248201527f537472696e67733a20686578206c656e67746820696e73756666696369656e746044820152fd5b909192600f81166010811015611499576f181899199a1a9b1b9c1cb0b131b232b360811b901a61146f8587611cbc565b5360041c92801561148557600019019190611351565b634e487b7160e01b82526011600452602482fd5b634e487b7160e01b83526032600452602483fd5b634e487b7160e01b81526032600452602490fd5b3360009081527fa4bfd7afe708e2e87e7f0e2ad9b4d545417e0f795f57b5c5ab5d799c565a04f4602090815260408083205490927f9f2df0fed2c77648de5860a4cc508cd0818c85b8b8a1ab4ceeef8d981c8956a69160ff16156115255750505050565b61152e33611ce3565b9184519061153b8261124c565b604282528482019260603685378251156114ad57603084538251906001918210156114ad5790607860218501536041915b8183116115c0575050506113fd5760486113f99386936113dd936113ce985198899376020b1b1b2b9b9a1b7b73a3937b61d1030b1b1b7bab73a1604d1b8a8601526113a5815180928c603789019101611156565b909192600f81166010811015611499576f181899199a1a9b1b9c1cb0b131b232b360811b901a6115f08587611cbc565b5360041c9280156114855760001901919061156c565b60009080825260209060078252604092838120338252835260ff8482205416156116305750505050565b61163933611ce3565b918451906116468261124c565b604282528482019260603685378251156114ad57603084538251906001918210156114ad5790607860218501536041915b8183116116cb575050506113fd5760486113f99386936113dd936113ce985198899376020b1b1b2b9b9a1b7b73a3937b61d1030b1b1b7bab73a1604d1b8a8601526113a5815180928c603789019101611156565b909192600f81166010811015611499576f181899199a1a9b1b9c1cb0b131b232b360811b901a6116fb8587611cbc565b5360041c92801561148557600019019190611677565b906000918083526007602052604083209160018060a01b03169182845260205260ff60408420541661174257505050565b8083526007602052604083208284526020526040832060ff1981541690557ff6391f5c32d9c69d2a47ea670b442974b53935d1edc7fd64eb21e047a839171b339380a4565b1561178e57565b60405162461bcd60e51b815260206004820152601860248201527f4552433732313a20696e76616c696420746f6b656e20494400000000000000006044820152606490fd5b6000908152600260205260409020546001600160a01b03166117f6811515611787565b90565b60008181526002602052604090205461181c906001600160a01b03161515611787565b6000908152600460205260409020546001600160a01b031690565b1561183e57565b60405162461bcd60e51b815260206004820152602d60248201527f4552433732313a2063616c6c6572206973206e6f7420746f6b656e206f776e6560448201526c1c881bdc88185c1c1c9bdd9959609a1b6064820152608490fd5b60809060208152603260208201527f4552433732313a207472616e7366657220746f206e6f6e20455243373231526560408201527131b2b4bb32b91034b6b83632b6b2b73a32b960711b60608201520190565b156118f357565b60405162461bcd60e51b8152806113f960048201611899565b906001600160a01b038080611920846117d3565b16931691838314938415611953575b50831561193d575b50505090565b611949919293506117f9565b1614388080611937565b909350600052600560205260406000208260005260205260ff60406000205416923861192f565b1561198157565b60405162461bcd60e51b815260206004820152602560248201527f4552433732313a207472616e736665722066726f6d20696e636f72726563742060448201526437bbb732b960d91b6064820152608490fd5b906119fc916119e2846117d3565b6001600160a01b039391841692849290918316841461197a565b16918215611aa15781611a2191611a11611df2565b611a1a866117d3565b161461197a565b7fddf252ad1be2c89b69c2b068fc378daa952ba7f163c4a11628f55a4df523b3ef60008481526004602052604081206bffffffffffffffffffffffff60a01b9081815416905583825260036020526040822060001981540190558482526040822060018154019055858252600260205284604083209182541617905580a4565b60405162461bcd60e51b8152602060048201526024808201527f4552433732313a207472616e7366657220746f20746865207a65726f206164646044820152637265737360e01b6064820152608490fd5b9192600092909190803b15611c0457611b40946040518092630a85bd0160e11b9485835233600484015287602484015260448301526080606483015281878160209a8b966084830190611179565b03926001600160a01b03165af1849181611bc4575b50611bb3575050503d600014611bab573d611b6f8161128a565b90611b7d6040519283611268565b81528091833d92013e5b80519182611ba85760405162461bcd60e51b8152806113f960048201611899565b01fd5b506060611b87565b6001600160e01b0319161492509050565b9091508581813d8311611bfd575b611bdc8183611268565b8101031261064857516001600160e01b031981168103610648579038611b55565b503d611bd2565b5050915050600190565b9293600093909291803b15611c8e57948491611c689660405180948193630a85bd0160e11b9788845233600485015260018060a01b0380921660248501526044840152608060648401528260209b8c976084830190611179565b0393165af1849181611bc45750611bb3575050503d600014611bab573d611b6f8161128a565b505050915050600190565b91908201809211611ca657565b634e487b7160e01b600052601160045260246000fd5b908151811015611ccd570160200190565b634e487b7160e01b600052603260045260246000fd5b604051906060820182811067ffffffffffffffff82111761123657604052602a8252602082016040368237825115611ccd57603090538151600190811015611ccd57607860218401536029905b808211611d84575050611d405790565b606460405162461bcd60e51b815260206004820152602060248201527f537472696e67733a20686578206c656e67746820696e73756666696369656e746044820152fd5b9091600f81166010811015611ddd576f181899199a1a9b1b9c1cb0b131b232b360811b901a611db38486611cbc565b5360041c918015611dc8576000190190611d30565b60246000634e487b7160e01b81526011600452fd5b60246000634e487b7160e01b81526032600452fd5b60ff60065416611dfe57565b60405162461bcd60e51b815260206004820152601060248201526f14185d5cd8589b194e881c185d5cd95960821b6044820152606490fd5b15611e3d57565b60405162461bcd60e51b815260206004820152601c60248201527f4552433732313a20746f6b656e20616c7265616479206d696e746564000000006044820152606490fd5b6000198114611ca6576001019056fea26469706673582212208914f95cf2c06f153a9ff5dd278d1842833d6a51fb2fddf879cfb4e9b0cd578364736f6c634300081300332f8788117e7eff1d82e926ec794901d17c78024a50270940304540a733656f0d",
  "linkReferences": {},
  "deployedLinkReferences": {}
}