{
  "_format": "hh-sol-artifact-1",
  "contractName": "YfSc",
  "sourceName": "contracts/yfsc.sol",
  "abi": [
    {
      "inputs": [
        {
          "internalType": "contract PositionsNFT",
          "name": "_positionsNFT",
          "type": "address"
        },
        {
          "internalType": "contract NonfungiblePositionManager",
          "name": "_nonfungiblePositionManager",
          "type": "address"
        },
        {
          "internalType": "contract ISwapRouter",
          "name": "_iSwapRouter",
          "type": "address"
        }
      ],
      "stateMutability": "nonpayable",
      "type": "constructor"
    },
    {
      "inputs": [],
      "name": "T",
      "type": "error"
    },
    {
      "inputs": [
        {
          "internalType": "address",
          "name": "_token0",
          "type": "address"
        },
        {
          "internalType": "address",
          "name": "_token1",
          "type": "address"
        },
        {
          "internalType": "uint256",
          "name": "_fee",
          "type": "uint256"
        },
        {
          "internalType": "uint128",
          "name": "_totalPendingRewards0",
          "type": "uint128"
        },
        {
          "internalType": "uint128",
          "name": "_totalPendingRewards1",
          "type": "uint128"
        },
        {
          "internalType": "bool",
          "name": "_rebalance",
          "type": "bool"
        }
      ],
      "name": "collect",
      "outputs": [],
      "stateMutability": "nonpayable",
      "type": "function"
    },
    {
      "inputs": [
        {
          "internalType": "address",
          "name": "_token0",
          "type": "address"
        },
        {
          "internalType": "address",
          "name": "_token1",
          "type": "address"
        },
        {
          "internalType": "uint256",
          "name": "_fee",
          "type": "uint256"
        }
      ],
      "name": "currentTicksForPosition",
      "outputs": [
        {
          "internalType": "int24",
          "name": "_tickLower",
          "type": "int24"
        },
        {
          "internalType": "int24",
          "name": "_tickUpper",
          "type": "int24"
        }
      ],
      "stateMutability": "view",
      "type": "function"
    },
    {
      "inputs": [],
      "name": "deadline",
      "outputs": [
        {
          "internalType": "uint256",
          "name": "",
          "type": "uint256"
        }
      ],
      "stateMutability": "view",
      "type": "function"
    },
    {
      "inputs": [
        {
          "internalType": "address",
          "name": "_token0",
          "type": "address"
        },
        {
          "internalType": "address",
          "name": "_token1",
          "type": "address"
        },
        {
          "internalType": "uint24",
          "name": "_fee",
          "type": "uint24"
        },
        {
          "internalType": "uint128",
          "name": "_purcentage",
          "type": "uint128"
        },
        {
          "internalType": "bool",
          "name": "_rebalance",
          "type": "bool"
        }
      ],
      "name": "decreaseLiquidity",
      "outputs": [
        {
          "internalType": "uint256",
          "name": "",
          "type": "uint256"
        },
        {
          "internalType": "uint256",
          "name": "",
          "type": "uint256"
        }
      ],
      "stateMutability": "nonpayable",
      "type": "function"
    },
    {
      "inputs": [
        {
          "internalType": "uint160",
          "name": "sqrtRatioAX96",
          "type": "uint160"
        },
        {
          "internalType": "uint160",
          "name": "sqrtRatioBX96",
          "type": "uint160"
        },
        {
          "internalType": "uint128",
          "name": "liquidity",
          "type": "uint128"
        },
        {
          "internalType": "bool",
          "name": "roundUp",
          "type": "bool"
        }
      ],
      "name": "getAmount0Delta",
      "outputs": [
        {
          "internalType": "uint256",
          "name": "amount0",
          "type": "uint256"
        }
      ],
      "stateMutability": "pure",
      "type": "function"
    },
    {
      "inputs": [
        {
          "internalType": "uint160",
          "name": "sqrtRatioAX96",
          "type": "uint160"
        },
        {
          "internalType": "uint160",
          "name": "sqrtRatioBX96",
          "type": "uint160"
        },
        {
          "internalType": "uint128",
          "name": "liquidity",
          "type": "uint128"
        },
        {
          "internalType": "bool",
          "name": "roundUp",
          "type": "bool"
        }
      ],
      "name": "getAmount1Delta",
      "outputs": [
        {
          "internalType": "uint256",
          "name": "amount1",
          "type": "uint256"
        }
      ],
      "stateMutability": "pure",
      "type": "function"
    },
    {
      "inputs": [
        {
          "internalType": "address",
          "name": "_token0",
          "type": "address"
        },
        {
          "internalType": "address",
          "name": "_token1",
          "type": "address"
        },
        {
          "internalType": "uint256",
          "name": "_fee",
          "type": "uint256"
        }
      ],
      "name": "getPendingrewardForPosition",
      "outputs": [
        {
          "internalType": "uint256",
          "name": "reward0",
          "type": "uint256"
        },
        {
          "internalType": "uint256",
          "name": "reward1",
          "type": "uint256"
        }
      ],
      "stateMutability": "view",
      "type": "function"
    },
    {
      "inputs": [
        {
          "internalType": "uint256",
          "name": "_position",
          "type": "uint256"
        },
        {
          "internalType": "uint256",
          "name": "_state",
          "type": "uint256"
        }
      ],
      "name": "getTotalLiquidityAtStateForPosition",
      "outputs": [
        {
          "internalType": "uint256",
          "name": "",
          "type": "uint256"
        }
      ],
      "stateMutability": "view",
      "type": "function"
    },
    {
      "inputs": [
        {
          "internalType": "uint256",
          "name": "",
          "type": "uint256"
        }
      ],
      "name": "liquidityLastDepositTime",
      "outputs": [
        {
          "internalType": "uint256",
          "name": "",
          "type": "uint256"
        }
      ],
      "stateMutability": "view",
      "type": "function"
    },
    {
      "inputs": [
        {
          "internalType": "uint256",
          "name": "",
          "type": "uint256"
        }
      ],
      "name": "liquidityLastStateUpdate",
      "outputs": [
        {
          "internalType": "uint256",
          "name": "",
          "type": "uint256"
        }
      ],
      "stateMutability": "view",
      "type": "function"
    },
    {
      "inputs": [],
      "name": "liquidityLockTime",
      "outputs": [
        {
          "internalType": "uint256",
          "name": "",
          "type": "uint256"
        }
      ],
      "stateMutability": "view",
      "type": "function"
    },
    {
      "inputs": [
        {
          "internalType": "address",
          "name": "_token0",
          "type": "address"
        },
        {
          "internalType": "address",
          "name": "_token1",
          "type": "address"
        },
        {
          "internalType": "uint24",
          "name": "_fee",
          "type": "uint24"
        },
        {
          "internalType": "uint256",
          "name": "_amount0",
          "type": "uint256"
        },
        {
          "internalType": "uint256",
          "name": "_amount1",
          "type": "uint256"
        },
        {
          "internalType": "int24",
          "name": "_ticksUp",
          "type": "int24"
        },
        {
          "internalType": "int24",
          "name": "_ticksDown",
          "type": "int24"
        }
      ],
      "name": "mintNFT",
      "outputs": [],
      "stateMutability": "nonpayable",
      "type": "function"
    },
    {
      "inputs": [
        {
          "internalType": "address",
          "name": "",
          "type": "address"
        },
        {
          "internalType": "address",
          "name": "",
          "type": "address"
        },
        {
          "internalType": "uint256",
          "name": "",
          "type": "uint256"
        }
      ],
      "name": "originalPoolNftIds",
      "outputs": [
        {
          "internalType": "uint256",
          "name": "",
          "type": "uint256"
        }
      ],
      "stateMutability": "view",
      "type": "function"
    },
    {
      "inputs": [],
      "name": "owner",
      "outputs": [
        {
          "internalType": "address",
          "name": "",
          "type": "address"
        }
      ],
      "stateMutability": "view",
      "type": "function"
    },
    {
      "inputs": [
        {
          "internalType": "uint256",
          "name": "",
          "type": "uint256"
        },
        {
          "internalType": "uint256",
          "name": "",
          "type": "uint256"
        }
      ],
      "name": "poolLiquidityChangeAmount",
      "outputs": [
        {
          "internalType": "uint256",
          "name": "",
          "type": "uint256"
        }
      ],
      "stateMutability": "view",
      "type": "function"
    },
    {
      "inputs": [
        {
          "internalType": "uint256",
          "name": "",
          "type": "uint256"
        },
        {
          "internalType": "uint256",
          "name": "",
          "type": "uint256"
        }
      ],
      "name": "poolLiquidityChangeDirection",
      "outputs": [
        {
          "internalType": "uint256",
          "name": "",
          "type": "uint256"
        }
      ],
      "stateMutability": "view",
      "type": "function"
    },
    {
      "inputs": [
        {
          "internalType": "address",
          "name": "",
          "type": "address"
        },
        {
          "internalType": "address",
          "name": "",
          "type": "address"
        },
        {
          "internalType": "uint256",
          "name": "",
          "type": "uint256"
        }
      ],
      "name": "poolNftIds",
      "outputs": [
        {
          "internalType": "uint256",
          "name": "",
          "type": "uint256"
        }
      ],
      "stateMutability": "view",
      "type": "function"
    },
    {
      "inputs": [],
      "name": "public_adjustedAmount0",
      "outputs": [
        {
          "internalType": "uint256",
          "name": "",
          "type": "uint256"
        }
      ],
      "stateMutability": "view",
      "type": "function"
    },
    {
      "inputs": [],
      "name": "public_adjustedAmount1",
      "outputs": [
        {
          "internalType": "uint256",
          "name": "",
          "type": "uint256"
        }
      ],
      "stateMutability": "view",
      "type": "function"
    },
    {
      "inputs": [],
      "name": "public_amount0",
      "outputs": [
        {
          "internalType": "uint256",
          "name": "",
          "type": "uint256"
        }
      ],
      "stateMutability": "view",
      "type": "function"
    },
    {
      "inputs": [],
      "name": "public_amount1",
      "outputs": [
        {
          "internalType": "uint256",
          "name": "",
          "type": "uint256"
        }
      ],
      "stateMutability": "view",
      "type": "function"
    },
    {
      "inputs": [],
      "name": "public_balance0",
      "outputs": [
        {
          "internalType": "uint256",
          "name": "",
          "type": "uint256"
        }
      ],
      "stateMutability": "view",
      "type": "function"
    },
    {
      "inputs": [],
      "name": "public_balance1",
      "outputs": [
        {
          "internalType": "uint256",
          "name": "",
          "type": "uint256"
        }
      ],
      "stateMutability": "view",
      "type": "function"
    },
    {
      "inputs": [
        {
          "internalType": "uint256",
          "name": "",
          "type": "uint256"
        },
        {
          "internalType": "uint256",
          "name": "",
          "type": "uint256"
        }
      ],
      "name": "rewardAtStateForNftToken0",
      "outputs": [
        {
          "internalType": "uint256",
          "name": "",
          "type": "uint256"
        }
      ],
      "stateMutability": "view",
      "type": "function"
    },
    {
      "inputs": [
        {
          "internalType": "uint256",
          "name": "",
          "type": "uint256"
        },
        {
          "internalType": "uint256",
          "name": "",
          "type": "uint256"
        }
      ],
      "name": "rewardAtStateForNftToken1",
      "outputs": [
        {
          "internalType": "uint256",
          "name": "",
          "type": "uint256"
        }
      ],
      "stateMutability": "view",
      "type": "function"
    },
    {
      "inputs": [
        {
          "internalType": "uint256",
          "name": "_liquidityLockTime",
          "type": "uint256"
        }
      ],
      "name": "setLockTime",
      "outputs": [],
      "stateMutability": "nonpayable",
      "type": "function"
    },
    {
      "inputs": [
        {
          "internalType": "uint256",
          "name": "_slippageToken0",
          "type": "uint256"
        },
        {
          "internalType": "uint256",
          "name": "_slippageToken1",
          "type": "uint256"
        }
      ],
      "name": "setSilppageToken0",
      "outputs": [],
      "stateMutability": "nonpayable",
      "type": "function"
    },
    {
      "inputs": [],
      "name": "statesCounter",
      "outputs": [
        {
          "internalType": "uint256",
          "name": "",
          "type": "uint256"
        }
      ],
      "stateMutability": "view",
      "type": "function"
    },
    {
      "inputs": [
        {
          "internalType": "uint256",
          "name": "",
          "type": "uint256"
        },
        {
          "internalType": "uint256",
          "name": "",
          "type": "uint256"
        }
      ],
      "name": "statesIdsForNft",
      "outputs": [
        {
          "internalType": "uint256",
          "name": "",
          "type": "uint256"
        }
      ],
      "stateMutability": "view",
      "type": "function"
    },
    {
      "inputs": [],
      "name": "tickLower",
      "outputs": [
        {
          "internalType": "int24",
          "name": "",
          "type": "int24"
        }
      ],
      "stateMutability": "view",
      "type": "function"
    },
    {
      "inputs": [],
      "name": "tickUpper",
      "outputs": [
        {
          "internalType": "int24",
          "name": "",
          "type": "int24"
        }
      ],
      "stateMutability": "view",
      "type": "function"
    },
    {
      "inputs": [
        {
          "internalType": "uint256",
          "name": "",
          "type": "uint256"
        },
        {
          "internalType": "uint256",
          "name": "",
          "type": "uint256"
        }
      ],
      "name": "totalLiquidityAtStateForNft",
      "outputs": [
        {
          "internalType": "uint128",
          "name": "",
          "type": "uint128"
        }
      ],
      "stateMutability": "view",
      "type": "function"
    },
    {
      "inputs": [
        {
          "internalType": "uint256",
          "name": "",
          "type": "uint256"
        }
      ],
      "name": "totalRewardForNftToken0",
      "outputs": [
        {
          "internalType": "uint256",
          "name": "",
          "type": "uint256"
        }
      ],
      "stateMutability": "view",
      "type": "function"
    },
    {
      "inputs": [
        {
          "internalType": "uint256",
          "name": "",
          "type": "uint256"
        }
      ],
      "name": "totalRewardForNftToken1",
      "outputs": [
        {
          "internalType": "uint256",
          "name": "",
          "type": "uint256"
        }
      ],
      "stateMutability": "view",
      "type": "function"
    },
    {
      "inputs": [
        {
          "internalType": "uint256",
          "name": "",
          "type": "uint256"
        }
      ],
      "name": "totalRewardPaidForNftToken0",
      "outputs": [
        {
          "internalType": "uint256",
          "name": "",
          "type": "uint256"
        }
      ],
      "stateMutability": "view",
      "type": "function"
    },
    {
      "inputs": [
        {
          "internalType": "uint256",
          "name": "",
          "type": "uint256"
        }
      ],
      "name": "totalRewardPaidForNftToken1",
      "outputs": [
        {
          "internalType": "uint256",
          "name": "",
          "type": "uint256"
        }
      ],
      "stateMutability": "view",
      "type": "function"
    },
    {
      "inputs": [
        {
          "internalType": "address",
          "name": "",
          "type": "address"
        }
      ],
      "name": "totalRewards",
      "outputs": [
        {
          "internalType": "uint256",
          "name": "",
          "type": "uint256"
        }
      ],
      "stateMutability": "view",
      "type": "function"
    },
    {
      "inputs": [
        {
          "internalType": "uint256",
          "name": "",
          "type": "uint256"
        }
      ],
      "name": "totalStatesForNft",
      "outputs": [
        {
          "internalType": "uint256",
          "name": "",
          "type": "uint256"
        }
      ],
      "stateMutability": "view",
      "type": "function"
    },
    {
      "inputs": [
        {
          "internalType": "address",
          "name": "_token0",
          "type": "address"
        },
        {
          "internalType": "address",
          "name": "_token1",
          "type": "address"
        },
        {
          "internalType": "uint24",
          "name": "_fee",
          "type": "uint24"
        },
        {
          "internalType": "int24",
          "name": "_ticksUp",
          "type": "int24"
        },
        {
          "internalType": "int24",
          "name": "_ticksDown",
          "type": "int24"
        }
      ],
      "name": "updatePosition",
      "outputs": [],
      "stateMutability": "nonpayable",
      "type": "function"
    },
    {
      "inputs": [
        {
          "internalType": "address",
          "name": "_token",
          "type": "address"
        }
      ],
      "name": "withdraw",
      "outputs": [],
      "stateMutability": "nonpayable",
      "type": "function"
    }
  ],
  "bytecode": "0x6080346200010d57601f62004ccc38819003918201601f19168301916001600160401b0383118484101762000112578084926060946040528339810103126200010d5780516001600160a01b038082169290918390036200010d576020810151908282168092036200010d57604001519182168092036200010d5760018055610258600d556101f480600e55600f556127106010556b033b2e3c9fd0803ce800000060018060801b0319601154161760115562278d0060125560018060a01b0319928360145416176014558260155416176015558160165416176016553390600054161760005565ffa600ffa24065ffffffffffff19600c541617600c55604051614ba39081620001298239f35b600080fd5b634e487b7160e01b600052604160045260246000fdfe608080604052600436101561001357600080fd5b60009081803560e01c9182631b0a6e751461296c575081631e3e47a114612943578163244f275114611d795781632648cb4014611d5e57816329dcb0cf14611d415781632aae485f14611d185781632c32d4b614611c885781632eee351114611c5f57816342135e5214610db257816348a0c5bd14610d3357816348de0f4014610d1557816351cff8d914610bfe57816355a3268314610bd157816355b812a814610bad5781635837ba9714610b8057816358e162c1146106ba57816359c4f905146106995781635c4a07311461067b57816364a5bfd11461065d578163701c56b41461063f5781638da5cb5b14610618578163902f681c146105e2578163976f9e97146105b557816399deb93c14610571578163a984701c146104a1578163ab7573dd14610468578163ac62067e14610402578163ae04d45d146103d3578163b161e3a0146103a9578163bd9295ba1461037f578163c083561714610355578163d6d0b90014610328578163dcf458951461030b578163e1110fb5146102ed578163ea15ffdf146102c0578163ea7f37a71461027857508063ecf0f4741461024e578063ee7de30d14610230578063f0a9dc0b1461020a5763fdce28b1146101db57600080fd5b346102075760406020916101ee366129c9565b908252600a845282822090825283522054604051908152f35b80fd5b503461020757604061022461021e36612a47565b916140de565b82519182526020820152f35b50346102075780600319360112610207576020601c54604051908152f35b50346102075760203660031901126102075760406020916004358152600783522054604051908152f35b9050346102bc576020916040918261028f36612a47565b6001600160a01b039283168652601888528386209190921684528652912090825283522054604051908152f35b5080fd5b82346102075760406020916102d4366129c9565b908252601a845282822090825283522054604051908152f35b82346102075780600319360112610207576020601d54604051908152f35b823461020757806003193601126102075760208054604051908152f35b823461020757610337366129c9565b9061034c60018060a01b038454163314612a7c565b600e55600f5580f35b82346102075760203660031901126102075760406020916004358152600283522054604051908152f35b82346102075760203660031901126102075760406020916004358152601383522054604051908152f35b82346102075760203660031901126102075760406020916004358152600983522054604051908152f35b8234610207576020366003190112610207576103f960018060a01b038254163314612a7c565b60043560125580f35b82346102075760c03660031901126102075761041c612986565b6104246129a1565b9061042d6129df565b608435916001600160801b03831683036104645760a4359384151585036104605761045d95965060443591614426565b80f35b8680fd5b8580fd5b8234610207576020366003190112610207576020906040906001600160a01b03610490612986565b168152601983522054604051908152f35b82346102075760406104b236612a47565b929160018060a09793971b038080601554169716865260176020528386209116825260205220908252602052604081205460405192839163133f757160e31b835260048301528160246101809586935afa908115610566576040938392610528575b505082519160020b825260020b6020820152f35b61054b935080919250903d1061055f575b6105438183612b6c565b810190612bd1565b505050505095509350505050908380610514565b503d610539565b6040513d84823e3d90fd5b9050346102bc576020916040918261058836612a47565b6001600160a01b039283168652601788528386209190921684528652912090825283522054604051908152f35b82346102075760406020916105c9366129c9565b908252601b845282822090825283522054604051908152f35b8234610207576001600160801b0360406020926105fe366129c9565b908252600385528282209082528452205416604051908152f35b8234610207578060031936011261020757546040516001600160a01b039091168152602090f35b82346102075780600319360112610207576020601e54604051908152f35b82346102075780600319360112610207576020601f54604051908152f35b82346102075780600319360112610207576020600154604051908152f35b82346102075780600319360112610207576020600c5460020b604051908152f35b82346102075760a036600319011261020757506106d5612986565b906106de6129a1565b906106e76129b7565b916106f06129df565b92608435151560843503610b7c576001600160a01b0385811680855260176020908152604080872086851680895290835281882062ffffff8716808a5290845282892054948952601884528289209189529083528188209088528252808720546014549151631b8c9f6760e11b81523360048201526024810182905298939690959094909391169188604481855afa978815610a9a578798610b48575b50878752601360205260408720546107a760125442612cd7565b1115610b0e5760405163162eaef160e31b815260048101899052602081602481865afa908115610a35578891610adc575b50604051906332560fb560e11b82528960048301526024820152602081604481865afa8015610a35578890610aa5575b602091506044604051809581936318c858b960e11b83528d600484015260248301525afa918215610a9a578792610a54575b506001600160801b03809116911602936001600160801b038516948503610a405785608060405161086a81612b34565b828152826020820152826040820152826060820152015261088d600d5442612cd7565b906040519161089b83612b34565b8183526001600160801b0360648804166020840152876040840152876060840152608083015260018060a01b0360155416986040519163133f757160e31b83526004830152610180826024818d5afa928315610a3557888091819482966109ff575b506040519c8d91630624e65f60e11b83528051600484015260208101516001600160801b031660248401526040810151604484015260608101516064840152608001516084830152815a9360a492604095f19788156109f45760409b8a9961099e575b5092610995959261097f6102249a9b9c9693606461098f970490613ab4565b9762ffffff608435951691614426565b83613deb565b60843591613d50565b61098f94919a5061022499509261097f60649c96936109d88f966109959a973d6040116109ed575b6109d08183612b6c565b8101906140c8565b9e909e9c505093969c9b929550509295610960565b503d6109c6565b6040513d8b823e3d90fd5b9194509450610a1f91506101803d6101801161055f576105438183612b6c565b9c9950995050509450505050509193948d6108fd565b6040513d8a823e3d90fd5b634e487b7160e01b86526011600452602486fd5b9091506020813d602011610a92575b81610a7060209383612b6c565b81010312610460576001600160801b03610a8a8192612bbd565b92915061083a565b3d9150610a63565b6040513d89823e3d90fd5b506020813d602011610ad4575b81610abf60209383612b6c565b81010312610ad05760209051610808565b8780fd5b3d9150610ab2565b90506020813d602011610b06575b81610af760209383612b6c565b81010312610ad057518a6107d8565b3d9150610aea565b60405162461bcd60e51b81526020600482015260126024820152716c6971756964697479206c6f636b6564202160701b6044820152606490fd5b9097506020813d602011610b74575b81610b6460209383612b6c565b810103126104605751968961078d565b3d9150610b57565b8280fd5b8234610207576040602091610b94366129c9565b9082526004845282822090825283522054604051908152f35b82346102075780600319360112610207576020600c5460181c60020b604051908152f35b8234610207576040602091610be5366129c9565b9082526005845282822090825283522054604051908152f35b8234610207576020806003193601126102bc57610c19612986565b82546001600160a01b039190610c329083163314612a7c565b16926040516370a0823160e01b81523060048201528281602481885afa918215610d0a578492610cd8575b505060405163a9059cbb60e01b81523360048201526024810191909152919281908390818681604481015b03925af18015610ccd57610c9a578280f35b81813d8311610cc6575b610cae8183612b6c565b810103126102bc57610cbf90612b8e565b5081808280f35b503d610ca4565b6040513d85823e3d90fd5b9091508282813d8311610d03575b610cf08183612b6c565b81010312610207575051610c8883610c5d565b503d610ce6565b6040513d86823e3d90fd5b82346102075780600319360112610207576020601254604051908152f35b9050346102bc57602090610d46366129f5565b6001600160a01b039491939291828487821688821611610da6575b505050600014610d8a57926001600160801b0391610d829403169116614b25565b604051908152f35b926001600160801b0391610da19403169116614967565b610d82565b90945092508780610d61565b82346102bc5760e03660031901126102bc57610dcc612986565b610dd46129a1565b610ddc6129b7565b9060a4358060020b81036104645760c4358060020b8103610460576040516370a0823160e01b808252306004830152906020816024816001600160a01b038b165afa80156109f457611c34575b506040519081523060048201526020816024816001600160a01b0388165afa8015610a3557611c09575b50610e6091848487612d96565b610e7b610e6e83838661343c565b90926084356064356135e7565b6040516323b872dd60e01b80825233600483015230602483015260448201849052919291906020816064818c6001600160a01b038c165af180156109f457611bd0575b50604051908152336004820152306024820152604481018390526020816064818b6001600160a01b0389165af18015610a3557611b97575b5060155460405163095ea7b360e01b8082526001600160a01b0390921660048201526024810183905290602082806044810103818c6001600160a01b038c165af19182156109f4578492611b53575b506015546040519182526001600160a01b031660048201526024810191909152602081806044810103818b6001600160a01b0389165af18015610a3557611b1a575b50610f90613a76565b506001600160a01b038581168852601760209081526040808a209286168a5291815281892062ffffff87168a5290528720541580611ae2575b156110a85790610fe991600c548060181c60020b9060020b8686896136fd565b6001600160a01b039384168552601860209081526040808720938616885292815282872062ffffff949094168652928352818520546014549251631b8c9f6760e11b81523360048201526024810182905291949093919283916044918391165afa948515610d0a57849561106d575b505061106861045d939482613deb565b613ae8565b9094506020853d6020116110a0575b8161108960209383612b6c565b81010312610207575092519261106861045d611058565b3d915061107c565b6001600160a01b038581168852601860209081526040808a208684168b528252808a2062ffffff88168b528252808a20546014549151631b8c9f6760e11b815233600482015260248101829052999a99959794969495909390929183916044918391165afa908115610a35578891611aae575b5061112591613deb565b6001600160a01b03858116808852601860209081526040808a20858516808c52908352818b2062ffffff8816808d52908452828c2054948c5260178452828c20918c52908352818b20908b528252808a20546014549151631b8c9f6760e11b815233600482015260248101859052909490929183916044918391165afa80156109f457611a83575b508760606040516111bd81612b50565b828152826020820152826040820152015260406001600160801b0360115416928151906111e982612b50565b8152306020820190815282820185815260608301958652601554845163fc6f786560e01b81529351600485015291516001600160a01b03908116602485015290516001600160801b039081166044850152955190951660648301529093849160849183918d91165af1978815611a775780928199611a50575b50818152600460205260408120600154825260205280604081205581815260056020526040812060015482526020528060408120558181526007602052976112b062ffffff8616858a6140de565b9290916000946112c08482612cd7565b6119a9575b5083816112d3828e94612cd7565b611908575b5050908061134a9252600860205260408b206112f5848254612cd7565b9055808b52600960205260408b2061130e858254612cd7565b9055601454604051631b8c9f6760e11b8152336004820152602481019290925290916001600160a01b0390911690602090839081906044820190565b0381845afa9182156118c1578b926118d0575b50600154813b156118cc578b91604483926040519485938492634829f32960e01b845288600485015260248401525af180156118c1576118ae575b506014546001600160a01b0316803b156118aa57849291836064926040519687958694633ba8b4e560e21b86526004860152602485015260448401525af1801561056657611896575b50506001600160a01b038581168752601760209081526040808920928416895291815281882062ffffff8516895290528620541561185f576001600160a01b038581168752601760209081526040808920928416895291815281882062ffffff851689529052862054945b60018060a01b031686526018602052604086209060018060a01b0316865260205262ffffff604086209116855260205260408420549260018060a01b0360155416916040519163133f757160e31b835280600484015261018083602481875afa928315610a9a5787908194611828575b5090816060949560c49360a06040516114d481612ab4565b828152826020820152826040820152828982015282608082015201526114fc600d5442612cd7565b6040519361150985612ab4565b84526020840195865260408401988952868401838152608085019084825260a086019283526040519a8b98899763219f5d1760e01b89525160048901525160248801525160448701525160648601525160848501525160a48401525af1918215610d0a5784926117e9575b508161157f91613acd565b601454604051631b8c9f6760e11b81523360048201526024810185905291949192906001600160a01b0316602084604481845afa938415610ccd5783946117b5575b508315806117a1575b611686575b505084546001600160a01b03163314159050611677575080600052600b60205260406000206115fe8154613ddc565b905561160b600154613ddc565b908160015580600052600a6020526040600020600b6020526040600020546000526020528160406000205560005260026020528060406000205560036020526040600020906000526020526001600160801b03604060002091166001600160801b031982541617905580f35b9061106861045d939282613deb565b90919250600154916001830180931161178d57813b1561178957604051636c95d51960e01b8152600481018690523360248201526001600160801b03919091166044820152606481019290925282908290608490829084905af1801561056657611777575b50601454604051631b8c9f6760e11b81523360048201526024810184905290602090829060449082906001600160a01b03165afa91821561176c578592611737575b50508480806115cf565b9091506020823d602011611764575b8161175360209383612b6c565b81010312610207575051848061172d565b3d9150611746565b6040513d87823e3d90fd5b611782919450612ae6565b82846116eb565b8380fd5b634e487b7160e01b84526011600452602484fd5b5082546001600160a01b03163314156115ca565b9093506020813d6020116117e1575b816117d160209383612b6c565b81010312610b7c575192876115c1565b3d91506117c4565b9091506060813d606011611820575b8161180560609383612b6c565b810103126117895761181961157f91612bbd565b9190611574565b3d91506117f8565b606094509061184a60c493926101803d6101801161055f576105438183612b6c565b505050509650505050505050945090916114bc565b6001600160a01b038181168752601760209081526040808920928816895291815281882062ffffff8516895290528620549461144c565b6118a08291612ae6565b61020757806113e1565b8480fd5b6118b9919450612ae6565b88928b611398565b6040513d8d823e3d90fd5b8b80fd5b9091506020813d602011611900575b816118ec60209383612b6c565b810103126118fc5751908c61135d565b8a80fd5b3d91506118df565b9061191291612cd7565b906119955760405163a9059cbb60e01b81523360048201526024810191909152602081604481886001600160a01b038f165af1801561176c57611958575b838b916112d8565b6020813d60201161198d575b8161197160209383612b6c565b810103126118aa579061198661134a92612b8e565b5090611950565b3d9150611964565b634e487b7160e01b8b52601160045260248bfd5b6119b6919b508390612cd7565b60405163a9059cbb60e01b8152336004820152602481019190915293998a946020818c8189816044810103926001600160a01b03165af18015611a45579185918d93611a05575b5091506112c5565b915091506020813d602011611a3d575b81611a2260209383612b6c565b81010312610464578b91611a368692612b8e565b508e6119fd565b3d9150611a15565b6040513d88823e3d90fd5b909850611a6d91925060403d6040116109ed576109d08183612b6c565b919091978a611262565b604051903d90823e3d90fd5b602090813d8311611aa7575b611a998183612b6c565b81010312610ad057896111ad565b503d611a8f565b90506020813d602011611ada575b81611ac960209383612b6c565b81010312610ad0575161112561111b565b3d9150611abc565b506001600160a01b038381168852601760209081526040808a209288168a5291815281892062ffffff87168a52905287205415610fc9565b6020813d602011611b4b575b81611b3360209383612b6c565b81010312610ad057611b4490612b8e565b5087610f87565b3d9150611b26565b9091506020813d602011611b8f575b81611b6f60209383612b6c565b81010312611b8b578391611b84602092612b8e565b5090610f45565b8880fd5b3d9150611b62565b6020813d602011611bc8575b81611bb060209383612b6c565b81010312610ad057611bc190612b8e565b5087610ef6565b3d9150611ba3565b6020813d602011611c01575b81611be960209383612b6c565b81010312611b8b57611bfa90612b8e565b5088610ebe565b3d9150611bdc565b602090813d8311611c2d575b611c1f8183612b6c565b810103126104605787610e53565b503d611c15565b602090813d8311611c58575b611c4a8183612b6c565b81010312610ad05788610e29565b503d611c40565b346102075760203660031901126102075760406020916004358152600683522054604051908152f35b3461020757611c96366129f5565b91926001600160a01b0391848284821685821611611d0d575b50506001600160801b0360601b9060601b16918080838703169216938415610460576020965015611cf757611ce693941691614b51565b908082061515910401604051908152f35b90611d089291610da1951691614a81565b612caa565b955091508680611caf565b346102075760203660031901126102075760406020916004358152600883522054604051908152f35b346102075780600319360112610207576020600d54604051908152f35b34610207576001600160801b0360406020926105fe366129c9565b346102075760a036600319011261020757611d92612986565b611d9a6129a1565b611da26129b7565b9160643560020b606435036117895760843560020b6084350361178957611dd360018060a01b038554163314612a7c565b6001600160a01b03818116808652601860209081526040808820868516808a5290835281892062ffffff8916808b52908452828a2054948a5260178452828a20918a529083528189209089528252808820546014549151631b8c9f6760e11b81523360048201526024810185905293949093929183916044918391165afa8015610a9a57612918575b506040606060846001600160801b039389838551611e7981612b50565b828152826020820152828782015201528460115416845191611e9a83612b50565b82523060208301908152858301828152948301918252601554865163fc6f786560e01b81529351600485015290516001600160a01b0390811660248501529451871660448401529051909516606482015293849283918b91165af18015611a45576128fa575b508085526004602052604085206001548652602052846040812055808552600560205260408520600154865260205284604081205584526007602052611f4c62ffffff841683836140de565b50506001600160a01b03818116808652601760209081526040808820868516808a5290835281892062ffffff8916808b52908452828a2054948a5260188452828a20918a529083528189209089528252808820546014549151631b8c9f6760e11b815233600482015260248101829052969490939291169086604481845afa958615610a355788966128c6575b5085885260136020526040882054611ff360125442612cd7565b1115610b0e5760405163162eaef160e31b815260048101879052602081602481855afa9081156109f4578991612894575b50604051906332560fb560e11b82528760048301526024820152602081604481855afa80156109f4578990612861575b602091506044604051809481936318c858b960e11b83528b600484015260248301525afa908115610a3557889161281c575b506001600160801b03606491160291826001600160801b03811603612808578760806040516120b481612b34565b82815282602082015282604082015282606082015201526120d7600d5442612cd7565b91604051926120e584612b34565b8184526001600160801b03606481871604166020850152896040850152896060850152608084015260018060a01b0360155416966040519163133f757160e31b8352600483015289610180836024818c5afa9485156127fb578190829483976127bb575b50608060a46040928584519e8f948593630624e65f60e11b8552805160048601526001600160801b03602082015116602486015287810151604486015260608101516064860152015160848401525af196871561056657829a8398612784575b509060646001600160801b036121c193160490613ab4565b9460018060a01b038916825260186020526040822060018060a01b03891683526020526040822062ffffff8c16835260205260408220549060018060a01b038a16835260176020526040832060018060a01b038a1684526020526040832062ffffff8d16845260205260408320549460018060a01b036014541660206040518092631b8c9f6760e11b8252818061227189336004840160209093929193604081019460018060a01b031681520152565b03915afa801561176c57612759575b5083606060405161229081612b50565b828152826020820152826040820152015260406001600160801b0360115416968151906122bc82612b50565b8152306020820190815282820189815260608301998a52601554845163fc6f786560e01b81529351600485015291516001600160a01b03908116602485015290516001600160801b039081166044850152995190991660648301529097889160849183918991165af1908115610d0a576001600160801b03806040926123bd9961238b9561273d575b5016931694848152600460205281812060015482526020528382822055848152600560205281812060015482526020528582822055848152600660205220918254612cd7565b90558b5260076020526123a360408c20918254612cd7565b90556123b562ffffff8a1687896140de565b505082613deb565b875260036020526040872060015488526020526001600160801b036040882091166001600160801b031982541617905560018060a01b038316865260176020526040862060018060a01b03831687526020526040862062ffffff86168752602052856040812055612435608435606435878587612d96565b61244c61244386848661343c565b909285896135e7565b918192809280601e5581601f55606288810204880361272957606460628902048110156126b257505050906124a6816124a06124af9461249a61248f848b612cca565b60011c8b8a8a613efe565b90612cd7565b96612cca565b60011c90612cd7565b915b60155460405163095ea7b360e01b8082526001600160a01b0390921660048201526024810185905290602082806044810103818b6001600160a01b0388165af1918215610a35578692612672575b506015546040519182526001600160a01b031660048201526024810191909152602081806044810103818a6001600160a01b0388165af18015610a9a57612639575b506040516370a0823160e01b80825230600483015295906020816024816001600160a01b0387165afa908115610a35578891612607575b506040519687523060048801526020876024816001600160a01b0388165afa908115610a355788916125d1575b6125cd9750601c55601d558360205584602155600c54928360181c60020b9360020b926136fd565b5080f35b90506020873d6020116125ff575b816125ec60209383612b6c565b81010312610ad0576125cd9651906125a5565b3d91506125df565b90506020813d602011612631575b8161262260209383612b6c565b81010312610ad0575188612578565b3d9150612615565b6020813d60201161266a575b8161265260209383612b6c565b810103126104605761266390612b8e565b5086612541565b3d9150612645565b9091506020813d6020116126aa575b8161268e60209383612b6c565b81010312610ad05785916126a3602092612b8e565b50906124ff565b3d9150612681565b90919296506062838197959702048303612715576064836062020482106126dc575b5050506124b1565b61270c939650829550906127066124a69261249a6126fb848097612cca565b60011c8b8b8a613efe565b95612cca565b928680806126d4565b634e487b7160e01b89526011600452602489fd5b634e487b7160e01b8a52601160045260248afd5b61275390853d87116109ed576109d08183612b6c565b50612345565b602090813d831161277d575b61276f8183612b6c565b81010312611789578e612280565b503d612765565b6001600160801b039b506121c1929198506127af60649160403d6040116109ed576109d08183612b6c565b909c50989192506121a9565b60409197506080955060a492506127e2906101803d6101801161055f576105438183612b6c565b9f9a509b98505050945050505050939698925050612149565b50604051903d90823e3d90fd5b634e487b7160e01b88526011600452602488fd5b90506020813d602011612859575b8161283760209383612b6c565b81010312610ad0576001600160801b03612852606492612bbd565b9150612086565b3d915061282a565b506020813d60201161288c575b8161287b60209383612b6c565b81010312611b8b5760209051612054565b3d915061286e565b90506020813d6020116128be575b816128af60209383612b6c565b81010312611b8b575189612024565b3d91506128a2565b9095506020813d6020116128f2575b816128e260209383612b6c565b81010312610ad057519488611fd9565b3d91506128d5565b6129129060403d6040116109ed576109d08183612b6c565b50611f00565b602090813d831161293c575b61292e8183612b6c565b810103126104645786611e5c565b503d612924565b346102075760203660031901126102075760406020916004358152600b83522054604051908152f35b346102bc57816003193601126102bc576020906021548152f35b600435906001600160a01b038216820361299c57565b600080fd5b602435906001600160a01b038216820361299c57565b6044359062ffffff8216820361299c57565b604090600319011261299c576004359060243590565b606435906001600160801b038216820361299c57565b608090600319011261299c576001600160a01b0390600435828116810361299c5791602435908116810361299c57906044356001600160801b038116810361299c5790606435801515810361299c5790565b606090600319011261299c576001600160a01b0390600435828116810361299c5791602435908116810361299c579060443590565b15612a8357565b60405162461bcd60e51b81526020600482015260096024820152682737ba1037bbb732b960b91b6044820152606490fd5b60c0810190811067ffffffffffffffff821117612ad057604052565b634e487b7160e01b600052604160045260246000fd5b67ffffffffffffffff8111612ad057604052565b610160810190811067ffffffffffffffff821117612ad057604052565b610100810190811067ffffffffffffffff821117612ad057604052565b60a0810190811067ffffffffffffffff821117612ad057604052565b6080810190811067ffffffffffffffff821117612ad057604052565b90601f8019910116810190811067ffffffffffffffff821117612ad057604052565b5190811515820361299c57565b51906001600160a01b038216820361299c57565b51908160020b820361299c57565b51906001600160801b038216820361299c57565b91908261018091031261299c5781516bffffffffffffffffffffffff8116810361299c5791612c0260208201612b9b565b91612c0f60408301612b9b565b91612c1c60608201612b9b565b91608082015162ffffff8116810361299c5791612c3b60a08201612baf565b91612c4860c08301612baf565b91612c5560e08201612bbd565b916101008201519161012081015191612c7e610160612c776101408501612bbd565b9301612bbd565b90565b81810292918115918404141715612c9457565b634e487b7160e01b600052601160045260246000fd5b8115612cb4570490565b634e487b7160e01b600052601260045260246000fd5b91908203918211612c9457565b91908201809211612c9457565b519061ffff8216820361299c57565b908160e091031261299c5780516001600160a01b038116810361299c5791612d1d60208301612baf565b91612d2a60408201612ce4565b91612d3760608301612ce4565b91612d4460808201612ce4565b9160a082015160ff8116810361299c5760c0612c7e919301612b8e565b9060020b9060020b0190627fffff198212627fffff831317612c9457565b9060020b9060020b02908160020b918203612c9457565b6015546040805163c45a015560e01b815260209796919591946004946001600160a01b03948a9084908890829089165afa9283156130c057918a9391869593600093613079575b508951630b4c774160e11b81526001600160a01b0391821689820190815291909216602082015262ffffff9093166040840152938492839160009183906060015b0393165af190811561303957600091613044575b508451633850c7bd60e01b815296911660e0878481845afa96871561303957600097612ffc575b50908083928651938480926334324e9f60e21b82525afa948515612ff25750600094612fb9575b5050600294850b9483810b8015612fa457627fffff1996600019919080891482841416612f8f5790818188930591600082129182612f81575b5050612f55575b612eca9250612d7f565b612ede85612ed88184612d61565b97612d7f565b820b910b03948512627fffff861317612f405750612f069291612f0091612d7f565b90612d61565b612f0f826130cb565b50612f19816130cb565b5062ffffff600c549160181b65ffffff0000001692169065ffffffffffff19161717600c55565b601190634e487b7160e01b6000525260246000fd5b9050820b878114612f6c57612eca91869101612ec0565b601184634e487b7160e01b6000525260246000fd5b07850b151590503880612eb9565b601185634e487b7160e01b6000525260246000fd5b601283634e487b7160e01b6000525260246000fd5b8181959293953d8311612feb575b612fd18183612b6c565b810103126102075750612fe390612baf565b913880612e80565b503d612fc7565b513d6000823e3d90fd5b8291975091613022849360e03d8111613032575b61301a8183612b6c565b810190612cf3565b5050505050905097919250612e59565b503d613010565b85513d6000823e3d90fd5b908782813d8311613072575b61305a8183612b6c565b81010312610207575061306c90612b9b565b38612e32565b503d613050565b8093929496508591953d83116130b9575b6130948183612b6c565b81010312610207575091612e1e93916000866130b08d96612b9b565b93915095612ddd565b503d61308a565b88513d6000823e3d90fd5b60020b60008112156134365780600003905b620d89e88211613424576001821615613412576001600160881b036ffffcb933bd6fad37aa2d162d1a5940015b1691600281166133f6575b600481166133da575b600881166133be575b601081166133a2575b60208116613386575b6040811661336a575b60809081811661334f575b6101008116613334575b6102008116613319575b61040081166132fe575b61080081166132e3575b61100081166132c8575b61200081166132ad575b6140008116613292575b6180008116613277575b62010000811661325c575b620200008116613242575b620400008116613228575b620800001661320d575b506000126131fe575b63ffffffff81166131f6576000905b60201c60ff91909116016001600160a01b031690565b6001906131e0565b8015612cb457600019046131d1565b6b048a170391f7dc42444e8fa26000929302901c91906131c8565b6d2216e584f5fa1ea926041bedfe98909302811c926131be565b926e5d6af8dedb81196699c329225ee60402811c926131b3565b926f09aa508b5b7a84e1c677de54f3e99bc902811c926131a8565b926f31be135f97d08fd981231505542fcfa602811c9261319d565b926f70d869a156d2a1b890bb3df62baf32f702811c92613193565b926fa9f746462d870fdf8a65dc1f90e061e502811c92613189565b926fd097f3bdfd2022b8845ad8f792aa582502811c9261317f565b926fe7159475a2c29b7443b29c7fa6e889d902811c92613175565b926ff3392b0822b70005940c7a398e4b70f302811c9261316b565b926ff987a7253ac413176f2b074cf7815e5402811c92613161565b926ffcbe86c7900a88aedcffc83b479aa3a402811c92613157565b926ffe5dee046a99a2a811c461f1969c305302811c9261314d565b916fff2ea16466c96a3843ec78b326b528610260801c91613142565b916fff973b41fa98c081472e6896dfb254c00260801c91613139565b916fffcb9843d60f6159c9db58835c9266440260801c91613130565b916fffe5caca7e10e4e61c3624eaa0941cd00260801c91613127565b916ffff2e50f5f656932ef12357cf3c7fdcc0260801c9161311e565b916ffff97272373d413259a46990580e213a0260801c91613115565b6001600160881b03600160801b61310a565b6040516315e4079d60e11b8152600490fd5b806130dd565b60018060a01b03928360155416604093845193849263c45a015560e01b845283600460209788935afa9283156135dc57908791600094613593575b508651630b4c774160e11b81526001600160a01b0391821660048201529216602483015262ffffff9093166044820152929182918491829060009082606481015b0393165af190811561358857600091613553575b5060e091506004835180958193633850c7bd861b8352165afa908115612ff257506000918291613528575b50613501906130cb565b90600c54926135216135158560020b6130cb565b9460181c60020b6130cb565b9293929190565b6135019250613545915060e03d81116130325761301a8183612b6c565b5050505050919091906134f7565b82813d8311613581575b6135678183612b6c565b81010312610207575061357b60e091612b9b565b386134cc565b503d61355d565b83513d6000823e3d90fd5b9150928582813d83116135d5575b6135ab8183612b6c565b810103126102075750918493916000886135c86134b89896612b9b565b9550929193959650613477565b503d6135a1565b86513d6000823e3d90fd5b9295946001600160a01b0380861694818316949293919291849088908789116136f2575b84861694828716861161369d5750506136249350614913565b925b879483838a16928311613692575b5082861698891561299c57613664858561367a99816001600160801b0399169203168760601b8960601b16614b51565b978093829311613687575b505003169116614b25565b9280820615159104019190565b91509150388061366f565b955088935038613634565b9290939194868216116000146136e65782916136bd916136c39594614913565b93614af6565b6001600160801b0381811690831610156136df57505b92613626565b90506136d9565b9150506136d992614af6565b89925086915061360b565b9294959095939193600061014060405161371681612afa565b8281528260208201528260408201528260608201528260808201528260a08201528260c08201528260e08201528261010082015282610120820152015261375f600d5442612cd7565b926040519661376d88612afa565b60018060a01b038616885260018060a01b038916602089015262ffffff8716604089015260020b606088015260020b608087015260a086015260c0850152600060e0850152600061010085015230610120850152610140840152608061014061016460018060a01b03601554169560006040519788948593634418b22b60e11b855260018060a01b03815116600486015260018060a01b03602082015116602486015262ffffff6040820151166044860152606081015160020b60648601528781015160020b608486015260a081015160a486015260c081015160c486015260e081015160e486015261010081015161010486015260018060a01b036101208201511661012486015201516101448401525af193841561399257600093600095613a34575b506001600160a01b038281166000908152601860209081526040808320938516835292815282822062ffffff871683529052205415806139fa575b61399e575b6001600160a01b03918216600081815260176020818152604080842095871680855295825280842062ffffff9890981680855297825280842089905594835290815283822092825291825282812094815293905290912082905560145460015491169190823b1561299c57604051636c95d51960e01b815260048101929092523360248301526001600160801b03841660448301526064820152906000908290608490829084905af1801561399257613989575090565b612c7e90612ae6565b6040513d6000823e3d90fd5b6001600160a01b03818116600081815260186020818152604080842095881680855295825280842062ffffff8a168086529083528185208b905595845291815281832093835292835280822093825292909152208490556138d2565b506001600160a01b038181166000908152601860209081526040808320938616835292815282822062ffffff8716835290522054156138cd565b935093506080833d608011613a6e575b81613a5160809383612b6c565b8101031261299c57613a67602084519401612bbd565b9338613892565b3d9150613a44565b60405190613a8382612b17565b8160e06000918281528260208201528260408201528260608201528260808201528260a08201528260c08201520152565b6001600160801b039182169082160391908211612c9457565b9190916001600160801b0380809416911601918211612c9457565b60008181526003602090815260408083206001548452825280832080546fffffffffffffffffffffffffffffffff19166001600160801b038088169182179092556014548351631b8c9f6760e11b815233600482015260248101979097529497969295949293926001600160a01b039291908490879085168180604481015b03915afa958615613d46578996613d17575b508589526013845242878a2055826014541690600154926000198401848111613d03578951906318c858b960e11b825289600483015260248201528681604481875afa968715613cf9578c97613cc1575b505085161115613c5f57505090613be9613bef92601454169382613ab4565b90613ab4565b60015492823b156104605784516331fcfa4160e11b815260048101919091526001600160801b03909116602482015260448101929092529293909281908490818381606481015b03925af1918215613c55575050613c4a5750565b613c5390612ae6565b565b51903d90823e3d90fd5b93613c79925083613c739196949296613ab4565b90613acd565b90823b156104605784516331fcfa4160e11b815260048101919091526001600160801b0390911660248201526044810192909252929390928190849081838160648101613c36565b9080929750813d8311613cf2575b613cd98183612b6c565b810103126118fc57613cea90612bbd565b943880613bca565b503d613ccf565b8a513d8e823e3d90fd5b634e487b7160e01b8c52601160045260248cfd5b9095508381813d8311613d3f575b613d2f8183612b6c565b81010312611b8b57519438613b79565b503d613d25565b87513d8b823e3d90fd5b9290919260009281845260206003815260409283862060015487528252838620966001600160801b039081851698896001600160801b0319825416179055613dd2576014548551631b8c9f6760e11b8152336004820152602481019390935296979596949591946001600160a01b039290849087908516818060448101613b67565b5050505050915050565b6000198114612c945760010190565b906000828152602091600b8352604092838320613e088154613ddc565b9055613e15600154613ddc565b9182600155858452600a8252848420600b83528585205485528252828585205585845260028252828585205515613ef7576014548451631b8c9f6760e11b815233600482015260248101969096526001600160a01b0316948181604481895afa918215613eed578492613ebf575b5050843b15610b7c579060448392838651978894859363ce16c93160e01b8552600485015260248401525af1918215613c55575050613c4a5750565b90809250813d8311613ee6575b613ed68183612b6c565b81010312610b7c57513880613e83565b503d613ecc565b85513d86823e3d90fd5b5050505050565b6001600160a01b031692613f10613a76565b50613f1d600d5442612cd7565b90604094855191613f2d83612b17565b8183526001600160a01b03948516602080850191825262ffffff9790971688850190815230606086019081526080860196875260a08601848152600060c0880181815260e089018290526016548d5163095ea7b360e01b81529b1660048c015260248b019690965292999398919794959094939192839160449183915af180156140bd57614066575b50601654885163414bf38960e01b815285516001600160a01b039081166004830152975188166024820152975162ffffff1660448901529451861660648801525160848701525160a48601525160c485015260e00151821660e48401526020918391610104918391600091165af1918215612ff25750600091614037575090565b90506020813d60201161405e575b8161405260209383612b6c565b8101031261299c575190565b3d9150614045565b919592969490936020833d6020116140b5575b8161408660209383612b6c565b8101031261299c5762ffffff97602097610104966140a5600096612b8e565b5093979950935093965093613fb6565b3d9150614079565b89513d6000823e3d90fd5b919082604091031261299c576020825192015190565b6001600160a01b039081166000818152601860209081526040808320958516808452958252808320878452825280832054938352601782528083209583529481528482209582529485526014548451631b8c9f6760e11b81523360048083019190915260248201859052929796919094169392918184604481885afa9384156143575788946143f7575b50855163162eaef160e31b8152818101859052938285602481895afa948515613d465789956143c8575b508651946332560fb560e11b8652818387015260248601528285604481895afa948515613d46578995614399575b508651946318c858b960e11b8652818387015260248601528285604481895afa948515613d46578995614361575b508290602488518098819363f82cdafb60e01b8352868301525afa948515614357578895614328575b50828852600b82528588205488969087908015614320575b600a8086528383209091600019810190811161430d578352855282822054975b88811115614264575050505050505050509190565b8683528186528383208184528652838320548784526003875284842081855287526001600160801b0380868620541690816142ab575b5050506142a690613ddc565b61424f565b816142a6949f928b859f6142ea908f611d08948f8f8f908f909c611d08936143049e61249a9d61249a98169a8452815283832091835252205486612c81565b9f8d8a5260058d528a8a20908a528c528989205490612c81565b9b90388061429a565b634e487b7160e01b845260118652602484fd5b50600161422f565b9094508181813d8311614350575b6143408183612b6c565b81010312610ad057519338614217565b503d614336565b86513d8a823e3d90fd5b9094508281813d8311614392575b6143798183612b6c565b81010312611b8b5761438b8391612bbd565b94906141ee565b503d61436f565b9094508281813d83116143c1575b6143b18183612b6c565b81010312611b8b575193386141c0565b503d6143a7565b9094508281813d83116143f0575b6143e08183612b6c565b81010312611b8b57519338614192565b503d6143d6565b9093508181813d831161441f575b61440f8183612b6c565b81010312610ad057519238614168565b503d614405565b6001600160a01b0381811660008181526018602090815260408083208786168085529083528184208985528352818420549484526017835281842090845282528083208884528252808320546014549151631b8c9f6760e11b815233600482015260248101869052939b999a94989497959093929183916044918391165afa80156148ef576148c4575b50906040606060846001600160801b03948c8385516144ce81612b50565b8281528260208201528287820152015285601154168451916144ef83612b50565b82523060208301908152858301828152948301918252601554865163fc6f786560e01b81529351600485015290516001600160a01b0390811660248501529451881660448401529051909616606482015294859283918e91165af19788156109f45789928a9961488e575b50906001600160801b03806145d99316961693878b52600460205260408b206001548c526020528660408c2055878b52600560205260408b206001548c526020528460408c2055878b52600660205260408b206145b8888254612cd7565b9055878b52600760205260408b206145d1868254612cd7565b9055856140de565b979096614883578487838b976145f0838d97612cd7565b116147d6575b505050826146048383612cd7565b11614734575b5050505090806146429252600860205260408520614629848254612cd7565b905580855260096020526040852061130e858254612cd7565b0381845afa91821561176c578592614700575b50600154813b15610464578591604483926040519485938492634829f32960e01b845288600485015260248401525af1801561176c576146ed575b506014546001600160a01b0316803b156118aa57849291836064926040519687958694633ba8b4e560e21b86526004860152602485015260448401525af18015610566576146dc575050565b6146e68291612ae6565b6102075750565b6146f990949194612ae6565b9238614690565b9091506020813d60201161472c575b8161471c60209383612b6c565b810103126118aa57519038614655565b3d915061470f565b614777926147486020959361474d93612cd7565b612cca565b60405163a9059cbb60e01b8152336004820152602481019190915293849283919082906044820190565b03926001600160a01b03165af1801561176c57614799575b808085879361460a565b6020813d6020116147ce575b816147b260209383612b6c565b810103126118aa57906147c761464292612b8e565b509061478f565b3d91506147a5565b6020939596975061481794506147f0929161474891612cd7565b60405163a9059cbb60e01b8152336004820152602481019190915291829081906044820190565b03818b6001600160a01b0389165af18015610a35579187918995949361483f575b87816145f6565b9150919293506020813d60201161487b575b8161485e60209383612b6c565b81010312610ad057879392916148748892612b8e565b5038614838565b3d9150614851565b505050505050505050565b6145d9929199506001600160801b0393506148b8849160403d6040116109ed576109d08183612b6c565b9a90945091925061455a565b602090813d83116148e8575b6148da8183612b6c565b81010312611b8b57386144b0565b503d6148d0565b6040513d8c823e3d90fd5b6001600160a01b039182169082160391908211612c9457565b61494d9291906001600160a01b039081831682821611614961575b61494690614940838516848316614967565b936148fa565b1691614a81565b6001600160801b03811690810361299c5790565b9161492e565b60001982820990828102928380841093039183830393600093146149a757600160601b928484111561020757500990828211900360a01b910360601c1790565b505090505060601c90565b90600160601b90600019828409928060601b92838086109503948086039514614a2e578483111561299c5782910981806000031680920460028082600302188083028203028083028203028083028203028083028203028083028203028092029003029360018380600003040190848311900302920304170290565b50508092501561299c570490565b6000198282099082810292838084109303928084039314614a7857600160601b918383111561299c570990828211900360a01b910360601c1790565b50505060601c90565b916000198284099282810292838086109503948086039514614a2e578483111561299c5782910981806000031680920460028082600302188083028203028083028203028083028203028083028203028083028203028092029003029360018380600003040190848311900302920304170290565b61494d92916001600160a01b0391614b189183811684831611614b1f576148fa565b16906149b2565b906148fa565b919091614b328382614a3c565b92600160601b9109614b4057565b9060001981101561299c5760010190565b929190614b5f828286614a81565b938215612cb45709614b405756fea264697066735822122018bf70f1c833d76252e5c2178add6c91d6331561ab03057cd0ccf352a98c801664736f6c63430008130033",
  "linkReferences": {},
  "deployedLinkReferences": {}
}