{
  "_format": "hh-sol-artifact-1",
  "contractName": "SqrtPriceMath",
  "sourceName": "contracts/SqrtPriceMath.sol",
  "abi": [
    {
      "inputs": [
        {
          "internalType": "uint160",
          "name": "sqrtRatioAX96",
          "type": "uint160"
        },
        {
          "internalType": "uint160",
          "name": "sqrtRatioBX96",
          "type": "uint160"
        },
        {
          "internalType": "uint128",
          "name": "liquidity",
          "type": "uint128"
        },
        {
          "internalType": "bool",
          "name": "roundUp",
          "type": "bool"
        }
      ],
      "name": "getAmount0Delta",
      "outputs": [
        {
          "internalType": "uint256",
          "name": "amount0",
          "type": "uint256"
        }
      ],
      "stateMutability": "pure",
      "type": "function"
    },
    {
      "inputs": [
        {
          "internalType": "uint160",
          "name": "sqrtRatioAX96",
          "type": "uint160"
        },
        {
          "internalType": "uint160",
          "name": "sqrtRatioBX96",
          "type": "uint160"
        },
        {
          "internalType": "uint128",
          "name": "liquidity",
          "type": "uint128"
        },
        {
          "internalType": "bool",
          "name": "roundUp",
          "type": "bool"
        }
      ],
      "name": "getAmount1Delta",
      "outputs": [
        {
          "internalType": "uint256",
          "name": "amount1",
          "type": "uint256"
        }
      ],
      "stateMutability": "pure",
      "type": "function"
    }
  ],
  "bytecode": "0x6080806040523461001a5761034a9081610020823930815050f35b600080fdfe6080604052600436101561001257600080fd5b6000803560e01c80632c32d4b6146100d4576348a0c5bd1461003357600080fd5b61003c366101aa565b9093926001600160a01b039290918183858216868216116100c8575b5050156100a7570316916001600160801b0316610075838261024c565b92600160601b910961008f575b506020905b604051908152f35b6000198210156100a457506001016020610082565b80fd5b6100c39350916001600160801b03916020959303169116610201565b610087565b90935091503880610058565b506100de366101aa565b91939192906001600160a01b039085838382168482161161019f575b505060601b6fffffffffffffffffffffffffffffffff60601b169482821694928103821692851561019b5715610184571690610137828287610291565b9482156101705709610159575b50908160209282061515910401604051908152f35b6000198310156100a4575060016020920191610144565b634e487b7160e01b84526012600452602484fd5b602095610195945091169190610291565b04610087565b8480fd5b9650925038806100fa565b60809060031901126101fc576001600160a01b039060043582811681036101fc579160243590811681036101fc57906044356001600160801b03811681036101fc579060643580151581036101fc5790565b600080fd5b600019828209908281029283808410930391838303936000931461024157600160601b92848411156100a457500990828211900360a01b910360601c1790565b505090505060601c90565b600019828209908281029283808410930392808403931461028857600160601b91838311156101fc570990828211900360a01b910360601c1790565b50505060601c90565b91600019828409928281029283808610950394808603951461030657848311156101fc5782910981806000031680920460028082600302188083028203028083028203028083028203028083028203028083028203028092029003029360018380600003040190848311900302920304170290565b5050809250156101fc57049056fea26469706673582212200a488a98f223914500873cc7603d05c8dbaf762f6cec65c080e632fc996c6a0c64736f6c63430008130033",
  "linkReferences": {},
  "deployedLinkReferences": {}
}