{
  "_format": "hh-sol-artifact-1",
  "contractName": "PositionsNFT",
  "sourceName": "contracts/yfsc_flat_interface.sol",
  "abi": [
    {
      "inputs": [],
      "stateMutability": "nonpayable",
      "type": "constructor"
    },
    {
      "anonymous": false,
      "inputs": [
        {
          "indexed": true,
          "internalType": "address",
          "name": "owner",
          "type": "address"
        },
        {
          "indexed": true,
          "internalType": "address",
          "name": "approved",
          "type": "address"
        },
        {
          "indexed": true,
          "internalType": "uint256",
          "name": "tokenId",
          "type": "uint256"
        }
      ],
      "name": "Approval",
      "type": "event"
    },
    {
      "anonymous": false,
      "inputs": [
        {
          "indexed": true,
          "internalType": "address",
          "name": "owner",
          "type": "address"
        },
        {
          "indexed": true,
          "internalType": "address",
          "name": "operator",
          "type": "address"
        },
        {
          "indexed": false,
          "internalType": "bool",
          "name": "approved",
          "type": "bool"
        }
      ],
      "name": "ApprovalForAll",
      "type": "event"
    },
    {
      "anonymous": false,
      "inputs": [
        {
          "indexed": false,
          "internalType": "address",
          "name": "account",
          "type": "address"
        }
      ],
      "name": "Paused",
      "type": "event"
    },
    {
      "anonymous": false,
      "inputs": [
        {
          "indexed": true,
          "internalType": "bytes32",
          "name": "role",
          "type": "bytes32"
        },
        {
          "indexed": true,
          "internalType": "bytes32",
          "name": "previousAdminRole",
          "type": "bytes32"
        },
        {
          "indexed": true,
          "internalType": "bytes32",
          "name": "newAdminRole",
          "type": "bytes32"
        }
      ],
      "name": "RoleAdminChanged",
      "type": "event"
    },
    {
      "anonymous": false,
      "inputs": [
        {
          "indexed": true,
          "internalType": "bytes32",
          "name": "role",
          "type": "bytes32"
        },
        {
          "indexed": true,
          "internalType": "address",
          "name": "account",
          "type": "address"
        },
        {
          "indexed": true,
          "internalType": "address",
          "name": "sender",
          "type": "address"
        }
      ],
      "name": "RoleGranted",
      "type": "event"
    },
    {
      "anonymous": false,
      "inputs": [
        {
          "indexed": true,
          "internalType": "bytes32",
          "name": "role",
          "type": "bytes32"
        },
        {
          "indexed": true,
          "internalType": "address",
          "name": "account",
          "type": "address"
        },
        {
          "indexed": true,
          "internalType": "address",
          "name": "sender",
          "type": "address"
        }
      ],
      "name": "RoleRevoked",
      "type": "event"
    },
    {
      "anonymous": false,
      "inputs": [
        {
          "indexed": true,
          "internalType": "address",
          "name": "from",
          "type": "address"
        },
        {
          "indexed": true,
          "internalType": "address",
          "name": "to",
          "type": "address"
        },
        {
          "indexed": true,
          "internalType": "uint256",
          "name": "tokenId",
          "type": "uint256"
        }
      ],
      "name": "Transfer",
      "type": "event"
    },
    {
      "anonymous": false,
      "inputs": [
        {
          "indexed": false,
          "internalType": "address",
          "name": "account",
          "type": "address"
        }
      ],
      "name": "Unpaused",
      "type": "event"
    },
    {
      "inputs": [],
      "name": "DEFAULT_ADMIN_ROLE",
      "outputs": [
        {
          "internalType": "bytes32",
          "name": "",
          "type": "bytes32"
        }
      ],
      "stateMutability": "view",
      "type": "function"
    },
    {
      "inputs": [],
      "name": "MINTER_ROLE",
      "outputs": [
        {
          "internalType": "bytes32",
          "name": "",
          "type": "bytes32"
        }
      ],
      "stateMutability": "view",
      "type": "function"
    },
    {
      "inputs": [],
      "name": "PAUSER_ROLE",
      "outputs": [
        {
          "internalType": "bytes32",
          "name": "",
          "type": "bytes32"
        }
      ],
      "stateMutability": "view",
      "type": "function"
    },
    {
      "inputs": [
        {
          "internalType": "address",
          "name": "to",
          "type": "address"
        },
        {
          "internalType": "uint256",
          "name": "tokenId",
          "type": "uint256"
        }
      ],
      "name": "approve",
      "outputs": [],
      "stateMutability": "nonpayable",
      "type": "function"
    },
    {
      "inputs": [
        {
          "internalType": "address",
          "name": "owner",
          "type": "address"
        }
      ],
      "name": "balanceOf",
      "outputs": [
        {
          "internalType": "uint256",
          "name": "",
          "type": "uint256"
        }
      ],
      "stateMutability": "view",
      "type": "function"
    },
    {
      "inputs": [
        {
          "internalType": "uint256",
          "name": "tokenId",
          "type": "uint256"
        }
      ],
      "name": "burn",
      "outputs": [],
      "stateMutability": "nonpayable",
      "type": "function"
    },
    {
      "inputs": [
        {
          "internalType": "uint256",
          "name": "tokenId",
          "type": "uint256"
        }
      ],
      "name": "getApproved",
      "outputs": [
        {
          "internalType": "address",
          "name": "",
          "type": "address"
        }
      ],
      "stateMutability": "view",
      "type": "function"
    },
    {
      "inputs": [
        {
          "internalType": "uint256",
          "name": "_userPositionNft",
          "type": "uint256"
        },
        {
          "internalType": "uint256",
          "name": "_state",
          "type": "uint256"
        }
      ],
      "name": "getLiquidityForUserInPoolAtState",
      "outputs": [
        {
          "internalType": "uint128",
          "name": "liquidity",
          "type": "uint128"
        }
      ],
      "stateMutability": "view",
      "type": "function"
    },
    {
      "inputs": [
        {
          "internalType": "bytes32",
          "name": "role",
          "type": "bytes32"
        }
      ],
      "name": "getRoleAdmin",
      "outputs": [
        {
          "internalType": "bytes32",
          "name": "",
          "type": "bytes32"
        }
      ],
      "stateMutability": "view",
      "type": "function"
    },
    {
      "inputs": [
        {
          "internalType": "uint256",
          "name": "_userPositionNft",
          "type": "uint256"
        },
        {
          "internalType": "uint256",
          "name": "_stateId",
          "type": "uint256"
        }
      ],
      "name": "getStatesIdsForPosition",
      "outputs": [
        {
          "internalType": "uint256",
          "name": "id",
          "type": "uint256"
        }
      ],
      "stateMutability": "view",
      "type": "function"
    },
    {
      "inputs": [
        {
          "internalType": "address",
          "name": "receiver",
          "type": "address"
        },
        {
          "internalType": "uint256",
          "name": "uniswapNftId",
          "type": "uint256"
        }
      ],
      "name": "getUserNftPerPool",
      "outputs": [
        {
          "internalType": "uint256",
          "name": "",
          "type": "uint256"
        }
      ],
      "stateMutability": "view",
      "type": "function"
    },
    {
      "inputs": [
        {
          "internalType": "bytes32",
          "name": "role",
          "type": "bytes32"
        },
        {
          "internalType": "address",
          "name": "account",
          "type": "address"
        }
      ],
      "name": "grantRole",
      "outputs": [],
      "stateMutability": "nonpayable",
      "type": "function"
    },
    {
      "inputs": [
        {
          "internalType": "bytes32",
          "name": "role",
          "type": "bytes32"
        },
        {
          "internalType": "address",
          "name": "account",
          "type": "address"
        }
      ],
      "name": "hasRole",
      "outputs": [
        {
          "internalType": "bool",
          "name": "",
          "type": "bool"
        }
      ],
      "stateMutability": "view",
      "type": "function"
    },
    {
      "inputs": [
        {
          "internalType": "address",
          "name": "owner",
          "type": "address"
        },
        {
          "internalType": "address",
          "name": "operator",
          "type": "address"
        }
      ],
      "name": "isApprovedForAll",
      "outputs": [
        {
          "internalType": "bool",
          "name": "",
          "type": "bool"
        }
      ],
      "stateMutability": "view",
      "type": "function"
    },
    {
      "inputs": [
        {
          "internalType": "uint256",
          "name": "",
          "type": "uint256"
        }
      ],
      "name": "lastClaimForPosition",
      "outputs": [
        {
          "internalType": "uint256",
          "name": "",
          "type": "uint256"
        }
      ],
      "stateMutability": "view",
      "type": "function"
    },
    {
      "inputs": [
        {
          "internalType": "uint256",
          "name": "",
          "type": "uint256"
        },
        {
          "internalType": "uint256",
          "name": "",
          "type": "uint256"
        }
      ],
      "name": "liquidityForUserInPoolAtState",
      "outputs": [
        {
          "internalType": "uint128",
          "name": "",
          "type": "uint128"
        }
      ],
      "stateMutability": "view",
      "type": "function"
    },
    {
      "inputs": [],
      "name": "name",
      "outputs": [
        {
          "internalType": "string",
          "name": "",
          "type": "string"
        }
      ],
      "stateMutability": "view",
      "type": "function"
    },
    {
      "inputs": [
        {
          "internalType": "uint256",
          "name": "tokenId",
          "type": "uint256"
        }
      ],
      "name": "ownerOf",
      "outputs": [
        {
          "internalType": "address",
          "name": "",
          "type": "address"
        }
      ],
      "stateMutability": "view",
      "type": "function"
    },
    {
      "inputs": [],
      "name": "pause",
      "outputs": [],
      "stateMutability": "nonpayable",
      "type": "function"
    },
    {
      "inputs": [],
      "name": "paused",
      "outputs": [
        {
          "internalType": "bool",
          "name": "",
          "type": "bool"
        }
      ],
      "stateMutability": "view",
      "type": "function"
    },
    {
      "inputs": [
        {
          "internalType": "bytes32",
          "name": "role",
          "type": "bytes32"
        },
        {
          "internalType": "address",
          "name": "account",
          "type": "address"
        }
      ],
      "name": "renounceRole",
      "outputs": [],
      "stateMutability": "nonpayable",
      "type": "function"
    },
    {
      "inputs": [
        {
          "internalType": "bytes32",
          "name": "role",
          "type": "bytes32"
        },
        {
          "internalType": "address",
          "name": "account",
          "type": "address"
        }
      ],
      "name": "revokeRole",
      "outputs": [],
      "stateMutability": "nonpayable",
      "type": "function"
    },
    {
      "inputs": [
        {
          "internalType": "uint256",
          "name": "_uniswapNftId",
          "type": "uint256"
        },
        {
          "internalType": "address",
          "name": "_receiver",
          "type": "address"
        },
        {
          "internalType": "uint128",
          "name": "_liquidity",
          "type": "uint128"
        },
        {
          "internalType": "uint256",
          "name": "_state",
          "type": "uint256"
        }
      ],
      "name": "safeMint",
      "outputs": [],
      "stateMutability": "nonpayable",
      "type": "function"
    },
    {
      "inputs": [
        {
          "internalType": "address",
          "name": "from",
          "type": "address"
        },
        {
          "internalType": "address",
          "name": "to",
          "type": "address"
        },
        {
          "internalType": "uint256",
          "name": "tokenId",
          "type": "uint256"
        }
      ],
      "name": "safeTransferFrom",
      "outputs": [],
      "stateMutability": "nonpayable",
      "type": "function"
    },
    {
      "inputs": [
        {
          "internalType": "address",
          "name": "from",
          "type": "address"
        },
        {
          "internalType": "address",
          "name": "to",
          "type": "address"
        },
        {
          "internalType": "uint256",
          "name": "tokenId",
          "type": "uint256"
        },
        {
          "internalType": "bytes",
          "name": "data",
          "type": "bytes"
        }
      ],
      "name": "safeTransferFrom",
      "outputs": [],
      "stateMutability": "nonpayable",
      "type": "function"
    },
    {
      "inputs": [
        {
          "internalType": "address",
          "name": "operator",
          "type": "address"
        },
        {
          "internalType": "bool",
          "name": "approved",
          "type": "bool"
        }
      ],
      "name": "setApprovalForAll",
      "outputs": [],
      "stateMutability": "nonpayable",
      "type": "function"
    },
    {
      "inputs": [
        {
          "internalType": "uint256",
          "name": "",
          "type": "uint256"
        },
        {
          "internalType": "uint256",
          "name": "",
          "type": "uint256"
        }
      ],
      "name": "statesIdsForPosition",
      "outputs": [
        {
          "internalType": "uint256",
          "name": "",
          "type": "uint256"
        }
      ],
      "stateMutability": "view",
      "type": "function"
    },
    {
      "inputs": [
        {
          "internalType": "bytes4",
          "name": "interfaceId",
          "type": "bytes4"
        }
      ],
      "name": "supportsInterface",
      "outputs": [
        {
          "internalType": "bool",
          "name": "",
          "type": "bool"
        }
      ],
      "stateMutability": "view",
      "type": "function"
    },
    {
      "inputs": [],
      "name": "symbol",
      "outputs": [
        {
          "internalType": "string",
          "name": "",
          "type": "string"
        }
      ],
      "stateMutability": "view",
      "type": "function"
    },
    {
      "inputs": [
        {
          "internalType": "uint256",
          "name": "tokenId",
          "type": "uint256"
        }
      ],
      "name": "tokenURI",
      "outputs": [
        {
          "internalType": "string",
          "name": "",
          "type": "string"
        }
      ],
      "stateMutability": "view",
      "type": "function"
    },
    {
      "inputs": [
        {
          "internalType": "uint256",
          "name": "",
          "type": "uint256"
        }
      ],
      "name": "totalClaimedforPosition",
      "outputs": [
        {
          "internalType": "uint256",
          "name": "",
          "type": "uint256"
        }
      ],
      "stateMutability": "view",
      "type": "function"
    },
    {
      "inputs": [
        {
          "internalType": "uint256",
          "name": "",
          "type": "uint256"
        }
      ],
      "name": "totalStatesForPosition",
      "outputs": [
        {
          "internalType": "uint256",
          "name": "",
          "type": "uint256"
        }
      ],
      "stateMutability": "view",
      "type": "function"
    },
    {
      "inputs": [
        {
          "internalType": "address",
          "name": "from",
          "type": "address"
        },
        {
          "internalType": "address",
          "name": "to",
          "type": "address"
        },
        {
          "internalType": "uint256",
          "name": "tokenId",
          "type": "uint256"
        }
      ],
      "name": "transferFrom",
      "outputs": [],
      "stateMutability": "nonpayable",
      "type": "function"
    },
    {
      "inputs": [],
      "name": "unpause",
      "outputs": [],
      "stateMutability": "nonpayable",
      "type": "function"
    },
    {
      "inputs": [
        {
          "internalType": "uint256",
          "name": "_positionNftId",
          "type": "uint256"
        },
        {
          "internalType": "uint256",
          "name": "_state",
          "type": "uint256"
        }
      ],
      "name": "updateLastClaimForPosition",
      "outputs": [],
      "stateMutability": "nonpayable",
      "type": "function"
    },
    {
      "inputs": [
        {
          "internalType": "uint256",
          "name": "positionNftId",
          "type": "uint256"
        },
        {
          "internalType": "uint128",
          "name": "_liquidity",
          "type": "uint128"
        },
        {
          "internalType": "uint256",
          "name": "_state",
          "type": "uint256"
        }
      ],
      "name": "updateLiquidityForUser",
      "outputs": [],
      "stateMutability": "nonpayable",
      "type": "function"
    },
    {
      "inputs": [
        {
          "internalType": "uint256",
          "name": "_positionNftId",
          "type": "uint256"
        },
        {
          "internalType": "uint256",
          "name": "_totalClaim",
          "type": "uint256"
        }
      ],
      "name": "updateTotalClaimForPosition",
      "outputs": [],
      "stateMutability": "nonpayable",
      "type": "function"
    },
    {
      "inputs": [
        {
          "internalType": "address",
          "name": "",
          "type": "address"
        },
        {
          "internalType": "uint256",
          "name": "",
          "type": "uint256"
        }
      ],
      "name": "userNftPerPool",
      "outputs": [
        {
          "internalType": "uint256",
          "name": "",
          "type": "uint256"
        }
      ],
      "stateMutability": "view",
      "type": "function"
    }
  ],
  "bytecode": "0x60803462000482576040906001600160401b03818301818111838210176200046c5783526013825260207f596620536320506f736974696f6e73204e46540000000000000000000000000081840152835190848201828110848211176200046c578552600792838352661654d417d3919560ca1b8284015284518181116200046c576000938454916001978884811c9416801562000461575b868510146200044d578190601f94858111620003fa575b508690858311600114620003965788926200038a575b5050600019600383901b1c191690881b1785555b8051928311620003765786548781811c911680156200036b575b8582101462000357579081838594931162000302575b50849183116001146200029e57859262000292575b5050600019600383901b1c191690851b1784555b60ff19908160065416600655828052838152858320338452815260ff8684205416156200025d575b7f65d7a28e3265b37a6474929f336521b332c1681b933f6cb9f3376673440d862a808452848252868420338552825260ff87852054161562000226575b507f9f2df0fed2c77648de5860a4cc508cd0818c85b8b8a1ab4ceeef8d981c8956a693848452808252868420338552825260ff878520541615620001ed575b86866008540160085551611ebb9081620004888239f35b848452815285832090338452528385832091825416179055339160008051602062002343833981519152339280a43880808080620001d6565b8084528482528684203385528252868420868482541617905533903390600080516020620023438339815191528680a43862000197565b82805283815285832033845281528583208583825416179055333384600080516020620023438339815191528180a46200015a565b0151905038806200011e565b8786528486208894509190601f198416875b87828210620002eb5750508411620002d1575b505050811b01845562000132565b015160001960f88460031b161c19169055388080620002c3565b8385015186558b97909501949384019301620002b0565b909192508786528486208380860160051c8201928787106200034d575b9186958b929594930160051c01915b8281106200033e57505062000109565b8881558695508a91016200032e565b925081926200031f565b634e487b7160e01b86526022600452602486fd5b90607f1690620000f3565b634e487b7160e01b85526041600452602485fd5b015190503880620000c5565b8880528789208b94509190601f1984168a5b8a828210620003e35750508411620003c9575b505050811b018555620000d9565b015160001960f88460031b161c19169055388080620003bb565b8385015186558e97909501949384019301620003a8565b9091508780528688208580850160051c82019289861062000443575b918c91869594930160051c01915b82811062000434575050620000af565b8a81558594508c910162000424565b9250819262000416565b634e487b7160e01b87526022600452602487fd5b93607f169362000098565b634e487b7160e01b600052604160045260246000fd5b600080fdfe6080604081815260048036101561001557600080fd5b600092833560e01c90816301ffc9a7146110f65750806306fdde031461102b578063081812fc1461100b578063095ea7b314610e9e57806323b872dd14610e79578063248a9ca314610e4f5780632f2ff15d14610da35780633190b1721461079d57806336568abe14610d1157806337193ece1461046d5780633f4ba83a14610c7c57806342842e0e14610c485783816342966c6814610b96575080634829f32914610b6f5780635c975abb14610b4b5780636352211e14610b1a57806363f9f48214610a8357806364ac1f6a146102f75780636c95d5191461086857806370a08231146107d257806371a6f4401461079d57806383f6cc9b146107765780638456cb591461071b57806391d14854146106d557806395d89b41146105bf578063a217fddf146105a4578063a22cb465146104d5578063b1757788146104ae578063b3f363c11461046d578063b88d4fde146103ba578063bc95969414610393578063c87b56dd14610323578063cff5128d146102f7578063d5391393146102bc578063d547741f1461027e578063e63ab1e914610243578063e985e9c5146101f15763f82cdafb146101c757600080fd5b346101ed5760203660031901126101ed576020928291358152600d845220549051908152f35b8280fd5b50503461023f578060031936011261023f5760ff816020936102116111c4565b6102196111df565b6001600160a01b0391821683526005875283832091168252855220549151911615158152f35b5080fd5b50503461023f578160031936011261023f57602090517f65d7a28e3265b37a6474929f336521b332c1681b933f6cb9f3376673440d862a8152f35b5090346101ed57806003193601126101ed576102b991356102b460016102a26111df565b9383875260076020528620015461162c565b61186d565b80f35b50503461023f578160031936011261023f57602090517f9f2df0fed2c77648de5860a4cc508cd0818c85b8b8a1ab4ceeef8d981c8956a68152f35b50503461023f578060209261030b3661122a565b908252600b8552828220908252845220549051908152f35b5091903461023f57602036600319011261023f5761036261035d61038f9435600052600260205260018060a01b0360406000205416151590565b6118e3565b81815161036e81611240565b5280519161037b83611240565b82525191829160208352602083019061119f565b0390f35b50346101ed5760203660031901126101ed576020928291358152600e845220549051908152f35b5090346101ed5760803660031901126101ed576103d56111c4565b906103de6111df565b604435906064359467ffffffffffffffff861161046957366023870112156104695785013593610419610410866112b0565b9451948561128e565b848452863660248789010111610466576020866104619760246102b99a01838901378601015261045161044c8433611a68565b611993565b61045c838383611b30565b611d6a565b611a48565b80fd5b8680fd5b50503461023f578060031936011261023f5760209181906001600160a01b036104946111c4565b168152600984528181206024358252845220549051908152f35b50346101ed5760203660031901126101ed576020928291358152600c845220549051908152f35b5090346101ed57806003193601126101ed576104ef6111c4565b90602435918215158093036105a0576001600160a01b03169233841461055e5750338452600560205280842083855260205280842060ff1981541660ff8416179055519081527f17307eab39ab6107e8899845ad3d59bd9653f200f220920489ca2b5937696c3160203392a380f35b6020606492519162461bcd60e51b8352820152601960248201527f4552433732313a20617070726f766520746f2063616c6c6572000000000000006044820152fd5b8480fd5b50503461023f578160031936011261023f5751908152602090f35b5091346104665780600319360112610466578151918160019283549384811c918186169586156106cb575b60209687851081146106b8578899509688969785829a529182600014610691575050600114610636575b50505061038f929161062791038561128e565b5192828493845283019061119f565b91908693508083527fb10e2d527612073b26eecdfd717e6a320cf44b4afac2b0732d9fcbe2b7fa0cf65b828410610679575050508201018161062761038f610614565b8054848a018601528895508794909301928101610660565b60ff19168782015293151560051b86019093019350849250610627915061038f9050610614565b634e487b7160e01b835260228a52602483fd5b92607f16926105ea565b50346101ed57816003193601126101ed578160209360ff926106f56111df565b90358252600786528282206001600160a01b039091168252855220549151911615158152f35b50503461023f578160031936011261023f5760207f62e78cea01bee320cd4e420270b5ea74000d11b0c9f74754ebdbfc544b05a258916107596112cc565b610761611df5565b600160ff19600654161760065551338152a180f35b50503461023f576107863661122a565b91906107906114e7565b8352600e60205282205580f35b50503461023f576001600160801b03816020936107b93661122a565b908252600a865282822090825285522054169051908152f35b5082903461023f57602036600319011261023f576001600160a01b036107f66111c4565b169081156108135760208480858581526003845220549051908152f35b608490602085519162461bcd60e51b8352820152602960248201527f4552433732313a2061646472657373207a65726f206973206e6f7420612076616044820152683634b21037bbb732b960b91b6064820152fd5b5090346101ed5760803660031901126101ed576108836111df565b604435926001600160801b0384168094036105a057606435936108a46114e7565b600854926001840160085584516108ba81611240565b8781526001600160a01b038216918215610a405761046186959493928661098f936109046108fe8e9b600052600260205260018060a01b0360406000205416151590565b15611e39565b61090c611df5565b60008281526002602052604090205461092f906001600160a01b031615156108fe565b858a52818660209b60038d528d81206001815401905582815260028d528d8120826bffffffffffffffffffffffff60a01b8254161790557fddf252ad1be2c89b69c2b068fc378daa952ba7f163c4a11628f55a4df523b3ef8180a4611c4e565b87526009845284872082358852845282858820556109ab6114e7565b828752600a84528487208688528452848720906001600160801b0319825416179055818652600b8352838620600c84528487205487528352848487205410610a0a575b508452600b815281842090600c81528285205485525282205580f35b818652600c8352838620805490916000198214610a2d57506001019055386109ee565b634e487b7160e01b885260119052602487fd5b865162461bcd60e51b8152602081870181905260248201527f4552433732313a206d696e7420746f20746865207a65726f20616464726573736044820152606490fd5b5090346101ed5760603660031901126101ed578135602435906001600160801b0382168092036105a05760443593610ab96114e7565b818652602092600a84528487208688528452848720906001600160801b0319825416179055818652600b8352838620600c84528487205487528352848487205410610a0a57508452600b815281842090600c81528285205485525282205580f35b5091346104665760203660031901126104665750610b3a6020923561192f565b90516001600160a01b039091168152f35b50503461023f578160031936011261023f5760209060ff6006541690519015158152f35b50503461023f57610b7f3661122a565b9190610b896114e7565b8352600d60205282205580f35b8281853461023f57602036600319011261023f57823592610bba61044c8533611a68565b610bc38461192f565b50610bcc611df5565b610bd58461192f565b848452602091825282842080546001600160a01b03199081169091556001600160a01b03909116808552600383528385208054600019019055858552600290925291832080549092169091557fddf252ad1be2c89b69c2b068fc378daa952ba7f163c4a11628f55a4df523b3ef8280a480f35b50503461023f576104616102b991610c5f366111f5565b91925192610c6c84611240565b86845261045161044c8433611a68565b50346101ed57826003193601126101ed57610c956112cc565b6006549060ff821615610cd7575060ff1916600655513381527f5db9ee0a495bf2e6ff9c91a7834c1ba4fdd244a5e8aa4e537bd38aeae4b073aa90602090a180f35b606490602084519162461bcd60e51b8352820152601460248201527314185d5cd8589b194e881b9bdd081c185d5cd95960621b6044820152fd5b5082903461023f578260031936011261023f57610d2c6111df565b90336001600160a01b03831603610d4857906102b9913561186d565b608490602085519162461bcd60e51b8352820152602f60248201527f416363657373436f6e74726f6c3a2063616e206f6e6c792072656e6f756e636560448201526e103937b632b9903337b91039b2b63360891b6064820152fd5b50346101ed57816003193601126101ed573590610dbe6111df565b908284526007602052610dd66001828620015461162c565b828452600760209081528185206001600160a01b039093168086529290528084205460ff1615610e04578380f35b82845260076020528084208285526020528320600160ff1982541617905533917f2f8788117e7eff1d82e926ec794901d17c78024a50270940304540a733656f0d8480a43880808380f35b50346101ed5760203660031901126101ed5781602093600192358152600785522001549051908152f35b8334610466576102b9610e8b366111f5565b91610e9961044c8433611a68565b611b30565b50346101ed57816003193601126101ed57610eb76111c4565b6024359290916001600160a01b0391908280610ed28761192f565b16941693808514610fbe57803314908115610f9f575b5015610f3757848652602052842080546001600160a01b03191683179055610f0f8361192f565b167f8c5be1e5ebec7d5bd14f71427d1e84f3dd0314c0f7b2291e5b200ac8c7c3b9258480a480f35b6020608492519162461bcd60e51b8352820152603d60248201527f4552433732313a20617070726f76652063616c6c6572206973206e6f7420746f60448201527f6b656e206f776e6572206f7220617070726f76656420666f7220616c6c0000006064820152fd5b90508652600560205281862033875260205260ff828720541638610ee8565b506020608492519162461bcd60e51b8352820152602160248201527f4552433732313a20617070726f76616c20746f2063757272656e74206f776e656044820152603960f91b6064820152fd5b5091346104665760203660031901126104665750610b3a60209235611955565b50913461046657806003193601126104665781519181825492600184811c918186169586156110ec575b60209687851081146106b8578899509688969785829a5291826000146106915750506001146110915750505061038f929161062791038561128e565b91908693508280527f290decd9548b62a8d60345a988386fc84ba6bc95484008f6362f93160ef3e5635b8284106110d4575050508201018161062761038f610614565b8054848a0186015288955087949093019281016110bb565b92607f1692611055565b925050346101ed5760203660031901126101ed573563ffffffff60e01b81168091036101ed5760209250637965db0b60e01b8114908115611139575b5015158152f35b6380ac58cd60e01b81149150811561116b575b811561115a575b5038611132565b6301ffc9a760e01b14905038611153565b635b5e139f60e01b8114915061114c565b60005b83811061118f5750506000910152565b818101518382015260200161117f565b906020916111b88151809281855285808601910161117c565b601f01601f1916010190565b600435906001600160a01b03821682036111da57565b600080fd5b602435906001600160a01b03821682036111da57565b60609060031901126111da576001600160a01b039060043582811681036111da579160243590811681036111da579060443590565b60409060031901126111da576004359060243590565b6020810190811067ffffffffffffffff82111761125c57604052565b634e487b7160e01b600052604160045260246000fd5b6080810190811067ffffffffffffffff82111761125c57604052565b90601f8019910116810190811067ffffffffffffffff82111761125c57604052565b67ffffffffffffffff811161125c57601f01601f191660200190565b3360009081527f270c7cc4331b1445974c76712d9bb2afa8846ba0435cde7d1460f79fd91c04bd602090815260408083205490927f65d7a28e3265b37a6474929f336521b332c1681b933f6cb9f3376673440d862a9160ff16156113305750505050565b6113393361175e565b9184519061134682611272565b604282528482019260603685378251156114d357603084538251906001918210156114d35790607860218501536041915b8183116114655750505061142357604861141f938693611403936113f4985198899376020b1b1b2b9b9a1b7b73a3937b61d1030b1b1b7bab73a1604d1b8a8601526113cb815180928c60378901910161117c565b8401917001034b99036b4b9b9b4b733903937b6329607d1b60378401525180938684019061117c565b0103602881018752018561128e565b5192839262461bcd60e51b84526004840152602483019061119f565b0390fd5b60648486519062461bcd60e51b825280600483015260248201527f537472696e67733a20686578206c656e67746820696e73756666696369656e746044820152fd5b909192600f811660108110156114bf576f181899199a1a9b1b9c1cb0b131b232b360811b901a6114958587611737565b5360041c9280156114ab57600019019190611377565b634e487b7160e01b82526011600452602482fd5b634e487b7160e01b83526032600452602483fd5b634e487b7160e01b81526032600452602490fd5b3360009081527fa4bfd7afe708e2e87e7f0e2ad9b4d545417e0f795f57b5c5ab5d799c565a04f4602090815260408083205490927f9f2df0fed2c77648de5860a4cc508cd0818c85b8b8a1ab4ceeef8d981c8956a69160ff161561154b5750505050565b6115543361175e565b9184519061156182611272565b604282528482019260603685378251156114d357603084538251906001918210156114d35790607860218501536041915b8183116115e65750505061142357604861141f938693611403936113f4985198899376020b1b1b2b9b9a1b7b73a3937b61d1030b1b1b7bab73a1604d1b8a8601526113cb815180928c60378901910161117c565b909192600f811660108110156114bf576f181899199a1a9b1b9c1cb0b131b232b360811b901a6116168587611737565b5360041c9280156114ab57600019019190611592565b60009080825260209060078252604092838120338252835260ff8482205416156116565750505050565b61165f3361175e565b9184519061166c82611272565b604282528482019260603685378251156114d357603084538251906001918210156114d35790607860218501536041915b8183116116f15750505061142357604861141f938693611403936113f4985198899376020b1b1b2b9b9a1b7b73a3937b61d1030b1b1b7bab73a1604d1b8a8601526113cb815180928c60378901910161117c565b909192600f811660108110156114bf576f181899199a1a9b1b9c1cb0b131b232b360811b901a6117218587611737565b5360041c9280156114ab5760001901919061169d565b908151811015611748570160200190565b634e487b7160e01b600052603260045260246000fd5b604051906060820182811067ffffffffffffffff82111761125c57604052602a82526020820160403682378251156117485760309053815160019081101561174857607860218401536029905b8082116117ff5750506117bb5790565b606460405162461bcd60e51b815260206004820152602060248201527f537472696e67733a20686578206c656e67746820696e73756666696369656e746044820152fd5b9091600f81166010811015611858576f181899199a1a9b1b9c1cb0b131b232b360811b901a61182e8486611737565b5360041c9180156118435760001901906117ab565b60246000634e487b7160e01b81526011600452fd5b60246000634e487b7160e01b81526032600452fd5b906000918083526007602052604083209160018060a01b03169182845260205260ff60408420541661189e57505050565b8083526007602052604083208284526020526040832060ff1981541690557ff6391f5c32d9c69d2a47ea670b442974b53935d1edc7fd64eb21e047a839171b339380a4565b156118ea57565b60405162461bcd60e51b815260206004820152601860248201527f4552433732313a20696e76616c696420746f6b656e20494400000000000000006044820152606490fd5b6000908152600260205260409020546001600160a01b03166119528115156118e3565b90565b600081815260026020526040902054611978906001600160a01b031615156118e3565b6000908152600460205260409020546001600160a01b031690565b1561199a57565b60405162461bcd60e51b815260206004820152602d60248201527f4552433732313a2063616c6c6572206973206e6f7420746f6b656e206f776e6560448201526c1c881bdc88185c1c1c9bdd9959609a1b6064820152608490fd5b60809060208152603260208201527f4552433732313a207472616e7366657220746f206e6f6e20455243373231526560408201527131b2b4bb32b91034b6b83632b6b2b73a32b960711b60608201520190565b15611a4f57565b60405162461bcd60e51b81528061141f600482016119f5565b906001600160a01b038080611a7c8461192f565b16931691838314938415611aaf575b508315611a99575b50505090565b611aa591929350611955565b1614388080611a93565b909350600052600560205260406000208260005260205260ff604060002054169238611a8b565b15611add57565b60405162461bcd60e51b815260206004820152602560248201527f4552433732313a207472616e736665722066726f6d20696e636f72726563742060448201526437bbb732b960d91b6064820152608490fd5b90611b5891611b3e8461192f565b6001600160a01b0393918416928492909183168414611ad6565b16918215611bfd5781611b7d91611b6d611df5565b611b768661192f565b1614611ad6565b7fddf252ad1be2c89b69c2b068fc378daa952ba7f163c4a11628f55a4df523b3ef60008481526004602052604081206bffffffffffffffffffffffff60a01b9081815416905583825260036020526040822060001981540190558482526040822060018154019055858252600260205284604083209182541617905580a4565b60405162461bcd60e51b8152602060048201526024808201527f4552433732313a207472616e7366657220746f20746865207a65726f206164646044820152637265737360e01b6064820152608490fd5b9192600092909190803b15611d6057611c9c946040518092630a85bd0160e11b9485835233600484015287602484015260448301526080606483015281878160209a8b96608483019061119f565b03926001600160a01b03165af1849181611d20575b50611d0f575050503d600014611d07573d611ccb816112b0565b90611cd9604051928361128e565b81528091833d92013e5b80519182611d045760405162461bcd60e51b81528061141f600482016119f5565b01fd5b506060611ce3565b6001600160e01b0319161492509050565b9091508581813d8311611d59575b611d38818361128e565b810103126105a057516001600160e01b0319811681036105a0579038611cb1565b503d611d2e565b5050915050600190565b9293600093909291803b15611dea57948491611dc49660405180948193630a85bd0160e11b9788845233600485015260018060a01b0380921660248501526044840152608060648401528260209b8c97608483019061119f565b0393165af1849181611d205750611d0f575050503d600014611d07573d611ccb816112b0565b505050915050600190565b60ff60065416611e0157565b60405162461bcd60e51b815260206004820152601060248201526f14185d5cd8589b194e881c185d5cd95960821b6044820152606490fd5b15611e4057565b60405162461bcd60e51b815260206004820152601c60248201527f4552433732313a20746f6b656e20616c7265616479206d696e746564000000006044820152606490fdfea2646970667358221220b01ace84f8939e0274124b1e872d09bd7a80e6fae7bca15f8ada1167164a03df64736f6c634300081300332f8788117e7eff1d82e926ec794901d17c78024a50270940304540a733656f0d",
  "linkReferences": {},
  "deployedLinkReferences": {}
}