{
  "_format": "hh-sol-artifact-1",
  "contractName": "PositionsNFT",
  "sourceName": "contracts/yfsc_interface_flat.sol",
  "abi": [
    {
      "inputs": [],
      "stateMutability": "nonpayable",
      "type": "constructor"
    },
    {
      "anonymous": false,
      "inputs": [
        {
          "indexed": true,
          "internalType": "address",
          "name": "owner",
          "type": "address"
        },
        {
          "indexed": true,
          "internalType": "address",
          "name": "approved",
          "type": "address"
        },
        {
          "indexed": true,
          "internalType": "uint256",
          "name": "tokenId",
          "type": "uint256"
        }
      ],
      "name": "Approval",
      "type": "event"
    },
    {
      "anonymous": false,
      "inputs": [
        {
          "indexed": true,
          "internalType": "address",
          "name": "owner",
          "type": "address"
        },
        {
          "indexed": true,
          "internalType": "address",
          "name": "operator",
          "type": "address"
        },
        {
          "indexed": false,
          "internalType": "bool",
          "name": "approved",
          "type": "bool"
        }
      ],
      "name": "ApprovalForAll",
      "type": "event"
    },
    {
      "anonymous": false,
      "inputs": [
        {
          "indexed": false,
          "internalType": "address",
          "name": "account",
          "type": "address"
        }
      ],
      "name": "Paused",
      "type": "event"
    },
    {
      "anonymous": false,
      "inputs": [
        {
          "indexed": true,
          "internalType": "bytes32",
          "name": "role",
          "type": "bytes32"
        },
        {
          "indexed": true,
          "internalType": "bytes32",
          "name": "previousAdminRole",
          "type": "bytes32"
        },
        {
          "indexed": true,
          "internalType": "bytes32",
          "name": "newAdminRole",
          "type": "bytes32"
        }
      ],
      "name": "RoleAdminChanged",
      "type": "event"
    },
    {
      "anonymous": false,
      "inputs": [
        {
          "indexed": true,
          "internalType": "bytes32",
          "name": "role",
          "type": "bytes32"
        },
        {
          "indexed": true,
          "internalType": "address",
          "name": "account",
          "type": "address"
        },
        {
          "indexed": true,
          "internalType": "address",
          "name": "sender",
          "type": "address"
        }
      ],
      "name": "RoleGranted",
      "type": "event"
    },
    {
      "anonymous": false,
      "inputs": [
        {
          "indexed": true,
          "internalType": "bytes32",
          "name": "role",
          "type": "bytes32"
        },
        {
          "indexed": true,
          "internalType": "address",
          "name": "account",
          "type": "address"
        },
        {
          "indexed": true,
          "internalType": "address",
          "name": "sender",
          "type": "address"
        }
      ],
      "name": "RoleRevoked",
      "type": "event"
    },
    {
      "anonymous": false,
      "inputs": [
        {
          "indexed": true,
          "internalType": "address",
          "name": "from",
          "type": "address"
        },
        {
          "indexed": true,
          "internalType": "address",
          "name": "to",
          "type": "address"
        },
        {
          "indexed": true,
          "internalType": "uint256",
          "name": "tokenId",
          "type": "uint256"
        }
      ],
      "name": "Transfer",
      "type": "event"
    },
    {
      "anonymous": false,
      "inputs": [
        {
          "indexed": false,
          "internalType": "address",
          "name": "account",
          "type": "address"
        }
      ],
      "name": "Unpaused",
      "type": "event"
    },
    {
      "inputs": [],
      "name": "DEFAULT_ADMIN_ROLE",
      "outputs": [
        {
          "internalType": "bytes32",
          "name": "",
          "type": "bytes32"
        }
      ],
      "stateMutability": "view",
      "type": "function"
    },
    {
      "inputs": [],
      "name": "MINTER_ROLE",
      "outputs": [
        {
          "internalType": "bytes32",
          "name": "",
          "type": "bytes32"
        }
      ],
      "stateMutability": "view",
      "type": "function"
    },
    {
      "inputs": [],
      "name": "PAUSER_ROLE",
      "outputs": [
        {
          "internalType": "bytes32",
          "name": "",
          "type": "bytes32"
        }
      ],
      "stateMutability": "view",
      "type": "function"
    },
    {
      "inputs": [
        {
          "internalType": "address",
          "name": "to",
          "type": "address"
        },
        {
          "internalType": "uint256",
          "name": "tokenId",
          "type": "uint256"
        }
      ],
      "name": "approve",
      "outputs": [],
      "stateMutability": "nonpayable",
      "type": "function"
    },
    {
      "inputs": [
        {
          "internalType": "address",
          "name": "owner",
          "type": "address"
        }
      ],
      "name": "balanceOf",
      "outputs": [
        {
          "internalType": "uint256",
          "name": "",
          "type": "uint256"
        }
      ],
      "stateMutability": "view",
      "type": "function"
    },
    {
      "inputs": [
        {
          "internalType": "uint256",
          "name": "tokenId",
          "type": "uint256"
        }
      ],
      "name": "burn",
      "outputs": [],
      "stateMutability": "nonpayable",
      "type": "function"
    },
    {
      "inputs": [
        {
          "internalType": "uint256",
          "name": "tokenId",
          "type": "uint256"
        }
      ],
      "name": "getApproved",
      "outputs": [
        {
          "internalType": "address",
          "name": "",
          "type": "address"
        }
      ],
      "stateMutability": "view",
      "type": "function"
    },
    {
      "inputs": [
        {
          "internalType": "uint256",
          "name": "_userPositionNft",
          "type": "uint256"
        },
        {
          "internalType": "uint256",
          "name": "_state",
          "type": "uint256"
        }
      ],
      "name": "getLiquidityForUserInPoolAtState",
      "outputs": [
        {
          "internalType": "uint128",
          "name": "liquidity",
          "type": "uint128"
        }
      ],
      "stateMutability": "nonpayable",
      "type": "function"
    },
    {
      "inputs": [
        {
          "internalType": "bytes32",
          "name": "role",
          "type": "bytes32"
        }
      ],
      "name": "getRoleAdmin",
      "outputs": [
        {
          "internalType": "bytes32",
          "name": "",
          "type": "bytes32"
        }
      ],
      "stateMutability": "view",
      "type": "function"
    },
    {
      "inputs": [
        {
          "internalType": "uint256",
          "name": "_userPositionNft",
          "type": "uint256"
        },
        {
          "internalType": "uint256",
          "name": "_stateId",
          "type": "uint256"
        }
      ],
      "name": "getStatesIdsForPosition",
      "outputs": [
        {
          "internalType": "uint256",
          "name": "id",
          "type": "uint256"
        }
      ],
      "stateMutability": "nonpayable",
      "type": "function"
    },
    {
      "inputs": [
        {
          "internalType": "address",
          "name": "receiver",
          "type": "address"
        },
        {
          "internalType": "uint256",
          "name": "uniswapNftId",
          "type": "uint256"
        }
      ],
      "name": "getUserNftPerPool",
      "outputs": [
        {
          "internalType": "uint256",
          "name": "",
          "type": "uint256"
        }
      ],
      "stateMutability": "view",
      "type": "function"
    },
    {
      "inputs": [
        {
          "internalType": "bytes32",
          "name": "role",
          "type": "bytes32"
        },
        {
          "internalType": "address",
          "name": "account",
          "type": "address"
        }
      ],
      "name": "grantRole",
      "outputs": [],
      "stateMutability": "nonpayable",
      "type": "function"
    },
    {
      "inputs": [
        {
          "internalType": "bytes32",
          "name": "role",
          "type": "bytes32"
        },
        {
          "internalType": "address",
          "name": "account",
          "type": "address"
        }
      ],
      "name": "hasRole",
      "outputs": [
        {
          "internalType": "bool",
          "name": "",
          "type": "bool"
        }
      ],
      "stateMutability": "view",
      "type": "function"
    },
    {
      "inputs": [
        {
          "internalType": "address",
          "name": "owner",
          "type": "address"
        },
        {
          "internalType": "address",
          "name": "operator",
          "type": "address"
        }
      ],
      "name": "isApprovedForAll",
      "outputs": [
        {
          "internalType": "bool",
          "name": "",
          "type": "bool"
        }
      ],
      "stateMutability": "view",
      "type": "function"
    },
    {
      "inputs": [
        {
          "internalType": "uint256",
          "name": "",
          "type": "uint256"
        }
      ],
      "name": "lastClaimForPosition",
      "outputs": [
        {
          "internalType": "uint256",
          "name": "",
          "type": "uint256"
        }
      ],
      "stateMutability": "view",
      "type": "function"
    },
    {
      "inputs": [
        {
          "internalType": "uint256",
          "name": "",
          "type": "uint256"
        },
        {
          "internalType": "uint256",
          "name": "",
          "type": "uint256"
        }
      ],
      "name": "liquidityForUserInPoolAtState",
      "outputs": [
        {
          "internalType": "uint128",
          "name": "",
          "type": "uint128"
        }
      ],
      "stateMutability": "view",
      "type": "function"
    },
    {
      "inputs": [],
      "name": "name",
      "outputs": [
        {
          "internalType": "string",
          "name": "",
          "type": "string"
        }
      ],
      "stateMutability": "view",
      "type": "function"
    },
    {
      "inputs": [
        {
          "internalType": "uint256",
          "name": "tokenId",
          "type": "uint256"
        }
      ],
      "name": "ownerOf",
      "outputs": [
        {
          "internalType": "address",
          "name": "",
          "type": "address"
        }
      ],
      "stateMutability": "view",
      "type": "function"
    },
    {
      "inputs": [],
      "name": "pause",
      "outputs": [],
      "stateMutability": "nonpayable",
      "type": "function"
    },
    {
      "inputs": [],
      "name": "paused",
      "outputs": [
        {
          "internalType": "bool",
          "name": "",
          "type": "bool"
        }
      ],
      "stateMutability": "view",
      "type": "function"
    },
    {
      "inputs": [
        {
          "internalType": "bytes32",
          "name": "role",
          "type": "bytes32"
        },
        {
          "internalType": "address",
          "name": "account",
          "type": "address"
        }
      ],
      "name": "renounceRole",
      "outputs": [],
      "stateMutability": "nonpayable",
      "type": "function"
    },
    {
      "inputs": [
        {
          "internalType": "bytes32",
          "name": "role",
          "type": "bytes32"
        },
        {
          "internalType": "address",
          "name": "account",
          "type": "address"
        }
      ],
      "name": "revokeRole",
      "outputs": [],
      "stateMutability": "nonpayable",
      "type": "function"
    },
    {
      "inputs": [
        {
          "internalType": "uint256",
          "name": "_uniswapNftId",
          "type": "uint256"
        },
        {
          "internalType": "address",
          "name": "_receiver",
          "type": "address"
        },
        {
          "internalType": "uint128",
          "name": "_liquidity",
          "type": "uint128"
        },
        {
          "internalType": "uint256",
          "name": "_state",
          "type": "uint256"
        }
      ],
      "name": "safeMint",
      "outputs": [],
      "stateMutability": "nonpayable",
      "type": "function"
    },
    {
      "inputs": [
        {
          "internalType": "address",
          "name": "from",
          "type": "address"
        },
        {
          "internalType": "address",
          "name": "to",
          "type": "address"
        },
        {
          "internalType": "uint256",
          "name": "tokenId",
          "type": "uint256"
        }
      ],
      "name": "safeTransferFrom",
      "outputs": [],
      "stateMutability": "nonpayable",
      "type": "function"
    },
    {
      "inputs": [
        {
          "internalType": "address",
          "name": "from",
          "type": "address"
        },
        {
          "internalType": "address",
          "name": "to",
          "type": "address"
        },
        {
          "internalType": "uint256",
          "name": "tokenId",
          "type": "uint256"
        },
        {
          "internalType": "bytes",
          "name": "data",
          "type": "bytes"
        }
      ],
      "name": "safeTransferFrom",
      "outputs": [],
      "stateMutability": "nonpayable",
      "type": "function"
    },
    {
      "inputs": [
        {
          "internalType": "address",
          "name": "operator",
          "type": "address"
        },
        {
          "internalType": "bool",
          "name": "approved",
          "type": "bool"
        }
      ],
      "name": "setApprovalForAll",
      "outputs": [],
      "stateMutability": "nonpayable",
      "type": "function"
    },
    {
      "inputs": [
        {
          "internalType": "uint256",
          "name": "",
          "type": "uint256"
        },
        {
          "internalType": "uint256",
          "name": "",
          "type": "uint256"
        }
      ],
      "name": "statesIdsForPosition",
      "outputs": [
        {
          "internalType": "uint256",
          "name": "",
          "type": "uint256"
        }
      ],
      "stateMutability": "view",
      "type": "function"
    },
    {
      "inputs": [
        {
          "internalType": "bytes4",
          "name": "interfaceId",
          "type": "bytes4"
        }
      ],
      "name": "supportsInterface",
      "outputs": [
        {
          "internalType": "bool",
          "name": "",
          "type": "bool"
        }
      ],
      "stateMutability": "view",
      "type": "function"
    },
    {
      "inputs": [],
      "name": "symbol",
      "outputs": [
        {
          "internalType": "string",
          "name": "",
          "type": "string"
        }
      ],
      "stateMutability": "view",
      "type": "function"
    },
    {
      "inputs": [
        {
          "internalType": "uint256",
          "name": "tokenId",
          "type": "uint256"
        }
      ],
      "name": "tokenURI",
      "outputs": [
        {
          "internalType": "string",
          "name": "",
          "type": "string"
        }
      ],
      "stateMutability": "view",
      "type": "function"
    },
    {
      "inputs": [
        {
          "internalType": "uint256",
          "name": "",
          "type": "uint256"
        }
      ],
      "name": "totalClaimedforPosition",
      "outputs": [
        {
          "internalType": "uint256",
          "name": "",
          "type": "uint256"
        }
      ],
      "stateMutability": "view",
      "type": "function"
    },
    {
      "inputs": [
        {
          "internalType": "uint256",
          "name": "",
          "type": "uint256"
        }
      ],
      "name": "totalStatesForPosition",
      "outputs": [
        {
          "internalType": "uint256",
          "name": "",
          "type": "uint256"
        }
      ],
      "stateMutability": "view",
      "type": "function"
    },
    {
      "inputs": [
        {
          "internalType": "address",
          "name": "from",
          "type": "address"
        },
        {
          "internalType": "address",
          "name": "to",
          "type": "address"
        },
        {
          "internalType": "uint256",
          "name": "tokenId",
          "type": "uint256"
        }
      ],
      "name": "transferFrom",
      "outputs": [],
      "stateMutability": "nonpayable",
      "type": "function"
    },
    {
      "inputs": [],
      "name": "unpause",
      "outputs": [],
      "stateMutability": "nonpayable",
      "type": "function"
    },
    {
      "inputs": [
        {
          "internalType": "uint256",
          "name": "_positionNftId",
          "type": "uint256"
        },
        {
          "internalType": "uint256",
          "name": "_state",
          "type": "uint256"
        }
      ],
      "name": "updateLastClaimForPosition",
      "outputs": [],
      "stateMutability": "nonpayable",
      "type": "function"
    },
    {
      "inputs": [
        {
          "internalType": "uint256",
          "name": "positionNftId",
          "type": "uint256"
        },
        {
          "internalType": "uint128",
          "name": "_liquidity",
          "type": "uint128"
        },
        {
          "internalType": "uint256",
          "name": "_state",
          "type": "uint256"
        }
      ],
      "name": "updateLiquidityForUser",
      "outputs": [],
      "stateMutability": "nonpayable",
      "type": "function"
    },
    {
      "inputs": [
        {
          "internalType": "uint256",
          "name": "_positionNftId",
          "type": "uint256"
        },
        {
          "internalType": "uint256",
          "name": "_totalClaim",
          "type": "uint256"
        }
      ],
      "name": "updateTotalClaimForPosition",
      "outputs": [],
      "stateMutability": "nonpayable",
      "type": "function"
    },
    {
      "inputs": [
        {
          "internalType": "address",
          "name": "",
          "type": "address"
        },
        {
          "internalType": "uint256",
          "name": "",
          "type": "uint256"
        }
      ],
      "name": "userNftPerPool",
      "outputs": [
        {
          "internalType": "uint256",
          "name": "",
          "type": "uint256"
        }
      ],
      "stateMutability": "view",
      "type": "function"
    }
  ],
  "bytecode": "0x60803462000482576040906001600160401b03818301818111838210176200046c5783526013825260207f596620536320506f736974696f6e73204e46540000000000000000000000000081840152835190848201828110848211176200046c578552600792838352661654d417d3919560ca1b8284015284518181116200046c576000938454916001978884811c9416801562000461575b868510146200044d578190601f94858111620003fa575b508690858311600114620003965788926200038a575b5050600019600383901b1c191690881b1785555b8051928311620003765786548781811c911680156200036b575b8582101462000357579081838594931162000302575b50849183116001146200029e57859262000292575b5050600019600383901b1c191690851b1784555b60ff19908160065416600655828052838152858320338452815260ff8684205416156200025d575b7f65d7a28e3265b37a6474929f336521b332c1681b933f6cb9f3376673440d862a808452848252868420338552825260ff87852054161562000226575b507f9f2df0fed2c77648de5860a4cc508cd0818c85b8b8a1ab4ceeef8d981c8956a693848452808252868420338552825260ff878520541615620001ed575b86866008540160085551611e999081620004888239f35b848452815285832090338452528385832091825416179055339160008051602062002321833981519152339280a43880808080620001d6565b8084528482528684203385528252868420868482541617905533903390600080516020620023218339815191528680a43862000197565b82805283815285832033845281528583208583825416179055333384600080516020620023218339815191528180a46200015a565b0151905038806200011e565b8786528486208894509190601f198416875b87828210620002eb5750508411620002d1575b505050811b01845562000132565b015160001960f88460031b161c19169055388080620002c3565b8385015186558b97909501949384019301620002b0565b909192508786528486208380860160051c8201928787106200034d575b9186958b929594930160051c01915b8281106200033e57505062000109565b8881558695508a91016200032e565b925081926200031f565b634e487b7160e01b86526022600452602486fd5b90607f1690620000f3565b634e487b7160e01b85526041600452602485fd5b015190503880620000c5565b8880528789208b94509190601f1984168a5b8a828210620003e35750508411620003c9575b505050811b018555620000d9565b015160001960f88460031b161c19169055388080620003bb565b8385015186558e97909501949384019301620003a8565b9091508780528688208580850160051c82019289861062000443575b918c91869594930160051c01915b82811062000434575050620000af565b8a81558594508c910162000424565b9250819262000416565b634e487b7160e01b87526022600452602487fd5b93607f169362000098565b634e487b7160e01b600052604160045260246000fd5b600080fdfe6080604081815260048036101561001557600080fd5b600092833560e01c90816301ffc9a7146110d45750806306fdde0314611009578063081812fc14610fe9578063095ea7b314610e7c57806323b872dd14610e57578063248a9ca314610e2d5780632f2ff15d14610d815780633190b1721461079d57806336568abe14610cef57806337193ece1461046d5780633f4ba83a14610c5a57806342842e0e14610c265783816342966c6814610b74575080634829f32914610b4d5780635c975abb14610b295780636352211e14610af857806363f9f48214610a6557806364ac1f6a146102f75780636c95d5191461086857806370a08231146107d257806371a6f4401461079d57806383f6cc9b146107765780638456cb591461071b57806391d14854146106d557806395d89b41146105bf578063a217fddf146105a4578063a22cb465146104d5578063b1757788146104ae578063b3f363c11461046d578063b88d4fde146103ba578063bc95969414610393578063c87b56dd14610323578063cff5128d146102f7578063d5391393146102bc578063d547741f1461027e578063e63ab1e914610243578063e985e9c5146101f15763f82cdafb146101c757600080fd5b346101ed5760203660031901126101ed576020928291358152600d845220549051908152f35b8280fd5b50503461023f578060031936011261023f5760ff816020936102116111a2565b6102196111bd565b6001600160a01b0391821683526005875283832091168252855220549151911615158152f35b5080fd5b50503461023f578160031936011261023f57602090517f65d7a28e3265b37a6474929f336521b332c1681b933f6cb9f3376673440d862a8152f35b5090346101ed57806003193601126101ed576102b991356102b460016102a26111bd565b9383875260076020528620015461160a565b61184b565b80f35b50503461023f578160031936011261023f57602090517f9f2df0fed2c77648de5860a4cc508cd0818c85b8b8a1ab4ceeef8d981c8956a68152f35b50503461023f578060209261030b36611208565b908252600b8552828220908252845220549051908152f35b5091903461023f57602036600319011261023f5761036261035d61038f9435600052600260205260018060a01b0360406000205416151590565b6118c1565b81815161036e8161121e565b5280519161037b8361121e565b82525191829160208352602083019061117d565b0390f35b50346101ed5760203660031901126101ed576020928291358152600e845220549051908152f35b5090346101ed5760803660031901126101ed576103d56111a2565b906103de6111bd565b604435906064359467ffffffffffffffff8611610469573660238701121561046957850135936104196104108661128e565b9451948561126c565b848452863660248789010111610466576020866104619760246102b99a01838901378601015261045161044c8433611a46565b611971565b61045c838383611b0e565b611d48565b611a26565b80fd5b8680fd5b50503461023f578060031936011261023f5760209181906001600160a01b036104946111a2565b168152600984528181206024358252845220549051908152f35b50346101ed5760203660031901126101ed576020928291358152600c845220549051908152f35b5090346101ed57806003193601126101ed576104ef6111a2565b90602435918215158093036105a0576001600160a01b03169233841461055e5750338452600560205280842083855260205280842060ff1981541660ff8416179055519081527f17307eab39ab6107e8899845ad3d59bd9653f200f220920489ca2b5937696c3160203392a380f35b6020606492519162461bcd60e51b8352820152601960248201527f4552433732313a20617070726f766520746f2063616c6c6572000000000000006044820152fd5b8480fd5b50503461023f578160031936011261023f5751908152602090f35b5091346104665780600319360112610466578151918160019283549384811c918186169586156106cb575b60209687851081146106b8578899509688969785829a529182600014610691575050600114610636575b50505061038f929161062791038561126c565b5192828493845283019061117d565b91908693508083527fb10e2d527612073b26eecdfd717e6a320cf44b4afac2b0732d9fcbe2b7fa0cf65b828410610679575050508201018161062761038f610614565b8054848a018601528895508794909301928101610660565b60ff19168782015293151560051b86019093019350849250610627915061038f9050610614565b634e487b7160e01b835260228a52602483fd5b92607f16926105ea565b50346101ed57816003193601126101ed578160209360ff926106f56111bd565b90358252600786528282206001600160a01b039091168252855220549151911615158152f35b50503461023f578160031936011261023f5760207f62e78cea01bee320cd4e420270b5ea74000d11b0c9f74754ebdbfc544b05a258916107596112aa565b610761611dd3565b600160ff19600654161760065551338152a180f35b50503461023f5761078636611208565b91906107906114c5565b8352600e60205282205580f35b50503461023f576001600160801b03816020936107b936611208565b908252600a865282822090825285522054169051908152f35b5082903461023f57602036600319011261023f576001600160a01b036107f66111a2565b169081156108135760208480858581526003845220549051908152f35b608490602085519162461bcd60e51b8352820152602960248201527f4552433732313a2061646472657373207a65726f206973206e6f7420612076616044820152683634b21037bbb732b960b91b6064820152fd5b5090346101ed5760803660031901126101ed576108836111bd565b604435926001600160801b0384168094036105a057606435936108a46114c5565b600854926001840160085584516108ba8161121e565b8781526001600160a01b038216918215610a225761046186959493928661098f936109046108fe8e9b600052600260205260018060a01b0360406000205416151590565b15611e17565b61090c611dd3565b60008281526002602052604090205461092f906001600160a01b031615156108fe565b858a52818660209b60038d528d81206001815401905582815260028d528d8120826bffffffffffffffffffffffff60a01b8254161790557fddf252ad1be2c89b69c2b068fc378daa952ba7f163c4a11628f55a4df523b3ef8180a4611c2c565b87526009845284872082358852845282858820556109ab6114c5565b828752600a8452848720868852845284872080546fffffffffffffffffffffffffffffffff19169091179055818652600c8352838620805490916000198214610a0f575060010190558452600b815281842090600c81528285205485525282205580f35b634e487b7160e01b885260119052602487fd5b865162461bcd60e51b8152602081870181905260248201527f4552433732313a206d696e7420746f20746865207a65726f20616464726573736044820152606490fd5b5090346101ed5760603660031901126101ed578135602435906001600160801b0382168092036105a05760443593610a9b6114c5565b818652602092600a84528487208688528452848720906001600160801b0319825416179055818652600c8352838620908154906000198214610a0f575060010190558452600b815281842090600c81528285205485525282205580f35b5091346104665760203660031901126104665750610b186020923561190d565b90516001600160a01b039091168152f35b50503461023f578160031936011261023f5760209060ff6006541690519015158152f35b50503461023f57610b5d36611208565b9190610b676114c5565b8352600d60205282205580f35b8281853461023f57602036600319011261023f57823592610b9861044c8533611a46565b610ba18461190d565b50610baa611dd3565b610bb38461190d565b848452602091825282842080546001600160a01b03199081169091556001600160a01b03909116808552600383528385208054600019019055858552600290925291832080549092169091557fddf252ad1be2c89b69c2b068fc378daa952ba7f163c4a11628f55a4df523b3ef8280a480f35b50503461023f576104616102b991610c3d366111d3565b91925192610c4a8461121e565b86845261045161044c8433611a46565b50346101ed57826003193601126101ed57610c736112aa565b6006549060ff821615610cb5575060ff1916600655513381527f5db9ee0a495bf2e6ff9c91a7834c1ba4fdd244a5e8aa4e537bd38aeae4b073aa90602090a180f35b606490602084519162461bcd60e51b8352820152601460248201527314185d5cd8589b194e881b9bdd081c185d5cd95960621b6044820152fd5b5082903461023f578260031936011261023f57610d0a6111bd565b90336001600160a01b03831603610d2657906102b9913561184b565b608490602085519162461bcd60e51b8352820152602f60248201527f416363657373436f6e74726f6c3a2063616e206f6e6c792072656e6f756e636560448201526e103937b632b9903337b91039b2b63360891b6064820152fd5b50346101ed57816003193601126101ed573590610d9c6111bd565b908284526007602052610db46001828620015461160a565b828452600760209081528185206001600160a01b039093168086529290528084205460ff1615610de2578380f35b82845260076020528084208285526020528320600160ff1982541617905533917f2f8788117e7eff1d82e926ec794901d17c78024a50270940304540a733656f0d8480a43880808380f35b50346101ed5760203660031901126101ed5781602093600192358152600785522001549051908152f35b8334610466576102b9610e69366111d3565b91610e7761044c8433611a46565b611b0e565b50346101ed57816003193601126101ed57610e956111a2565b6024359290916001600160a01b0391908280610eb08761190d565b16941693808514610f9c57803314908115610f7d575b5015610f1557848652602052842080546001600160a01b03191683179055610eed8361190d565b167f8c5be1e5ebec7d5bd14f71427d1e84f3dd0314c0f7b2291e5b200ac8c7c3b9258480a480f35b6020608492519162461bcd60e51b8352820152603d60248201527f4552433732313a20617070726f76652063616c6c6572206973206e6f7420746f60448201527f6b656e206f776e6572206f7220617070726f76656420666f7220616c6c0000006064820152fd5b90508652600560205281862033875260205260ff828720541638610ec6565b506020608492519162461bcd60e51b8352820152602160248201527f4552433732313a20617070726f76616c20746f2063757272656e74206f776e656044820152603960f91b6064820152fd5b5091346104665760203660031901126104665750610b1860209235611933565b50913461046657806003193601126104665781519181825492600184811c918186169586156110ca575b60209687851081146106b8578899509688969785829a52918260001461069157505060011461106f5750505061038f929161062791038561126c565b91908693508280527f290decd9548b62a8d60345a988386fc84ba6bc95484008f6362f93160ef3e5635b8284106110b2575050508201018161062761038f610614565b8054848a018601528895508794909301928101611099565b92607f1692611033565b925050346101ed5760203660031901126101ed573563ffffffff60e01b81168091036101ed5760209250637965db0b60e01b8114908115611117575b5015158152f35b6380ac58cd60e01b811491508115611149575b8115611138575b5038611110565b6301ffc9a760e01b14905038611131565b635b5e139f60e01b8114915061112a565b60005b83811061116d5750506000910152565b818101518382015260200161115d565b906020916111968151809281855285808601910161115a565b601f01601f1916010190565b600435906001600160a01b03821682036111b857565b600080fd5b602435906001600160a01b03821682036111b857565b60609060031901126111b8576001600160a01b039060043582811681036111b8579160243590811681036111b8579060443590565b60409060031901126111b8576004359060243590565b6020810190811067ffffffffffffffff82111761123a57604052565b634e487b7160e01b600052604160045260246000fd5b6080810190811067ffffffffffffffff82111761123a57604052565b90601f8019910116810190811067ffffffffffffffff82111761123a57604052565b67ffffffffffffffff811161123a57601f01601f191660200190565b3360009081527f270c7cc4331b1445974c76712d9bb2afa8846ba0435cde7d1460f79fd91c04bd602090815260408083205490927f65d7a28e3265b37a6474929f336521b332c1681b933f6cb9f3376673440d862a9160ff161561130e5750505050565b6113173361173c565b9184519061132482611250565b604282528482019260603685378251156114b157603084538251906001918210156114b15790607860218501536041915b818311611443575050506114015760486113fd9386936113e1936113d2985198899376020b1b1b2b9b9a1b7b73a3937b61d1030b1b1b7bab73a1604d1b8a8601526113a9815180928c60378901910161115a565b8401917001034b99036b4b9b9b4b733903937b6329607d1b60378401525180938684019061115a565b0103602881018752018561126c565b5192839262461bcd60e51b84526004840152602483019061117d565b0390fd5b60648486519062461bcd60e51b825280600483015260248201527f537472696e67733a20686578206c656e67746820696e73756666696369656e746044820152fd5b909192600f8116601081101561149d576f181899199a1a9b1b9c1cb0b131b232b360811b901a6114738587611715565b5360041c92801561148957600019019190611355565b634e487b7160e01b82526011600452602482fd5b634e487b7160e01b83526032600452602483fd5b634e487b7160e01b81526032600452602490fd5b3360009081527fa4bfd7afe708e2e87e7f0e2ad9b4d545417e0f795f57b5c5ab5d799c565a04f4602090815260408083205490927f9f2df0fed2c77648de5860a4cc508cd0818c85b8b8a1ab4ceeef8d981c8956a69160ff16156115295750505050565b6115323361173c565b9184519061153f82611250565b604282528482019260603685378251156114b157603084538251906001918210156114b15790607860218501536041915b8183116115c4575050506114015760486113fd9386936113e1936113d2985198899376020b1b1b2b9b9a1b7b73a3937b61d1030b1b1b7bab73a1604d1b8a8601526113a9815180928c60378901910161115a565b909192600f8116601081101561149d576f181899199a1a9b1b9c1cb0b131b232b360811b901a6115f48587611715565b5360041c92801561148957600019019190611570565b60009080825260209060078252604092838120338252835260ff8482205416156116345750505050565b61163d3361173c565b9184519061164a82611250565b604282528482019260603685378251156114b157603084538251906001918210156114b15790607860218501536041915b8183116116cf575050506114015760486113fd9386936113e1936113d2985198899376020b1b1b2b9b9a1b7b73a3937b61d1030b1b1b7bab73a1604d1b8a8601526113a9815180928c60378901910161115a565b909192600f8116601081101561149d576f181899199a1a9b1b9c1cb0b131b232b360811b901a6116ff8587611715565b5360041c9280156114895760001901919061167b565b908151811015611726570160200190565b634e487b7160e01b600052603260045260246000fd5b604051906060820182811067ffffffffffffffff82111761123a57604052602a82526020820160403682378251156117265760309053815160019081101561172657607860218401536029905b8082116117dd5750506117995790565b606460405162461bcd60e51b815260206004820152602060248201527f537472696e67733a20686578206c656e67746820696e73756666696369656e746044820152fd5b9091600f81166010811015611836576f181899199a1a9b1b9c1cb0b131b232b360811b901a61180c8486611715565b5360041c918015611821576000190190611789565b60246000634e487b7160e01b81526011600452fd5b60246000634e487b7160e01b81526032600452fd5b906000918083526007602052604083209160018060a01b03169182845260205260ff60408420541661187c57505050565b8083526007602052604083208284526020526040832060ff1981541690557ff6391f5c32d9c69d2a47ea670b442974b53935d1edc7fd64eb21e047a839171b339380a4565b156118c857565b60405162461bcd60e51b815260206004820152601860248201527f4552433732313a20696e76616c696420746f6b656e20494400000000000000006044820152606490fd5b6000908152600260205260409020546001600160a01b03166119308115156118c1565b90565b600081815260026020526040902054611956906001600160a01b031615156118c1565b6000908152600460205260409020546001600160a01b031690565b1561197857565b60405162461bcd60e51b815260206004820152602d60248201527f4552433732313a2063616c6c6572206973206e6f7420746f6b656e206f776e6560448201526c1c881bdc88185c1c1c9bdd9959609a1b6064820152608490fd5b60809060208152603260208201527f4552433732313a207472616e7366657220746f206e6f6e20455243373231526560408201527131b2b4bb32b91034b6b83632b6b2b73a32b960711b60608201520190565b15611a2d57565b60405162461bcd60e51b8152806113fd600482016119d3565b906001600160a01b038080611a5a8461190d565b16931691838314938415611a8d575b508315611a77575b50505090565b611a8391929350611933565b1614388080611a71565b909350600052600560205260406000208260005260205260ff604060002054169238611a69565b15611abb57565b60405162461bcd60e51b815260206004820152602560248201527f4552433732313a207472616e736665722066726f6d20696e636f72726563742060448201526437bbb732b960d91b6064820152608490fd5b90611b3691611b1c8461190d565b6001600160a01b0393918416928492909183168414611ab4565b16918215611bdb5781611b5b91611b4b611dd3565b611b548661190d565b1614611ab4565b7fddf252ad1be2c89b69c2b068fc378daa952ba7f163c4a11628f55a4df523b3ef60008481526004602052604081206bffffffffffffffffffffffff60a01b9081815416905583825260036020526040822060001981540190558482526040822060018154019055858252600260205284604083209182541617905580a4565b60405162461bcd60e51b8152602060048201526024808201527f4552433732313a207472616e7366657220746f20746865207a65726f206164646044820152637265737360e01b6064820152608490fd5b9192600092909190803b15611d3e57611c7a946040518092630a85bd0160e11b9485835233600484015287602484015260448301526080606483015281878160209a8b96608483019061117d565b03926001600160a01b03165af1849181611cfe575b50611ced575050503d600014611ce5573d611ca98161128e565b90611cb7604051928361126c565b81528091833d92013e5b80519182611ce25760405162461bcd60e51b8152806113fd600482016119d3565b01fd5b506060611cc1565b6001600160e01b0319161492509050565b9091508581813d8311611d37575b611d16818361126c565b810103126105a057516001600160e01b0319811681036105a0579038611c8f565b503d611d0c565b5050915050600190565b9293600093909291803b15611dc857948491611da29660405180948193630a85bd0160e11b9788845233600485015260018060a01b0380921660248501526044840152608060648401528260209b8c97608483019061117d565b0393165af1849181611cfe5750611ced575050503d600014611ce5573d611ca98161128e565b505050915050600190565b60ff60065416611ddf57565b60405162461bcd60e51b815260206004820152601060248201526f14185d5cd8589b194e881c185d5cd95960821b6044820152606490fd5b15611e1e57565b60405162461bcd60e51b815260206004820152601c60248201527f4552433732313a20746f6b656e20616c7265616479206d696e746564000000006044820152606490fdfea2646970667358221220c5d5cf42eaebc2c89927d317b72863874057bceb1e67c3eadc9cc2a257aeaf0d64736f6c634300081300332f8788117e7eff1d82e926ec794901d17c78024a50270940304540a733656f0d",
  "linkReferences": {},
  "deployedLinkReferences": {}
}