{
  "_format": "hh-sol-artifact-1",
  "contractName": "YfSc",
  "sourceName": "contracts/yfsc_interface_flat.sol",
  "abi": [
    {
      "inputs": [
        {
          "internalType": "contract PositionsNFT",
          "name": "_positionsNFT",
          "type": "address"
        },
        {
          "internalType": "contract NonfungiblePositionManager",
          "name": "_nonfungiblePositionManager",
          "type": "address"
        }
      ],
      "stateMutability": "nonpayable",
      "type": "constructor"
    },
    {
      "inputs": [
        {
          "internalType": "address",
          "name": "_token0",
          "type": "address"
        },
        {
          "internalType": "address",
          "name": "_token1",
          "type": "address"
        },
        {
          "internalType": "uint256",
          "name": "_fee",
          "type": "uint256"
        },
        {
          "internalType": "uint128",
          "name": "_tokensOwed0",
          "type": "uint128"
        },
        {
          "internalType": "uint128",
          "name": "_tokensOwed1",
          "type": "uint128"
        }
      ],
      "name": "collect",
      "outputs": [],
      "stateMutability": "nonpayable",
      "type": "function"
    },
    {
      "inputs": [],
      "name": "deadline",
      "outputs": [
        {
          "internalType": "uint256",
          "name": "",
          "type": "uint256"
        }
      ],
      "stateMutability": "view",
      "type": "function"
    },
    {
      "inputs": [
        {
          "internalType": "address",
          "name": "_token0",
          "type": "address"
        },
        {
          "internalType": "address",
          "name": "_token1",
          "type": "address"
        },
        {
          "internalType": "uint24",
          "name": "_fee",
          "type": "uint24"
        },
        {
          "internalType": "uint128",
          "name": "_purcentage",
          "type": "uint128"
        },
        {
          "internalType": "bool",
          "name": "_notYetpdated",
          "type": "bool"
        }
      ],
      "name": "decreaseLiquidity",
      "outputs": [],
      "stateMutability": "nonpayable",
      "type": "function"
    },
    {
      "inputs": [
        {
          "internalType": "int24",
          "name": "_tickLower",
          "type": "int24"
        },
        {
          "internalType": "int24",
          "name": "_tickUpper",
          "type": "int24"
        },
        {
          "internalType": "uint256",
          "name": "amount0",
          "type": "uint256"
        }
      ],
      "name": "getAmount1ForAmount0",
      "outputs": [
        {
          "internalType": "uint256",
          "name": "amount1",
          "type": "uint256"
        }
      ],
      "stateMutability": "pure",
      "type": "function"
    },
    {
      "inputs": [
        {
          "internalType": "address",
          "name": "_token0",
          "type": "address"
        },
        {
          "internalType": "address",
          "name": "_token1",
          "type": "address"
        },
        {
          "internalType": "uint256",
          "name": "_fee",
          "type": "uint256"
        }
      ],
      "name": "getPendingrewardForPosition",
      "outputs": [
        {
          "internalType": "uint256",
          "name": "reward0",
          "type": "uint256"
        },
        {
          "internalType": "uint256",
          "name": "reward1",
          "type": "uint256"
        }
      ],
      "stateMutability": "view",
      "type": "function"
    },
    {
      "inputs": [
        {
          "internalType": "uint256",
          "name": "",
          "type": "uint256"
        }
      ],
      "name": "liquidityLastDepositTime",
      "outputs": [
        {
          "internalType": "uint256",
          "name": "",
          "type": "uint256"
        }
      ],
      "stateMutability": "view",
      "type": "function"
    },
    {
      "inputs": [
        {
          "internalType": "uint256",
          "name": "",
          "type": "uint256"
        }
      ],
      "name": "liquidityLastStateUpdate",
      "outputs": [
        {
          "internalType": "uint256",
          "name": "",
          "type": "uint256"
        }
      ],
      "stateMutability": "view",
      "type": "function"
    },
    {
      "inputs": [],
      "name": "liquidityLockTime",
      "outputs": [
        {
          "internalType": "uint256",
          "name": "",
          "type": "uint256"
        }
      ],
      "stateMutability": "view",
      "type": "function"
    },
    {
      "inputs": [
        {
          "internalType": "uint256",
          "name": "",
          "type": "uint256"
        }
      ],
      "name": "liquidityUpdateRatio",
      "outputs": [
        {
          "internalType": "uint256",
          "name": "",
          "type": "uint256"
        }
      ],
      "stateMutability": "view",
      "type": "function"
    },
    {
      "inputs": [],
      "name": "liquidityUpdateRatioDenominator",
      "outputs": [
        {
          "internalType": "uint256",
          "name": "",
          "type": "uint256"
        }
      ],
      "stateMutability": "view",
      "type": "function"
    },
    {
      "inputs": [],
      "name": "max_collect",
      "outputs": [
        {
          "internalType": "uint128",
          "name": "",
          "type": "uint128"
        }
      ],
      "stateMutability": "view",
      "type": "function"
    },
    {
      "inputs": [
        {
          "internalType": "address",
          "name": "_token0",
          "type": "address"
        },
        {
          "internalType": "address",
          "name": "_token1",
          "type": "address"
        },
        {
          "internalType": "uint24",
          "name": "_fee",
          "type": "uint24"
        },
        {
          "internalType": "uint256",
          "name": "_amount0",
          "type": "uint256"
        },
        {
          "internalType": "uint256",
          "name": "_amount1",
          "type": "uint256"
        }
      ],
      "name": "mintNFT",
      "outputs": [],
      "stateMutability": "nonpayable",
      "type": "function"
    },
    {
      "inputs": [],
      "name": "nonfungiblePositionManager",
      "outputs": [
        {
          "internalType": "contract NonfungiblePositionManager",
          "name": "",
          "type": "address"
        }
      ],
      "stateMutability": "view",
      "type": "function"
    },
    {
      "inputs": [
        {
          "internalType": "address",
          "name": "",
          "type": "address"
        },
        {
          "internalType": "address",
          "name": "",
          "type": "address"
        },
        {
          "internalType": "uint256",
          "name": "",
          "type": "uint256"
        }
      ],
      "name": "originalPoolNftIds",
      "outputs": [
        {
          "internalType": "uint256",
          "name": "",
          "type": "uint256"
        }
      ],
      "stateMutability": "view",
      "type": "function"
    },
    {
      "inputs": [],
      "name": "owner",
      "outputs": [
        {
          "internalType": "address",
          "name": "",
          "type": "address"
        }
      ],
      "stateMutability": "view",
      "type": "function"
    },
    {
      "inputs": [
        {
          "internalType": "address",
          "name": "",
          "type": "address"
        },
        {
          "internalType": "address",
          "name": "",
          "type": "address"
        },
        {
          "internalType": "uint256",
          "name": "",
          "type": "uint256"
        }
      ],
      "name": "poolNftIds",
      "outputs": [
        {
          "internalType": "uint256",
          "name": "",
          "type": "uint256"
        }
      ],
      "stateMutability": "view",
      "type": "function"
    },
    {
      "inputs": [],
      "name": "positionsCounter",
      "outputs": [
        {
          "internalType": "uint256",
          "name": "",
          "type": "uint256"
        }
      ],
      "stateMutability": "view",
      "type": "function"
    },
    {
      "inputs": [],
      "name": "positionsNFT",
      "outputs": [
        {
          "internalType": "contract PositionsNFT",
          "name": "",
          "type": "address"
        }
      ],
      "stateMutability": "view",
      "type": "function"
    },
    {
      "inputs": [],
      "name": "public_poolNftId",
      "outputs": [
        {
          "internalType": "uint256",
          "name": "",
          "type": "uint256"
        }
      ],
      "stateMutability": "view",
      "type": "function"
    },
    {
      "inputs": [],
      "name": "quotient",
      "outputs": [
        {
          "internalType": "uint256",
          "name": "",
          "type": "uint256"
        }
      ],
      "stateMutability": "view",
      "type": "function"
    },
    {
      "inputs": [
        {
          "internalType": "uint256",
          "name": "",
          "type": "uint256"
        },
        {
          "internalType": "uint256",
          "name": "",
          "type": "uint256"
        }
      ],
      "name": "rewardAtStateForNftToken0",
      "outputs": [
        {
          "internalType": "uint256",
          "name": "",
          "type": "uint256"
        }
      ],
      "stateMutability": "view",
      "type": "function"
    },
    {
      "inputs": [
        {
          "internalType": "uint256",
          "name": "",
          "type": "uint256"
        },
        {
          "internalType": "uint256",
          "name": "",
          "type": "uint256"
        }
      ],
      "name": "rewardAtStateForNftToken1",
      "outputs": [
        {
          "internalType": "uint256",
          "name": "",
          "type": "uint256"
        }
      ],
      "stateMutability": "view",
      "type": "function"
    },
    {
      "inputs": [
        {
          "internalType": "uint256",
          "name": "_liquidityLockTime",
          "type": "uint256"
        }
      ],
      "name": "setLockTime",
      "outputs": [],
      "stateMutability": "nonpayable",
      "type": "function"
    },
    {
      "inputs": [
        {
          "internalType": "uint256",
          "name": "_slippageToken0",
          "type": "uint256"
        },
        {
          "internalType": "uint256",
          "name": "_slippageToken1",
          "type": "uint256"
        }
      ],
      "name": "setSilppageToken0",
      "outputs": [],
      "stateMutability": "nonpayable",
      "type": "function"
    },
    {
      "inputs": [
        {
          "internalType": "int24",
          "name": "_tickLower",
          "type": "int24"
        },
        {
          "internalType": "int24",
          "name": "_tickUpper",
          "type": "int24"
        }
      ],
      "name": "setTicks",
      "outputs": [],
      "stateMutability": "nonpayable",
      "type": "function"
    },
    {
      "inputs": [],
      "name": "slippageToken0",
      "outputs": [
        {
          "internalType": "uint256",
          "name": "",
          "type": "uint256"
        }
      ],
      "stateMutability": "view",
      "type": "function"
    },
    {
      "inputs": [],
      "name": "slippageToken1",
      "outputs": [
        {
          "internalType": "uint256",
          "name": "",
          "type": "uint256"
        }
      ],
      "stateMutability": "view",
      "type": "function"
    },
    {
      "inputs": [],
      "name": "statesCounter",
      "outputs": [
        {
          "internalType": "uint256",
          "name": "",
          "type": "uint256"
        }
      ],
      "stateMutability": "view",
      "type": "function"
    },
    {
      "inputs": [
        {
          "internalType": "uint256",
          "name": "",
          "type": "uint256"
        },
        {
          "internalType": "uint256",
          "name": "",
          "type": "uint256"
        }
      ],
      "name": "statesIdsForNft",
      "outputs": [
        {
          "internalType": "uint256",
          "name": "",
          "type": "uint256"
        }
      ],
      "stateMutability": "view",
      "type": "function"
    },
    {
      "inputs": [
        {
          "internalType": "address",
          "name": "_token",
          "type": "address"
        },
        {
          "internalType": "uint256",
          "name": "amount",
          "type": "uint256"
        },
        {
          "internalType": "address",
          "name": "receiver",
          "type": "address"
        }
      ],
      "name": "sweepToken",
      "outputs": [],
      "stateMutability": "nonpayable",
      "type": "function"
    },
    {
      "inputs": [],
      "name": "tickLower",
      "outputs": [
        {
          "internalType": "int24",
          "name": "",
          "type": "int24"
        }
      ],
      "stateMutability": "view",
      "type": "function"
    },
    {
      "inputs": [],
      "name": "tickUpper",
      "outputs": [
        {
          "internalType": "int24",
          "name": "",
          "type": "int24"
        }
      ],
      "stateMutability": "view",
      "type": "function"
    },
    {
      "inputs": [
        {
          "internalType": "uint256",
          "name": "",
          "type": "uint256"
        },
        {
          "internalType": "uint256",
          "name": "",
          "type": "uint256"
        }
      ],
      "name": "totalLiquidityAtStateForNft",
      "outputs": [
        {
          "internalType": "uint128",
          "name": "",
          "type": "uint128"
        }
      ],
      "stateMutability": "view",
      "type": "function"
    },
    {
      "inputs": [
        {
          "internalType": "uint256",
          "name": "",
          "type": "uint256"
        }
      ],
      "name": "totalRewardForNftToken0",
      "outputs": [
        {
          "internalType": "uint256",
          "name": "",
          "type": "uint256"
        }
      ],
      "stateMutability": "view",
      "type": "function"
    },
    {
      "inputs": [
        {
          "internalType": "uint256",
          "name": "",
          "type": "uint256"
        }
      ],
      "name": "totalRewardForNftToken1",
      "outputs": [
        {
          "internalType": "uint256",
          "name": "",
          "type": "uint256"
        }
      ],
      "stateMutability": "view",
      "type": "function"
    },
    {
      "inputs": [
        {
          "internalType": "uint256",
          "name": "",
          "type": "uint256"
        }
      ],
      "name": "totalRewardPaidForNftToken0",
      "outputs": [
        {
          "internalType": "uint256",
          "name": "",
          "type": "uint256"
        }
      ],
      "stateMutability": "view",
      "type": "function"
    },
    {
      "inputs": [
        {
          "internalType": "uint256",
          "name": "",
          "type": "uint256"
        }
      ],
      "name": "totalRewardPaidForNftToken1",
      "outputs": [
        {
          "internalType": "uint256",
          "name": "",
          "type": "uint256"
        }
      ],
      "stateMutability": "view",
      "type": "function"
    },
    {
      "inputs": [
        {
          "internalType": "address",
          "name": "",
          "type": "address"
        }
      ],
      "name": "totalRewards",
      "outputs": [
        {
          "internalType": "uint256",
          "name": "",
          "type": "uint256"
        }
      ],
      "stateMutability": "view",
      "type": "function"
    },
    {
      "inputs": [
        {
          "internalType": "uint256",
          "name": "",
          "type": "uint256"
        }
      ],
      "name": "totalStatesForNft",
      "outputs": [
        {
          "internalType": "uint256",
          "name": "",
          "type": "uint256"
        }
      ],
      "stateMutability": "view",
      "type": "function"
    },
    {
      "inputs": [
        {
          "internalType": "address",
          "name": "_token0",
          "type": "address"
        },
        {
          "internalType": "address",
          "name": "_token1",
          "type": "address"
        },
        {
          "internalType": "uint24",
          "name": "_fee",
          "type": "uint24"
        }
      ],
      "name": "updatePosition",
      "outputs": [],
      "stateMutability": "nonpayable",
      "type": "function"
    }
  ],
  "bytecode": "0x6080346100f157601f610aa338819003918201601f19168301916001600160401b038311848410176100f65780849260409485528339810103126100f15780516001600160a01b038082169290918390036100f157602001519081168091036100f157600180556103e8600c5565ff9bb0ff964c65ffffffffffff19600e541617600e55610258600f556101f4806010556011556127106012556b033b2e3c9fd0803ce800000060018060801b0319601354161760135562278d0060155560018060a01b03199182601754161760175581601854161760185533906000541617600055604051610996908161010d8239f35b600080fd5b634e487b7160e01b600052604160045260246000fdfe6040608081526004908136101561001557600080fd5b600091823560e01c90816303cba9211461082757816310f90515146107fb5781631780d411146107cc5781631e3e47a1146107a45781631efda4ce1461077957816329dcb0cf1461075a5781632aae485f146107325781632eee35111461070a57816348de0f40146106eb57816355a32683146106bf57816355b812a81461069a57816356301b391461067b5781635837ba971461064f57816358e162c11461060b57816359c4f905146105e95781635c4a0731146105ca5781635efea7d0146105a25781638da5cb5b1461057a578163902f681c1461054557816399deb93c146105045781639f3e7b29146104e5578163a0656ed8146104c6578163ab7573dd1461048e578163ae04d45d14610474578163b161e3a01461044c578163b44a272214610423578163bd9295ba146103fb578163c0835617146103d3578163cf2a97ce14610391578163d39512be14610369578163d591079814610340578163d5b78dd614610321578163d6d0b90014610305578163df2ab5bb146102d5578163ea7f37a714610294578163ecf0f4741461026857508063ed93e05a1461024a578063f0a9dc0b14610227578063f360110b146102095763fdce28b1146101db57600080fd5b3461020557806020926101ed366108ba565b908252600a8552828220908252845220549051908152f35b5080fd5b50346102055781600319360112610205576020906012549051908152f35b50903461024757610237366108e6565b5050508151908082526020820152f35b80fd5b50346102055781600319360112610205576020906010549051908152f35b9050346102905760203660031901126102905760209282913581526007845220549051908152f35b8280fd5b50503461020557806020926102a8366108e6565b6001600160a01b039283168452601a87528484209190921683528552828220908252845220549051908152f35b8334610247576060366003190112610247576102ef610857565b506044356001600160a01b038116036102475780f35b833461024757610314366108ba565b505061031e61091b565b80f35b505034610205578160031936011261020557602090600c549051908152f35b50503461020557816003193601126102055760175490516001600160a01b039091168152602090f35b905034610290576020366003190112610290576020928291358152600d845220549051908152f35b83346102475760a0366003190112610247576103ab610857565b506103b4610872565b506103bd6108d0565b506084356001600160801b038116036102475780f35b9050346102905760203660031901126102905760209282913581526002845220549051908152f35b9050346102905760203660031901126102905760209282913581526016845220549051908152f35b50503461020557816003193601126102055760185490516001600160a01b039091168152602090f35b9050346102905760203660031901126102905760209282913581526009845220549051908152f35b83346102475760203660031901126102475761031e61091b565b5050346102055760203660031901126102055760209181906001600160a01b036104b6610857565b168152601b845220549051908152f35b505034610205578160031936011261020557602090601c549051908152f35b5050346102055781600319360112610205576020906014549051908152f35b5050346102055780602092610518366108e6565b6001600160a01b039283168452601987528484209190921683528552828220908252845220549051908152f35b505034610205576001600160801b0381602093610561366108ba565b9082526003865282822090825285522054169051908152f35b505034610205578160031936011261020557905490516001600160a01b039091168152602090f35b5050346102055781600319360112610205576020906001600160801b03601354169051908152f35b5050346102055781600319360112610205576020906001549051908152f35b505034610205578160031936011261020557602090600e5460020b9051908152f35b83346102475760a036600319011261024757610625610857565b5061062e610872565b50610637610888565b506106406108d0565b50608435801515036102475780f35b905034610290576020928291610664366108ba565b919083528552828220908252845220549051908152f35b5050346102055781600319360112610205576020906011549051908152f35b505034610205578160031936011261020557602090600e5460181c60020b9051908152f35b50503461020557806020926106d3366108ba565b90825260058552828220908252845220549051908152f35b5050346102055781600319360112610205576020906015549051908152f35b9050346102905760203660031901126102905760209282913581526006845220549051908152f35b9050346102905760203660031901126102905760209282913581526008845220549051908152f35b505034610205578160031936011261020557602090600f549051908152f35b505034610205573660031901126102475761079261089a565b5061079b6108aa565b5061031e61091b565b905034610290576020366003190112610290576020928291358152600b845220549051908152f35b50503461020557606036600319011261020557906020916107eb61089a565b506107f46108aa565b5051908152f35b833461024757606036600319011261024757610815610857565b5061081e610872565b5061079b610888565b83346102475760a036600319011261024757610841610857565b5061084a610872565b50610853610888565b5080f35b600435906001600160a01b038216820361086d57565b600080fd5b602435906001600160a01b038216820361086d57565b6044359062ffffff8216820361086d57565b600435908160020b820361086d57565b602435908160020b820361086d57565b604090600319011261086d576004359060243590565b606435906001600160801b038216820361086d57565b606090600319011261086d576001600160a01b0390600435828116810361086d5791602435908116810361086d579060443590565b6000546001600160a01b0316330361092f57565b60405162461bcd60e51b81526020600482015260096024820152682737ba1037bbb732b960b91b6044820152606490fdfea2646970667358221220bcedec2fd9c20e3150382041f428aecdda038295e0d5820b4944a41601b9abeb64736f6c63430008130033",
  "linkReferences": {},
  "deployedLinkReferences": {}
}