{
  "_format": "hh-sol-artifact-1",
  "contractName": "YfSc",
  "sourceName": "contracts/yfsc_interface.sol",
  "abi": [
    {
      "inputs": [
        {
          "internalType": "contract PositionsNFT",
          "name": "_positionsNFT",
          "type": "address"
        },
        {
          "internalType": "contract NonfungiblePositionManager",
          "name": "_nonfungiblePositionManager",
          "type": "address"
        },
        {
          "internalType": "contract ISwapRouter",
          "name": "_iSwapRouter",
          "type": "address"
        }
      ],
      "stateMutability": "nonpayable",
      "type": "constructor"
    },
    {
      "anonymous": false,
      "inputs": [
        {
          "indexed": false,
          "internalType": "uint128",
          "name": "liquidity",
          "type": "uint128"
        },
        {
          "indexed": false,
          "internalType": "uint256",
          "name": "_amount0",
          "type": "uint256"
        },
        {
          "indexed": false,
          "internalType": "uint256",
          "name": "_amount1",
          "type": "uint256"
        },
        {
          "indexed": false,
          "internalType": "uint256",
          "name": "uniNft",
          "type": "uint256"
        },
        {
          "indexed": false,
          "internalType": "uint256",
          "name": "yfNft",
          "type": "uint256"
        }
      ],
      "name": "IncreaseLiquidity",
      "type": "event"
    },
    {
      "anonymous": false,
      "inputs": [
        {
          "indexed": false,
          "internalType": "uint256",
          "name": "tokenId",
          "type": "uint256"
        },
        {
          "indexed": false,
          "internalType": "uint256",
          "name": "liquidityInPool",
          "type": "uint256"
        },
        {
          "indexed": false,
          "internalType": "uint256",
          "name": "amount0",
          "type": "uint256"
        },
        {
          "indexed": false,
          "internalType": "uint256",
          "name": "amount1",
          "type": "uint256"
        }
      ],
      "name": "NftMinted",
      "type": "event"
    },
    {
      "inputs": [
        {
          "internalType": "int24",
          "name": "_tick",
          "type": "int24"
        }
      ],
      "name": "checkTick",
      "outputs": [
        {
          "internalType": "uint160",
          "name": "",
          "type": "uint160"
        }
      ],
      "stateMutability": "view",
      "type": "function"
    },
    {
      "inputs": [
        {
          "internalType": "address",
          "name": "_token0",
          "type": "address"
        },
        {
          "internalType": "address",
          "name": "_token1",
          "type": "address"
        },
        {
          "internalType": "uint256",
          "name": "_fee",
          "type": "uint256"
        },
        {
          "internalType": "uint128",
          "name": "_tokensOwed0",
          "type": "uint128"
        },
        {
          "internalType": "uint128",
          "name": "_tokensOwed1",
          "type": "uint128"
        }
      ],
      "name": "collect",
      "outputs": [],
      "stateMutability": "nonpayable",
      "type": "function"
    },
    {
      "inputs": [
        {
          "internalType": "uint160",
          "name": "sqrtPriceX96",
          "type": "uint160"
        }
      ],
      "name": "computeTick",
      "outputs": [
        {
          "internalType": "int24",
          "name": "",
          "type": "int24"
        }
      ],
      "stateMutability": "view",
      "type": "function"
    },
    {
      "inputs": [
        {
          "internalType": "address",
          "name": "_token0",
          "type": "address"
        },
        {
          "internalType": "address",
          "name": "_token1",
          "type": "address"
        },
        {
          "internalType": "uint256",
          "name": "_fee",
          "type": "uint256"
        }
      ],
      "name": "currentTicksForPosition",
      "outputs": [
        {
          "internalType": "int24",
          "name": "_tickLower",
          "type": "int24"
        },
        {
          "internalType": "int24",
          "name": "_tickUpper",
          "type": "int24"
        }
      ],
      "stateMutability": "view",
      "type": "function"
    },
    {
      "inputs": [],
      "name": "deadline",
      "outputs": [
        {
          "internalType": "uint256",
          "name": "",
          "type": "uint256"
        }
      ],
      "stateMutability": "view",
      "type": "function"
    },
    {
      "inputs": [
        {
          "internalType": "address",
          "name": "_token0",
          "type": "address"
        },
        {
          "internalType": "address",
          "name": "_token1",
          "type": "address"
        },
        {
          "internalType": "uint24",
          "name": "_fee",
          "type": "uint24"
        },
        {
          "internalType": "uint128",
          "name": "_purcentage",
          "type": "uint128"
        },
        {
          "internalType": "bool",
          "name": "_notYetpdated",
          "type": "bool"
        }
      ],
      "name": "decreaseLiquidity",
      "outputs": [],
      "stateMutability": "nonpayable",
      "type": "function"
    },
    {
      "inputs": [
        {
          "internalType": "int24",
          "name": "_tickLower",
          "type": "int24"
        },
        {
          "internalType": "int24",
          "name": "_tickUpper",
          "type": "int24"
        },
        {
          "internalType": "uint256",
          "name": "amount0",
          "type": "uint256"
        }
      ],
      "name": "getAmount1ForAmount0",
      "outputs": [
        {
          "internalType": "uint256",
          "name": "amount1",
          "type": "uint256"
        }
      ],
      "stateMutability": "pure",
      "type": "function"
    },
    {
      "inputs": [
        {
          "internalType": "address",
          "name": "_token0",
          "type": "address"
        },
        {
          "internalType": "address",
          "name": "_token1",
          "type": "address"
        },
        {
          "internalType": "uint256",
          "name": "_fee",
          "type": "uint256"
        }
      ],
      "name": "getPendingrewardForPosition",
      "outputs": [
        {
          "internalType": "uint256",
          "name": "reward0",
          "type": "uint256"
        },
        {
          "internalType": "uint256",
          "name": "reward1",
          "type": "uint256"
        }
      ],
      "stateMutability": "view",
      "type": "function"
    },
    {
      "inputs": [
        {
          "internalType": "uint256",
          "name": "priceA",
          "type": "uint256"
        },
        {
          "internalType": "uint256",
          "name": "priceB",
          "type": "uint256"
        }
      ],
      "name": "getSqrtPriceX96",
      "outputs": [
        {
          "internalType": "uint256",
          "name": "",
          "type": "uint256"
        }
      ],
      "stateMutability": "view",
      "type": "function"
    },
    {
      "inputs": [
        {
          "internalType": "uint256",
          "name": "_position",
          "type": "uint256"
        },
        {
          "internalType": "uint256",
          "name": "_state",
          "type": "uint256"
        }
      ],
      "name": "getTotalLiquidityAtStateForPosition",
      "outputs": [
        {
          "internalType": "uint256",
          "name": "",
          "type": "uint256"
        }
      ],
      "stateMutability": "view",
      "type": "function"
    },
    {
      "inputs": [],
      "name": "iSwapRouter",
      "outputs": [
        {
          "internalType": "contract ISwapRouter",
          "name": "",
          "type": "address"
        }
      ],
      "stateMutability": "view",
      "type": "function"
    },
    {
      "inputs": [
        {
          "internalType": "uint256",
          "name": "",
          "type": "uint256"
        }
      ],
      "name": "liquidityLastDepositTime",
      "outputs": [
        {
          "internalType": "uint256",
          "name": "",
          "type": "uint256"
        }
      ],
      "stateMutability": "view",
      "type": "function"
    },
    {
      "inputs": [
        {
          "internalType": "uint256",
          "name": "",
          "type": "uint256"
        }
      ],
      "name": "liquidityLastStateUpdate",
      "outputs": [
        {
          "internalType": "uint256",
          "name": "",
          "type": "uint256"
        }
      ],
      "stateMutability": "view",
      "type": "function"
    },
    {
      "inputs": [],
      "name": "liquidityLockTime",
      "outputs": [
        {
          "internalType": "uint256",
          "name": "",
          "type": "uint256"
        }
      ],
      "stateMutability": "view",
      "type": "function"
    },
    {
      "inputs": [],
      "name": "max_collect",
      "outputs": [
        {
          "internalType": "uint128",
          "name": "",
          "type": "uint128"
        }
      ],
      "stateMutability": "view",
      "type": "function"
    },
    {
      "inputs": [
        {
          "internalType": "address",
          "name": "_token0",
          "type": "address"
        },
        {
          "internalType": "address",
          "name": "_token1",
          "type": "address"
        },
        {
          "internalType": "uint24",
          "name": "_fee",
          "type": "uint24"
        },
        {
          "internalType": "uint256",
          "name": "_amount0",
          "type": "uint256"
        },
        {
          "internalType": "uint256",
          "name": "_amount1",
          "type": "uint256"
        }
      ],
      "name": "mintNFT",
      "outputs": [],
      "stateMutability": "nonpayable",
      "type": "function"
    },
    {
      "inputs": [],
      "name": "nonfungiblePositionManager",
      "outputs": [
        {
          "internalType": "contract NonfungiblePositionManager",
          "name": "",
          "type": "address"
        }
      ],
      "stateMutability": "view",
      "type": "function"
    },
    {
      "inputs": [
        {
          "internalType": "address",
          "name": "",
          "type": "address"
        },
        {
          "internalType": "address",
          "name": "",
          "type": "address"
        },
        {
          "internalType": "uint256",
          "name": "",
          "type": "uint256"
        }
      ],
      "name": "originalPoolNftIds",
      "outputs": [
        {
          "internalType": "uint256",
          "name": "",
          "type": "uint256"
        }
      ],
      "stateMutability": "view",
      "type": "function"
    },
    {
      "inputs": [],
      "name": "owner",
      "outputs": [
        {
          "internalType": "address",
          "name": "",
          "type": "address"
        }
      ],
      "stateMutability": "view",
      "type": "function"
    },
    {
      "inputs": [
        {
          "internalType": "address",
          "name": "",
          "type": "address"
        },
        {
          "internalType": "address",
          "name": "",
          "type": "address"
        },
        {
          "internalType": "uint256",
          "name": "",
          "type": "uint256"
        }
      ],
      "name": "poolNftIds",
      "outputs": [
        {
          "internalType": "uint256",
          "name": "",
          "type": "uint256"
        }
      ],
      "stateMutability": "view",
      "type": "function"
    },
    {
      "inputs": [],
      "name": "positionsNFT",
      "outputs": [
        {
          "internalType": "contract PositionsNFT",
          "name": "",
          "type": "address"
        }
      ],
      "stateMutability": "view",
      "type": "function"
    },
    {
      "inputs": [],
      "name": "quotient",
      "outputs": [
        {
          "internalType": "uint256",
          "name": "",
          "type": "uint256"
        }
      ],
      "stateMutability": "view",
      "type": "function"
    },
    {
      "inputs": [
        {
          "internalType": "uint256",
          "name": "",
          "type": "uint256"
        },
        {
          "internalType": "uint256",
          "name": "",
          "type": "uint256"
        }
      ],
      "name": "rewardAtStateForNftToken0",
      "outputs": [
        {
          "internalType": "uint256",
          "name": "",
          "type": "uint256"
        }
      ],
      "stateMutability": "view",
      "type": "function"
    },
    {
      "inputs": [
        {
          "internalType": "uint256",
          "name": "",
          "type": "uint256"
        },
        {
          "internalType": "uint256",
          "name": "",
          "type": "uint256"
        }
      ],
      "name": "rewardAtStateForNftToken1",
      "outputs": [
        {
          "internalType": "uint256",
          "name": "",
          "type": "uint256"
        }
      ],
      "stateMutability": "view",
      "type": "function"
    },
    {
      "inputs": [
        {
          "internalType": "uint256",
          "name": "_liquidityLockTime",
          "type": "uint256"
        }
      ],
      "name": "setLockTime",
      "outputs": [],
      "stateMutability": "nonpayable",
      "type": "function"
    },
    {
      "inputs": [
        {
          "internalType": "address",
          "name": "_token0",
          "type": "address"
        },
        {
          "internalType": "address",
          "name": "_token1",
          "type": "address"
        },
        {
          "internalType": "uint24",
          "name": "_fee",
          "type": "uint24"
        },
        {
          "internalType": "int24",
          "name": "_ticksUp",
          "type": "int24"
        },
        {
          "internalType": "int24",
          "name": "_ticksDown",
          "type": "int24"
        }
      ],
      "name": "setRates",
      "outputs": [],
      "stateMutability": "nonpayable",
      "type": "function"
    },
    {
      "inputs": [
        {
          "internalType": "uint256",
          "name": "_slippageToken0",
          "type": "uint256"
        },
        {
          "internalType": "uint256",
          "name": "_slippageToken1",
          "type": "uint256"
        }
      ],
      "name": "setSilppageToken0",
      "outputs": [],
      "stateMutability": "nonpayable",
      "type": "function"
    },
    {
      "inputs": [
        {
          "internalType": "int24",
          "name": "_tickLower",
          "type": "int24"
        },
        {
          "internalType": "int24",
          "name": "_tickUpper",
          "type": "int24"
        }
      ],
      "name": "setTicks",
      "outputs": [],
      "stateMutability": "nonpayable",
      "type": "function"
    },
    {
      "inputs": [],
      "name": "slippageToken0",
      "outputs": [
        {
          "internalType": "uint256",
          "name": "",
          "type": "uint256"
        }
      ],
      "stateMutability": "view",
      "type": "function"
    },
    {
      "inputs": [],
      "name": "slippageToken1",
      "outputs": [
        {
          "internalType": "uint256",
          "name": "",
          "type": "uint256"
        }
      ],
      "stateMutability": "view",
      "type": "function"
    },
    {
      "inputs": [],
      "name": "statesCounter",
      "outputs": [
        {
          "internalType": "uint256",
          "name": "",
          "type": "uint256"
        }
      ],
      "stateMutability": "view",
      "type": "function"
    },
    {
      "inputs": [
        {
          "internalType": "uint256",
          "name": "",
          "type": "uint256"
        },
        {
          "internalType": "uint256",
          "name": "",
          "type": "uint256"
        }
      ],
      "name": "statesIdsForNft",
      "outputs": [
        {
          "internalType": "uint256",
          "name": "",
          "type": "uint256"
        }
      ],
      "stateMutability": "view",
      "type": "function"
    },
    {
      "inputs": [],
      "name": "tickLower",
      "outputs": [
        {
          "internalType": "int24",
          "name": "",
          "type": "int24"
        }
      ],
      "stateMutability": "view",
      "type": "function"
    },
    {
      "inputs": [],
      "name": "tickUpper",
      "outputs": [
        {
          "internalType": "int24",
          "name": "",
          "type": "int24"
        }
      ],
      "stateMutability": "view",
      "type": "function"
    },
    {
      "inputs": [
        {
          "internalType": "uint256",
          "name": "",
          "type": "uint256"
        },
        {
          "internalType": "uint256",
          "name": "",
          "type": "uint256"
        }
      ],
      "name": "totalLiquidityAtStateForNft",
      "outputs": [
        {
          "internalType": "uint128",
          "name": "",
          "type": "uint128"
        }
      ],
      "stateMutability": "view",
      "type": "function"
    },
    {
      "inputs": [
        {
          "internalType": "uint256",
          "name": "",
          "type": "uint256"
        }
      ],
      "name": "totalRewardForNftToken0",
      "outputs": [
        {
          "internalType": "uint256",
          "name": "",
          "type": "uint256"
        }
      ],
      "stateMutability": "view",
      "type": "function"
    },
    {
      "inputs": [
        {
          "internalType": "uint256",
          "name": "",
          "type": "uint256"
        }
      ],
      "name": "totalRewardForNftToken1",
      "outputs": [
        {
          "internalType": "uint256",
          "name": "",
          "type": "uint256"
        }
      ],
      "stateMutability": "view",
      "type": "function"
    },
    {
      "inputs": [
        {
          "internalType": "uint256",
          "name": "",
          "type": "uint256"
        }
      ],
      "name": "totalRewardPaidForNftToken0",
      "outputs": [
        {
          "internalType": "uint256",
          "name": "",
          "type": "uint256"
        }
      ],
      "stateMutability": "view",
      "type": "function"
    },
    {
      "inputs": [
        {
          "internalType": "uint256",
          "name": "",
          "type": "uint256"
        }
      ],
      "name": "totalRewardPaidForNftToken1",
      "outputs": [
        {
          "internalType": "uint256",
          "name": "",
          "type": "uint256"
        }
      ],
      "stateMutability": "view",
      "type": "function"
    },
    {
      "inputs": [
        {
          "internalType": "address",
          "name": "",
          "type": "address"
        }
      ],
      "name": "totalRewards",
      "outputs": [
        {
          "internalType": "uint256",
          "name": "",
          "type": "uint256"
        }
      ],
      "stateMutability": "view",
      "type": "function"
    },
    {
      "inputs": [
        {
          "internalType": "uint256",
          "name": "",
          "type": "uint256"
        }
      ],
      "name": "totalStatesForNft",
      "outputs": [
        {
          "internalType": "uint256",
          "name": "",
          "type": "uint256"
        }
      ],
      "stateMutability": "view",
      "type": "function"
    },
    {
      "inputs": [
        {
          "internalType": "address",
          "name": "_token0",
          "type": "address"
        },
        {
          "internalType": "address",
          "name": "_token1",
          "type": "address"
        },
        {
          "internalType": "uint24",
          "name": "_fee",
          "type": "uint24"
        }
      ],
      "name": "updatePosition",
      "outputs": [],
      "stateMutability": "nonpayable",
      "type": "function"
    }
  ],
  "bytecode": "0x60803461010557601f610ce938819003918201601f19168301916001600160401b0383118484101761010a578084926060946040528339810103126101055780516001600160a01b038082169290918390036101055760208101519082821680920361010557604001519182168092036101055760018055610258600d556101f480600e55600f556127106010556b033b2e3c9fd0803ce800000060018060801b0319601154161760115562278d0060125560018060a01b03199283601454161760145582601554161760155581601654161760165533906000541617600055650d89b4f2764c65ffffffffffff19600c541617600c55604051610bc890816101218239f35b600080fd5b634e487b7160e01b600052604160045260246000fdfe608060408181526004918236101561001657600080fd5b600092833560e01c91826303cba92114610a30578263098ba46c14610a0b5750816310f90515146109df5781631780d411146109b05781631e3e47a1146109885781631efda4ce1461095157816321fa5ef2146108f55781632648cb401461069157816329dcb0cf146108d65781632aae485f146108ae5781632eee35111461088657816348de0f4014610867578163552e84f61461083757816355a326831461080b57816355b812a8146107e657816356301b39146107c75781635837ba971461079b57816358e162c11461075757816359c4f905146107355781635c4a0731146107165781635efea7d0146106ee5781638da5cb5b146106c6578163902f681c1461069157816399deb93c14610650578163a984701c146104d0578163ab7573dd14610498578163ae04d45d1461046a578163b161e3a014610442578163b359d63614610426578163b44a2722146103fd578163bd9295ba146103d5578163c0835617146103ad578163cf2a97ce1461036b578163d591079814610342578163d6d0b90014610315578163ea7f37a7146102d4578163ecf0f474146102a857508063ed93e05a1461028a578063ef3e5d2414610262578063f0a9dc0b1461023f578063f360110b146102215763fdce28b1146101f357600080fd5b3461021d578060209261020536610ac3565b908252600a8552828220908252845220549051908152f35b5080fd5b503461021d578160031936011261021d576020906010549051908152f35b50903461025f5761024f36610aef565b5050508151908082526020820152f35b80fd5b503461021d578160031936011261021d5760165490516001600160a01b039091168152602090f35b503461021d578160031936011261021d57602090600e549051908152f35b9050346102d05760203660031901126102d05760209282913581526007845220549051908152f35b8280fd5b50503461021d57806020926102e836610aef565b6001600160a01b039283168452601887528484209190921683528552828220908252845220549051908152f35b833461025f5761032436610ac3565b9061033960018060a01b038454163314610b24565b600e55600f5580f35b50503461021d578160031936011261021d5760145490516001600160a01b039091168152602090f35b833461025f5760a036600319011261025f57610385610a60565b5061038e610a7b565b50610397610ad9565b506084356001600160801b0381160361025f5780f35b9050346102d05760203660031901126102d05760209282913581526002845220549051908152f35b9050346102d05760203660031901126102d05760209282913581526013845220549051908152f35b50503461021d578160031936011261021d5760155490516001600160a01b039091168152602090f35b50503461021d5760209061043936610ac3565b50505160018152f35b9050346102d05760203660031901126102d05760209282913581526009845220549051908152f35b83903461021d57602036600319011261021d5761049160018060a01b038354163314610b24565b3560125580f35b50503461021d57602036600319011261021d5760209181906001600160a01b036104c0610a60565b1681526019845220549051908152f35b9050823461025f576104e136610aef565b90929160018060a01b03808060155416951684526017602052868420911683526020528482209082526020528381205490845192839263133f757160e31b8452858401528260246101809586935afa9283156106445781948294610556575b5050505082519160020b825260020b6020820152f35b91935080929450903d831161063c575b601f8201601f191685019067ffffffffffffffff8211868310176106295750855283018390031261025f5781516bffffffffffffffffffffffff81160361025f576105b360208301610b5c565b506105bf838301610b5c565b506105cc60608301610b5c565b50608082015162ffffff81160361025f57506105ea60a08201610b70565b61061e6101606105fc60c08501610b70565b9361060960e08201610b7e565b506106176101408201610b7e565b5001610b7e565b509083808080610540565b634e487b7160e01b855260419052602484fd5b3d9150610566565b508451903d90823e3d90fd5b50503461021d578060209261066436610aef565b6001600160a01b039283168452601787528484209190921683528552828220908252845220549051908152f35b50503461021d576001600160801b03816020936106ad36610ac3565b9082526003865282822090825285522054169051908152f35b50503461021d578160031936011261021d57905490516001600160a01b039091168152602090f35b50503461021d578160031936011261021d576020906001600160801b03601154169051908152f35b50503461021d578160031936011261021d576020906001549051908152f35b50503461021d578160031936011261021d57602090600c5460020b9051908152f35b833461025f5760a036600319011261025f57610771610a60565b5061077a610a7b565b50610783610a91565b5061078c610ad9565b506084358015150361025f5780f35b9050346102d05760209282916107b036610ac3565b919083528552828220908252845220549051908152f35b50503461021d578160031936011261021d57602090600f549051908152f35b50503461021d578160031936011261021d57602090600c5460181c60020b9051908152f35b50503461021d578060209261081f36610ac3565b90825260058552828220908252845220549051908152f35b9050346102d05760203660031901126102d057356001600160a01b0381160361021d5751620d89b3198152602090f35b50503461021d578160031936011261021d576020906012549051908152f35b9050346102d05760203660031901126102d05760209282913581526006845220549051908152f35b9050346102d05760203660031901126102d05760209282913581526008845220549051908152f35b50503461021d578160031936011261021d57602090600d549051908152f35b833461025f5760a036600319011261025f5761090f610a60565b50610918610a7b565b50610921610a91565b506064358060020b0361025f576084358060020b0361025f5761094e60018060a01b038254163314610b24565b80f35b50503461021d5736600319011261025f5761096a610aa3565b50610973610ab3565b5061094e60018060a01b038254163314610b24565b9050346102d05760203660031901126102d0576020928291358152600b845220549051908152f35b50503461021d57606036600319011261021d57906020916109cf610aa3565b506109d8610ab3565b5051908152f35b833461025f57606036600319011261025f576109f9610a60565b50610a02610a7b565b50610973610a91565b84903461021d57602036600319011261021d57602090610a29610aa3565b5060018152f35b843461025f5760a036600319011261025f57610a4a610a60565b50610a53610a7b565b50610a5c610a91565b5080f35b600435906001600160a01b0382168203610a7657565b600080fd5b602435906001600160a01b0382168203610a7657565b6044359062ffffff82168203610a7657565b600435908160020b8203610a7657565b602435908160020b8203610a7657565b6040906003190112610a76576004359060243590565b606435906001600160801b0382168203610a7657565b6060906003190112610a76576001600160a01b03906004358281168103610a7657916024359081168103610a76579060443590565b15610b2b57565b60405162461bcd60e51b81526020600482015260096024820152682737ba1037bbb732b960b91b6044820152606490fd5b51906001600160a01b0382168203610a7657565b51908160020b8203610a7657565b51906001600160801b0382168203610a765756fea26469706673582212209804d38afb3430eb668a6d2ade4ef6f6e75e5bd79edabd4d8de920e2c811af3164736f6c63430008130033",
  "linkReferences": {},
  "deployedLinkReferences": {}
}