{
  "_format": "hh-sol-artifact-1",
  "contractName": "YfSc",
  "sourceName": "contracts/yfsc_flat.sol",
  "abi": [
    {
      "inputs": [
        {
          "internalType": "contract PositionsNFT",
          "name": "_positionsNFT",
          "type": "address"
        },
        {
          "internalType": "contract NonfungiblePositionManager",
          "name": "_nonfungiblePositionManager",
          "type": "address"
        },
        {
          "internalType": "contract ISwapRouter",
          "name": "_iSwapRouter",
          "type": "address"
        }
      ],
      "stateMutability": "nonpayable",
      "type": "constructor"
    },
    {
      "inputs": [],
      "name": "R",
      "type": "error"
    },
    {
      "inputs": [],
      "name": "T",
      "type": "error"
    },
    {
      "anonymous": false,
      "inputs": [
        {
          "indexed": false,
          "internalType": "uint128",
          "name": "liquidity",
          "type": "uint128"
        },
        {
          "indexed": false,
          "internalType": "uint256",
          "name": "_amount0",
          "type": "uint256"
        },
        {
          "indexed": false,
          "internalType": "uint256",
          "name": "_amount1",
          "type": "uint256"
        },
        {
          "indexed": false,
          "internalType": "uint256",
          "name": "uniNft",
          "type": "uint256"
        },
        {
          "indexed": false,
          "internalType": "uint256",
          "name": "yfNft",
          "type": "uint256"
        }
      ],
      "name": "IncreaseLiquidity",
      "type": "event"
    },
    {
      "anonymous": false,
      "inputs": [
        {
          "indexed": false,
          "internalType": "uint256",
          "name": "tokenId",
          "type": "uint256"
        },
        {
          "indexed": false,
          "internalType": "uint256",
          "name": "liquidityInPool",
          "type": "uint256"
        },
        {
          "indexed": false,
          "internalType": "uint256",
          "name": "amount0",
          "type": "uint256"
        },
        {
          "indexed": false,
          "internalType": "uint256",
          "name": "amount1",
          "type": "uint256"
        }
      ],
      "name": "NftMinted",
      "type": "event"
    },
    {
      "inputs": [
        {
          "internalType": "int24",
          "name": "_tick",
          "type": "int24"
        }
      ],
      "name": "checkTick",
      "outputs": [
        {
          "internalType": "uint160",
          "name": "",
          "type": "uint160"
        }
      ],
      "stateMutability": "view",
      "type": "function"
    },
    {
      "inputs": [
        {
          "internalType": "address",
          "name": "_token0",
          "type": "address"
        },
        {
          "internalType": "address",
          "name": "_token1",
          "type": "address"
        },
        {
          "internalType": "uint256",
          "name": "_fee",
          "type": "uint256"
        },
        {
          "internalType": "uint128",
          "name": "_tokensOwed0",
          "type": "uint128"
        },
        {
          "internalType": "uint128",
          "name": "_tokensOwed1",
          "type": "uint128"
        }
      ],
      "name": "collect",
      "outputs": [],
      "stateMutability": "nonpayable",
      "type": "function"
    },
    {
      "inputs": [
        {
          "internalType": "uint160",
          "name": "sqrtPriceX96",
          "type": "uint160"
        }
      ],
      "name": "computeTick",
      "outputs": [
        {
          "internalType": "int24",
          "name": "",
          "type": "int24"
        }
      ],
      "stateMutability": "view",
      "type": "function"
    },
    {
      "inputs": [
        {
          "internalType": "address",
          "name": "_token0",
          "type": "address"
        },
        {
          "internalType": "address",
          "name": "_token1",
          "type": "address"
        },
        {
          "internalType": "uint256",
          "name": "_fee",
          "type": "uint256"
        }
      ],
      "name": "currentTicksForPosition",
      "outputs": [
        {
          "internalType": "int24",
          "name": "_tickLower",
          "type": "int24"
        },
        {
          "internalType": "int24",
          "name": "_tickUpper",
          "type": "int24"
        }
      ],
      "stateMutability": "view",
      "type": "function"
    },
    {
      "inputs": [],
      "name": "deadline",
      "outputs": [
        {
          "internalType": "uint256",
          "name": "",
          "type": "uint256"
        }
      ],
      "stateMutability": "view",
      "type": "function"
    },
    {
      "inputs": [
        {
          "internalType": "address",
          "name": "_token0",
          "type": "address"
        },
        {
          "internalType": "address",
          "name": "_token1",
          "type": "address"
        },
        {
          "internalType": "uint24",
          "name": "_fee",
          "type": "uint24"
        },
        {
          "internalType": "uint128",
          "name": "_purcentage",
          "type": "uint128"
        },
        {
          "internalType": "bool",
          "name": "_notYetpdated",
          "type": "bool"
        }
      ],
      "name": "decreaseLiquidity",
      "outputs": [],
      "stateMutability": "nonpayable",
      "type": "function"
    },
    {
      "inputs": [
        {
          "internalType": "int24",
          "name": "_tickLower",
          "type": "int24"
        },
        {
          "internalType": "int24",
          "name": "_tickUpper",
          "type": "int24"
        },
        {
          "internalType": "uint256",
          "name": "amount0",
          "type": "uint256"
        }
      ],
      "name": "getAmount1ForAmount0",
      "outputs": [
        {
          "internalType": "uint256",
          "name": "amount1",
          "type": "uint256"
        }
      ],
      "stateMutability": "pure",
      "type": "function"
    },
    {
      "inputs": [
        {
          "internalType": "address",
          "name": "_token0",
          "type": "address"
        },
        {
          "internalType": "address",
          "name": "_token1",
          "type": "address"
        },
        {
          "internalType": "uint256",
          "name": "_fee",
          "type": "uint256"
        }
      ],
      "name": "getPendingrewardForPosition",
      "outputs": [
        {
          "internalType": "uint256",
          "name": "reward0",
          "type": "uint256"
        },
        {
          "internalType": "uint256",
          "name": "reward1",
          "type": "uint256"
        }
      ],
      "stateMutability": "view",
      "type": "function"
    },
    {
      "inputs": [
        {
          "internalType": "uint256",
          "name": "priceA",
          "type": "uint256"
        },
        {
          "internalType": "uint256",
          "name": "priceB",
          "type": "uint256"
        }
      ],
      "name": "getSqrtPriceX96",
      "outputs": [
        {
          "internalType": "uint256",
          "name": "",
          "type": "uint256"
        }
      ],
      "stateMutability": "view",
      "type": "function"
    },
    {
      "inputs": [
        {
          "internalType": "uint256",
          "name": "_position",
          "type": "uint256"
        },
        {
          "internalType": "uint256",
          "name": "_state",
          "type": "uint256"
        }
      ],
      "name": "getTotalLiquidityAtStateForPosition",
      "outputs": [
        {
          "internalType": "uint256",
          "name": "",
          "type": "uint256"
        }
      ],
      "stateMutability": "view",
      "type": "function"
    },
    {
      "inputs": [],
      "name": "iSwapRouter",
      "outputs": [
        {
          "internalType": "contract ISwapRouter",
          "name": "",
          "type": "address"
        }
      ],
      "stateMutability": "view",
      "type": "function"
    },
    {
      "inputs": [
        {
          "internalType": "uint256",
          "name": "",
          "type": "uint256"
        }
      ],
      "name": "liquidityLastDepositTime",
      "outputs": [
        {
          "internalType": "uint256",
          "name": "",
          "type": "uint256"
        }
      ],
      "stateMutability": "view",
      "type": "function"
    },
    {
      "inputs": [
        {
          "internalType": "uint256",
          "name": "",
          "type": "uint256"
        }
      ],
      "name": "liquidityLastStateUpdate",
      "outputs": [
        {
          "internalType": "uint256",
          "name": "",
          "type": "uint256"
        }
      ],
      "stateMutability": "view",
      "type": "function"
    },
    {
      "inputs": [],
      "name": "liquidityLockTime",
      "outputs": [
        {
          "internalType": "uint256",
          "name": "",
          "type": "uint256"
        }
      ],
      "stateMutability": "view",
      "type": "function"
    },
    {
      "inputs": [],
      "name": "max_collect",
      "outputs": [
        {
          "internalType": "uint128",
          "name": "",
          "type": "uint128"
        }
      ],
      "stateMutability": "view",
      "type": "function"
    },
    {
      "inputs": [
        {
          "internalType": "address",
          "name": "_token0",
          "type": "address"
        },
        {
          "internalType": "address",
          "name": "_token1",
          "type": "address"
        },
        {
          "internalType": "uint24",
          "name": "_fee",
          "type": "uint24"
        },
        {
          "internalType": "uint256",
          "name": "_amount0",
          "type": "uint256"
        },
        {
          "internalType": "uint256",
          "name": "_amount1",
          "type": "uint256"
        }
      ],
      "name": "mintNFT",
      "outputs": [],
      "stateMutability": "nonpayable",
      "type": "function"
    },
    {
      "inputs": [],
      "name": "nonfungiblePositionManager",
      "outputs": [
        {
          "internalType": "contract NonfungiblePositionManager",
          "name": "",
          "type": "address"
        }
      ],
      "stateMutability": "view",
      "type": "function"
    },
    {
      "inputs": [
        {
          "internalType": "address",
          "name": "",
          "type": "address"
        },
        {
          "internalType": "address",
          "name": "",
          "type": "address"
        },
        {
          "internalType": "uint256",
          "name": "",
          "type": "uint256"
        }
      ],
      "name": "originalPoolNftIds",
      "outputs": [
        {
          "internalType": "uint256",
          "name": "",
          "type": "uint256"
        }
      ],
      "stateMutability": "view",
      "type": "function"
    },
    {
      "inputs": [],
      "name": "owner",
      "outputs": [
        {
          "internalType": "address",
          "name": "",
          "type": "address"
        }
      ],
      "stateMutability": "view",
      "type": "function"
    },
    {
      "inputs": [
        {
          "internalType": "address",
          "name": "",
          "type": "address"
        },
        {
          "internalType": "address",
          "name": "",
          "type": "address"
        },
        {
          "internalType": "uint256",
          "name": "",
          "type": "uint256"
        }
      ],
      "name": "poolNftIds",
      "outputs": [
        {
          "internalType": "uint256",
          "name": "",
          "type": "uint256"
        }
      ],
      "stateMutability": "view",
      "type": "function"
    },
    {
      "inputs": [],
      "name": "positionsNFT",
      "outputs": [
        {
          "internalType": "contract PositionsNFT",
          "name": "",
          "type": "address"
        }
      ],
      "stateMutability": "view",
      "type": "function"
    },
    {
      "inputs": [],
      "name": "quotient",
      "outputs": [
        {
          "internalType": "uint256",
          "name": "",
          "type": "uint256"
        }
      ],
      "stateMutability": "view",
      "type": "function"
    },
    {
      "inputs": [
        {
          "internalType": "uint256",
          "name": "",
          "type": "uint256"
        },
        {
          "internalType": "uint256",
          "name": "",
          "type": "uint256"
        }
      ],
      "name": "rewardAtStateForNftToken0",
      "outputs": [
        {
          "internalType": "uint256",
          "name": "",
          "type": "uint256"
        }
      ],
      "stateMutability": "view",
      "type": "function"
    },
    {
      "inputs": [
        {
          "internalType": "uint256",
          "name": "",
          "type": "uint256"
        },
        {
          "internalType": "uint256",
          "name": "",
          "type": "uint256"
        }
      ],
      "name": "rewardAtStateForNftToken1",
      "outputs": [
        {
          "internalType": "uint256",
          "name": "",
          "type": "uint256"
        }
      ],
      "stateMutability": "view",
      "type": "function"
    },
    {
      "inputs": [
        {
          "internalType": "uint256",
          "name": "_liquidityLockTime",
          "type": "uint256"
        }
      ],
      "name": "setLockTime",
      "outputs": [],
      "stateMutability": "nonpayable",
      "type": "function"
    },
    {
      "inputs": [
        {
          "internalType": "address",
          "name": "_token0",
          "type": "address"
        },
        {
          "internalType": "address",
          "name": "_token1",
          "type": "address"
        },
        {
          "internalType": "uint24",
          "name": "_fee",
          "type": "uint24"
        },
        {
          "internalType": "int24",
          "name": "_ticksUp",
          "type": "int24"
        },
        {
          "internalType": "int24",
          "name": "_ticksDown",
          "type": "int24"
        }
      ],
      "name": "setRates",
      "outputs": [],
      "stateMutability": "nonpayable",
      "type": "function"
    },
    {
      "inputs": [
        {
          "internalType": "uint256",
          "name": "_slippageToken0",
          "type": "uint256"
        },
        {
          "internalType": "uint256",
          "name": "_slippageToken1",
          "type": "uint256"
        }
      ],
      "name": "setSilppageToken0",
      "outputs": [],
      "stateMutability": "nonpayable",
      "type": "function"
    },
    {
      "inputs": [
        {
          "internalType": "int24",
          "name": "_tickLower",
          "type": "int24"
        },
        {
          "internalType": "int24",
          "name": "_tickUpper",
          "type": "int24"
        }
      ],
      "name": "setTicks",
      "outputs": [],
      "stateMutability": "nonpayable",
      "type": "function"
    },
    {
      "inputs": [],
      "name": "slippageToken0",
      "outputs": [
        {
          "internalType": "uint256",
          "name": "",
          "type": "uint256"
        }
      ],
      "stateMutability": "view",
      "type": "function"
    },
    {
      "inputs": [],
      "name": "slippageToken1",
      "outputs": [
        {
          "internalType": "uint256",
          "name": "",
          "type": "uint256"
        }
      ],
      "stateMutability": "view",
      "type": "function"
    },
    {
      "inputs": [],
      "name": "statesCounter",
      "outputs": [
        {
          "internalType": "uint256",
          "name": "",
          "type": "uint256"
        }
      ],
      "stateMutability": "view",
      "type": "function"
    },
    {
      "inputs": [
        {
          "internalType": "uint256",
          "name": "",
          "type": "uint256"
        },
        {
          "internalType": "uint256",
          "name": "",
          "type": "uint256"
        }
      ],
      "name": "statesIdsForNft",
      "outputs": [
        {
          "internalType": "uint256",
          "name": "",
          "type": "uint256"
        }
      ],
      "stateMutability": "view",
      "type": "function"
    },
    {
      "inputs": [],
      "name": "tickLower",
      "outputs": [
        {
          "internalType": "int24",
          "name": "",
          "type": "int24"
        }
      ],
      "stateMutability": "view",
      "type": "function"
    },
    {
      "inputs": [],
      "name": "tickUpper",
      "outputs": [
        {
          "internalType": "int24",
          "name": "",
          "type": "int24"
        }
      ],
      "stateMutability": "view",
      "type": "function"
    },
    {
      "inputs": [
        {
          "internalType": "uint256",
          "name": "",
          "type": "uint256"
        },
        {
          "internalType": "uint256",
          "name": "",
          "type": "uint256"
        }
      ],
      "name": "totalLiquidityAtStateForNft",
      "outputs": [
        {
          "internalType": "uint128",
          "name": "",
          "type": "uint128"
        }
      ],
      "stateMutability": "view",
      "type": "function"
    },
    {
      "inputs": [
        {
          "internalType": "uint256",
          "name": "",
          "type": "uint256"
        }
      ],
      "name": "totalRewardForNftToken0",
      "outputs": [
        {
          "internalType": "uint256",
          "name": "",
          "type": "uint256"
        }
      ],
      "stateMutability": "view",
      "type": "function"
    },
    {
      "inputs": [
        {
          "internalType": "uint256",
          "name": "",
          "type": "uint256"
        }
      ],
      "name": "totalRewardForNftToken1",
      "outputs": [
        {
          "internalType": "uint256",
          "name": "",
          "type": "uint256"
        }
      ],
      "stateMutability": "view",
      "type": "function"
    },
    {
      "inputs": [
        {
          "internalType": "uint256",
          "name": "",
          "type": "uint256"
        }
      ],
      "name": "totalRewardPaidForNftToken0",
      "outputs": [
        {
          "internalType": "uint256",
          "name": "",
          "type": "uint256"
        }
      ],
      "stateMutability": "view",
      "type": "function"
    },
    {
      "inputs": [
        {
          "internalType": "uint256",
          "name": "",
          "type": "uint256"
        }
      ],
      "name": "totalRewardPaidForNftToken1",
      "outputs": [
        {
          "internalType": "uint256",
          "name": "",
          "type": "uint256"
        }
      ],
      "stateMutability": "view",
      "type": "function"
    },
    {
      "inputs": [
        {
          "internalType": "address",
          "name": "",
          "type": "address"
        }
      ],
      "name": "totalRewards",
      "outputs": [
        {
          "internalType": "uint256",
          "name": "",
          "type": "uint256"
        }
      ],
      "stateMutability": "view",
      "type": "function"
    },
    {
      "inputs": [
        {
          "internalType": "uint256",
          "name": "",
          "type": "uint256"
        }
      ],
      "name": "totalStatesForNft",
      "outputs": [
        {
          "internalType": "uint256",
          "name": "",
          "type": "uint256"
        }
      ],
      "stateMutability": "view",
      "type": "function"
    },
    {
      "inputs": [
        {
          "internalType": "address",
          "name": "_token0",
          "type": "address"
        },
        {
          "internalType": "address",
          "name": "_token1",
          "type": "address"
        },
        {
          "internalType": "uint24",
          "name": "_fee",
          "type": "uint24"
        }
      ],
      "name": "updatePosition",
      "outputs": [],
      "stateMutability": "nonpayable",
      "type": "function"
    }
  ],
  "bytecode": "0x6080346200010d57601f6200533738819003918201601f19168301916001600160401b0383118484101762000112578084926060946040528339810103126200010d5780516001600160a01b038082169290918390036200010d576020810151908282168092036200010d57604001519182168092036200010d5760018055610258600d556101f480600e55600f556127106010556b033b2e3c9fd0803ce800000060018060801b0319601154161760115562278d0060125560018060a01b03199283601454161760145582601554161760155581601654161760165533906000541617600055650d89b4f2764c65ffffffffffff19600c541617600c5560405161520e9081620001298239f35b600080fd5b634e487b7160e01b600052604160045260246000fdfe608080604052600436101561001357600080fd5b600090813560e01c90816303cba921146122f157508063098ba46c146122bb57806310f90515146113db5780631780d411146113a35780631e3e47a1146113795780631efda4ce1461130857806321fa5ef214610f685780632648cb401461065457806329dcb0cf14610f4a5780632aae485f14610f205780632eee351114610ef657806348de0f4014610ed8578063552e84f614610ea657806355a3268314610e7957806355b812a814610e5557806356301b3914610e375780635837ba9714610e0a57806358e162c11461071757806359c4f905146106f65780635c4a0731146106d85780635efea7d0146106b15780638da5cb5b1461068a578063902f681c1461065457806399deb93c14610612578063a984701c14610540578063ab7573dd14610507578063ae04d45d146104d8578063b161e3a0146104ae578063b359d6361461043c578063b44a272214610413578063bd9295ba146103e9578063c0835617146103bf578063cf2a97ce1461036b578063d591079814610342578063d6d0b90014610315578063ea7f37a7146102d3578063ecf0f474146102a9578063ed93e05a1461028b578063ef3e5d2414610262578063f0a9dc0b1461023c578063f360110b1461021e5763fdce28b1146101ef57600080fd5b3461021b57604060209161020236612d46565b908252600a845282822090825283522054604051908152f35b80fd5b503461021b578060031936011261021b576020601054604051908152f35b503461021b57604061025661025036612d72565b91613d2e565b82519182526020820152f35b503461021b578060031936011261021b576016546040516001600160a01b039091168152602090f35b503461021b578060031936011261021b576020600e54604051908152f35b503461021b57602036600319011261021b5760406020916004358152600783522054604051908152f35b503461021b5760406020916102e736612d72565b9160018060a01b03809116845260188652848420911660005284528260002090825283522054604051908152f35b503461021b5761032436612d46565b9061033960018060a01b038454163314612da7565b600e55600f5580f35b503461021b578060031936011261021b576014546040516001600160a01b039091168152602090f35b503461021b5760a036600319011261021b57610385612ce8565b61038d612cfe565b90610396612d5c565b608435916001600160801b03831683036103ba576103b79360443591614881565b80f35b600080fd5b503461021b57602036600319011261021b5760406020916004358152600283522054604051908152f35b503461021b57602036600319011261021b5760406020916004358152601383522054604051908152f35b503461021b578060031936011261021b576015546040516001600160a01b039091168152602090f35b503461021b5761045761044e36612d46565b9060c01b612ddf565b6001918282019081831161049a5750821c815b82821061047c57602083604051908152f35b9091506104928261048d8184612ddf565b6133f4565b831c9061046a565b634e487b7160e01b81526011600452602490fd5b503461021b57602036600319011261021b5760406020916004358152600983522054604051908152f35b503461021b57602036600319011261021b576104fe60018060a01b038254163314612da7565b60043560125580f35b503461021b57602036600319011261021b576020906040906001600160a01b0361052f612ce8565b168152601983522054604051908152f35b503461021b5761054f36612d72565b90929160018060a01b038080601554169516845260176020526040842091166000526020526040600020908252602052604081205460405192839163133f757160e31b835260048301528160246101809586935afa9081156106075760409383926105c9575b505082519160020b825260020b6020820152f35b6105ec935080919250903d10610600575b6105e48183613228565b8101906132d1565b5050505050955093505050509038806105b5565b503d6105da565b6040513d84823e3d90fd5b503461021b57604060209161062636612d72565b9160018060a01b03809116845260178652848420911660005284528260002090825283522054604051908152f35b503461021b576001600160801b03604060209261067036612d46565b908252600385528282209082528452205416604051908152f35b503461021b578060031936011261021b57546040516001600160a01b039091168152602090f35b503461021b578060031936011261021b5760206001600160801b0360115416604051908152f35b503461021b578060031936011261021b576020600154604051908152f35b503461021b578060031936011261021b576020600c5460020b604051908152f35b503461021b5760a036600319011261021b57610731612ce8565b9061073a612cfe565b91610743612d14565b9261074c612d5c565b93608435151560843503610e06576001600160a01b03838116600081815260176020908152604080832087861680855290835281842062ffffff881680865290845282852054958552601884528285209185529083528184209084528252808320546014549151631b8c9f6760e11b8152336004820152602481018290529190951699929794969395939291816044818d5afa908115610dfb578891610dc5575b5080885260136020526040882054610807601254426133f4565b1115610d8b5760405163162eaef160e31b8152600481018290526020816024818e5afa908115610d4a57908b918a91610d55575b506020906044604051809481936332560fb560e11b835287600484015260248301525afa908115610d4a578991610d13575b5060446020926040519c8d9384926318c858b960e11b8452600484015260248301525afa988915610c00578799610ccb575b506001600160801b03166001600160801b0389160292836001600160801b03811603610cb7578660806040516108d4816131f0565b82815282602082015282604082015282606082015201526108f7600d54426133f4565b60405190610904826131f0565b8682526001600160801b03606481881604166020830152886040830152886060830152608082015260018060a01b0360155416906040519163133f757160e31b835287600484015261018083602481845afa918215610c43578a938b93610c7c575b50608060a46040928d84519586948593630624e65f60e11b8552805160048601526001600160801b03602082015116602486015287810151604486015260608101516064860152015160848401525af18015610c43579060249291610c4e575b5060155460405163133f757160e31b8152600481018a9052926101809184919082906001600160a01b03165afa918215610c4357610a2c93928b92918391610c0b575b50610a1e9293610a1891613d15565b92613d15565b9062ffffff86168585614881565b60155460405163133f757160e31b8152600481019690965261018090869060249082906001600160a01b03165afa948515610c00578795610bd1575b5060018060a01b031686526018602052604086209060018060a01b0316865260205262ffffff604086209116855260205260408420549182855260036020526040852060015486526020526001600160801b036040862091166001600160801b0319825416179055608435610adb578480f35b610b0e60015496838652600260205287604087205560646001600160801b0360018060a01b036014541694160490613d15565b813b15610bcd576040516331fcfa4160e11b8152600481018490526001600160801b03919091166024820152604481019690965283908690606490829084905af1948515610bc25760409495610baf575b5060015490828452600a602052848420908452600b602052848420548452602052838320558152600b60205220610b9681546134b7565b9055610ba36001546134b7565b60015580388080808480f35b610bbb909391936131a3565b9138610b5f565b6040513d85823e3d90fd5b8480fd5b610bed9195506101803d61018011610600576105e48183613228565b5050505096505050505050509338610a68565b6040513d89823e3d90fd5b610a1e9350610a189150610c2f906101803d61018011610600576105e48183613228565b9d509a9950610a0998505050505050505050565b6040513d8c823e3d90fd5b610c6f9060403d604011610c75575b610c678183613228565b810190613cff565b506109c6565b503d610c5d565b60a494506040919350610ca16080916101803d61018011610600576105e48183613228565b909f509d9b506109669950505050505050505050565b634e487b7160e01b87526011600452602487fd5b9098506020813d602011610d0b575b81610ce760209383613228565b81010312610d0757610d006001600160801b03916132bd565b989061089f565b8680fd5b3d9150610cda565b90506020813d602011610d42575b81610d2e60209383613228565b81010312610d3e5751604461086d565b8880fd5b3d9150610d21565b6040513d8b823e3d90fd5b9150506020813d602011610d83575b81610d7160209383613228565b81010312610d3e57518a90602061083b565b3d9150610d64565b60405162461bcd60e51b81526020600482015260126024820152716c6971756964697479206c6f636b6564202160701b6044820152606490fd5b90506020813d602011610df3575b81610de060209383613228565b81010312610def5751386107ed565b8780fd5b3d9150610dd3565b6040513d8a823e3d90fd5b8380fd5b503461021b576040602091610e1e36612d46565b9082526004845282822090825283522054604051908152f35b503461021b578060031936011261021b576020600f54604051908152f35b503461021b578060031936011261021b576020600c5460181c60020b604051908152f35b503461021b576040602091610e8d36612d46565b9082526005845282822090825283522054604051908152f35b503461021b57602036600319011261021b576004356001600160a01b0381160361021b576020604051620d89b3198152f35b503461021b578060031936011261021b576020601254604051908152f35b503461021b57602036600319011261021b5760406020916004358152600683522054604051908152f35b503461021b57602036600319011261021b5760406020916004358152600883522054604051908152f35b503461021b578060031936011261021b576020600d54604051908152f35b503461021b5760a036600319011261021b57610f82612ce8565b610f8a612cfe565b610f92612d14565b60643560029381850b82036103ba576084359182860b83036103ba5786546001600160a01b039590610fc79087163314612da7565b856015541692604051809463c45a015560e01b825281600460209788935afa918a83156112fc5786938a9382916112b5575b50908360649392816040519889978896630b4c774160e11b885216600487015216602485015262ffffff809c166044850152165af18015610dfb578691899161127d575b5016604051633850c7bd60e01b815260e081600481855afa908115610d4a5784908a926111eb575b506040516334324e9f60e21b81529192829060049082905afa938415610d4a5789946111b3575b5050860b9582810b801561119f57627fffff19976000199190808a148284141661118b57908181879305918c8212918261117d575b5050611152575b6110d292506132a6565b6110e6846110e08184613288565b966132a6565b820b910b03958612627fffff871317610cb7579161110a6111109261111b946132a6565b90613288565b928554163314612da7565b61112483612dff565b5061112e82612dff565b50600c549160181b65ffffff0000001692169065ffffffffffff19161717600c5580f35b9050820b888114611169576110d2918591016110c8565b634e487b7160e01b8a52601160045260248afd5b07850b1515905038806110c1565b634e487b7160e01b8b52601160045260248bfd5b634e487b7160e01b89526012600452602489fd5b9080929450813d83116111e4575b6111cb8183613228565b81010312610def576111dc9061325e565b91388061108c565b503d6111c1565b91505060e0813d60e011611275575b8161120760e09383613228565b81010312610d3e57805187811603610d3e5761122484820161325e565b906112316040820161326c565b5061123e6060820161326c565b5061124b6080820161326c565b5060a081015160ff8116036112715760049161126a60c087930161327b565b5091611065565b8980fd5b3d91506111fa565b809250848092503d83116112ae575b6112968183613228565b81010312610def576112a8869161324a565b3861103d565b503d61128c565b9294809294508391503d83116112f5575b6112d08183613228565b810103126112f15785928992836112e860649461324a565b91929350610ff9565b5080fd5b503d6112c6565b604051903d90823e3d90fd5b503461021b57604036600319011261021b57611322612d26565b61132a612d36565b61133e60018060a01b038454163314612da7565b61134782612dff565b5061135181612dff565b5062ffffff600c549160181b65ffffff0000001692169065ffffffffffff19161717600c5580f35b503461021b57602036600319011261021b5760406020916004358152600b83522054604051908152f35b503461021b57606036600319011261021b5760206113d36113c2612d26565b6113ca612d36565b60443591615068565b604051908152f35b503461021b57606036600319011261021b576113f5612ce8565b6113fd612cfe565b611405612d14565b9061141a60018060a01b038554163314612da7565b6001549161142e62ffffff821683866140f0565b6040516370a0823160e01b8152306004820152916020836024816001600160a01b0389165afa9283156122b057869361227c575b506040516370a0823160e01b8152306004820152946020866024816001600160a01b0386165afa958615610c00578796612248575b506001600160a01b03818116600081815260176020908152604080832087861680855290835281842062ffffff8a168086529084528285205495855260188452828520918552908352818420908452825291829020546014549251631b8c9f6760e11b81523360048201526024810191909152929391909116919081604481855afa9081156120b957600091612216575b50806000526013602052604060002054611544601254426133f4565b1115610d8b5760405163162eaef160e31b815260048101829052602081602481865afa9081156120b9576000916121e4575b50604051906332560fb560e11b82528260048301526024820152602081604481865afa9081156120b9576000916121b1575b50604460209260405194859384926318c858b960e11b8452600484015260248301525afa9081156120b95760009161216c575b506001600160801b036064911602806001600160801b038116036121565760006080604051611609816131f0565b828152826020820152826040820152826060820152015261162c600d54426133f4565b6001600160801b0360648160405194611644866131f0565b86865216041660208301526000604083015260006060830152608082015260018060a01b0360155416906040519063133f757160e31b825283600483015261018082602481865afa9081156120b957600092839261211b575b50608060a4604092600084519788948593630624e65f60e11b8552805160048601526001600160801b03602082015116602486015287810151604486015260608101516064860152015160848401525af19283156120b9576024936120fd575b5060155460405163133f757160e31b815260048101869052936101809185919082906001600160a01b03165afa9081156120b95761175c9360009081936120c5575b5061174e9293610a1891613d15565b9062ffffff87168686614881565b60155460405163133f757160e31b8152600481019290925261018090829060249082906001600160a01b03165afa9081156120b95760009161208c575b5060018060a01b0382166000526018602052604060002060018060a01b038416600052602052604060002062ffffff8516600052602052604060002054600052600360205260406000206001546000526020526001600160801b03604060002091166001600160801b0319825416179055604051936370a0823160e01b855230600486015260208560248160018060a01b0386165afa948515610dfb578895612058575b506040516370a0823160e01b81523060048201529488906020876024816001600160a01b0389165afa968715610607578297612021575b506001600160a01b03848116808452601760208181526040808720948a16600081815295835281862062ffffff8d16808a529084528289205495895293835281882090865282529384902091865252908320839055600c54909790611929906118eb908490601881901c600290810b91900b615068565b916119236118fb600e5486613381565b61191161190b6010548093612ddf565b87613394565b5061191e600f5484613381565b612ddf565b90613394565b506040516323b872dd60e01b815233600482015230602482015260448101839052602081606481876001600160a01b038b165af18015611f6b57611fe8575b506040516323b872dd60e01b815233600482015230602482015260448101829052602081606481876001600160a01b038c165af18015611f6b57611faf575b5060155460405163095ea7b360e01b81526001600160a01b0390911660048201526024810183905260208180604481010381876001600160a01b038b165af18015611f6b57611f76575b5060155460405163095ea7b360e01b81526001600160a01b0390911660048201526024810182905260208180604481010381876001600160a01b038c165af18015611f6b57611f29575b50611aed90608092611a4b6133a1565b50600c5491611a5c600d54426133f4565b9160405193611a6a85613170565b60018060a01b038a16855260018060a01b038b16602086015262ffffff8c1660408601528060020b606086015260181c60020b8685015260a084015260c08301528460e0830152846101008301523061012083015261014082015260018060a01b036015541690604051948580948193634418b22b60e11b83526004830161342a565b03925af18015610d4a5789908a908b8c91611ee0575b6000805160206151b983398151915293945090608092916001600160801b036040519387855216602084015260408301526060820152a160018060a01b038316895260176020526040892060018060a01b038516600052602052604060002062ffffff86168a526020528060408a205560018060a01b038416895260176020526040892060018060a01b038416600052602052604060002062ffffff86168a5260205260408920556040516370a0823160e01b815230600482015260208160248160018060a01b0387165afa908115610d4a578991611eae575b506040516370a0823160e01b8152306004820152916020836024816001600160a01b0389165afa928315610c43578a93611e7a575b50808211611deb575b5050868111611d5b575b506024955060018060a01b031686526018602052604086209060018060a01b031660005260205262ffffff60406000209116855260205260408420549161018060018060a01b03601554166040519586809263133f757160e31b82528660048301525afa918215611d5057611d1b948693611d21575b5085526003602052604085209085526020526001600160801b036040852091166001600160801b0319825416179055600154818452600a60205260408420600b602052604085205485526020526040842055808352600b60205260408320611d0381546134b7565b905560015490835260026020528060408420556134b7565b60015580f35b611d3d9193506101803d61018011610600576105e48183613228565b5050505096505050505050509138611c9b565b6040513d87823e3d90fd5b611d6a611d9197602092613394565b60405163a9059cbb60e01b8152336004820152602481019190915296879081906044820190565b03818a6001600160a01b0387165af18015610c0057611db1575b85611c25565b6020863d602011611de3575b81611dca60209383613228565b81010312610d0757611ddd60249661327b565b50611dab565b3d9150611dbd565b611dfa602091611e2193613394565b60405163a9059cbb60e01b8152336004820152602481019190915291829081906044820190565b03818c6001600160a01b0388165af18015610d4a57611e41575b80611c1b565b6020813d602011611e72575b81611e5a60209383613228565b81010312610d3e57611e6b9061327b565b5038611e3b565b3d9150611e4d565b9092506020813d602011611ea6575b81611e9660209383613228565b810103126103ba57519138611c12565b3d9150611e89565b90506020813d602011611ed8575b81611ec960209383613228565b810103126103ba575138611bdd565b3d9150611ebc565b505050506000805160206151b9833981519152611f14608092833d8511611f22575b611f0c8183613228565b810190613401565b929450849350909190611b03565b503d611f02565b906020823d602011611f63575b81611f4360209383613228565b81010312610e0657608092611f5a611aed9361327b565b50925090611a3b565b3d9150611f36565b6040513d86823e3d90fd5b6020813d602011611fa7575b81611f8f60209383613228565b81010312610e0657611fa09061327b565b50386119f1565b3d9150611f82565b6020813d602011611fe0575b81611fc860209383613228565b81010312610e0657611fd99061327b565b50386119a7565b3d9150611fbb565b6020813d602011612019575b8161200160209383613228565b81010312610e06576120129061327b565b5038611968565b3d9150611ff4565b915095506020813d602011612050575b8161203e60209383613228565b810103126103ba578890519538611874565b3d9150612031565b9094506020813d602011612084575b8161207460209383613228565b810103126103ba5751933861183d565b3d9150612067565b6120a791506101803d61018011610600576105e48183613228565b50505050965050505050505038611799565b6040513d6000823e3d90fd5b61174e9350610a1891506120e9906101803d61018011610600576105e48183613228565b9d509a995061173f98505050505050505050565b6121159060403d604011610c7557610c678183613228565b506116fd565b60a4935060409192506121406080916101803d61018011610600576105e48183613228565b909e509c9b5061169d9950505050505050505050565b634e487b7160e01b600052601160045260246000fd5b906020823d6020116121a9575b8161218660209383613228565b8101031261021b57506001600160801b036121a26064926132bd565b91506115db565b3d9150612179565b906020823d6020116121dc575b816121cb60209383613228565b8101031261021b57505160446115a8565b3d91506121be565b906020823d60201161220e575b816121fe60209383613228565b8101031261021b57505138611576565b3d91506121f1565b906020823d602011612240575b8161223060209383613228565b8101031261021b57505138611528565b3d9150612223565b9095506020813d602011612274575b8161226460209383613228565b810103126103ba57519438611497565b3d9150612257565b9092506020813d6020116122a8575b8161229860209383613228565b810103126103ba57519138611462565b3d915061228b565b6040513d88823e3d90fd5b503461021b57602036600319011261021b5760206122df6122da612d26565b612dff565b6040516001600160a01b039091168152f35b9050346112f15760a03660031901126112f15761230c612ce8565b612314612cfe565b9161231d612d14565b6370a0823160e01b8252306004830152906020816024816001600160a01b0387165afa908115611d50578591612cb6575b506040516370a0823160e01b8152306004820152906020826024816001600160a01b0389165afa9182156122b0578692612c7e575b506040516323b872dd60e01b81523360048201523060248201526064803560448301526020908290818a6001600160a01b038a165af18015610c0057612c45575b506040516323b872dd60e01b815233600482015230602482015260843560448201526020816064818a6001600160a01b038b165af18015610c0057612c0c575b5060155460405163095ea7b360e01b81526001600160a01b0390911660048201526064356024820152602081806044810103818a6001600160a01b038a165af18015610c0057612bd3575b5060155460405163095ea7b360e01b81526001600160a01b0390911660048201526084356024820152602081806044810103818a6001600160a01b038b165af18015610c0057612b9a575b506124ab62ffffff841686866140f0565b6001600160a01b038481168752601760209081526040808920928816895291815281882062ffffff8616895290528620541580612b62575b15612b465785608061259c600c546124f96133a1565b50612506600d54426133f4565b6040519161251383613170565b60018060a01b038a16835260018060a01b038b16602084015262ffffff891660408401528060020b606084015260181c60020b8483015260643560a083015260843560c08301528460e0830152846101008301523061012083015261014082015260018060a01b036015541690604051948580948193634418b22b60e11b83526004830161342a565b03925af1908115610c00578790889289918a91612b0d575b506000805160206151b983398151915291608091604051918583528c602084015260408301526060820152a16001600160a01b038681168952601860209081526040808b20928a168b52918152818a2062ffffff88168b5290528820541580612ad5575b612a7b575b60018060a01b038616885260176020526040882060018060a01b03881689526020526040882062ffffff8616895260205280604089205560018060a01b038716885260176020526040882060018060a01b03871689526020526040882062ffffff861689526020528060408920558760018060a01b036014541660015490803b15612a7757604051636c95d51960e01b815260048101949094523360248501526001600160801b038516604485015260648401919091528290608490829084905af18015610dfb57612a64575b50915b6040516370a0823160e01b81523060048201529083906020836024816001600160a01b038b165afa928315610d4a578993612a30575b506040516370a0823160e01b81523060048201526020816024816001600160a01b038d165afa908115610c43578a916129fe575b506127628585613394565b156129b85750505061277b61278c939261278692613394565b60011c8487876139fc565b906139e1565b925b6001600160a01b03928316808652601860209081526040808820938616600081815294835281852062ffffff96909616808a5295835281892054938952601783528189209085528252928390209387529290925280852054601554915163133f757160e31b8152600481019190915291926101809291839183916024918391165afa918215611d5057859261298f575b5050601454604051631b8c9f6760e11b8152336004820152602481018490529385916001600160a01b031690602086604481855afa958615610bc2578396612958575b50600154823b15610e06576040516331fcfa4160e11b8152600481018890526001600160801b0392909216602483015260448201529082908290606490829084905af1801561060757612944575b5082905260036020526040842060015485526020526001600160801b036040852091166001600160801b03198254161790556001548184526002602052806040852055600a60205260408420600b6020526040852054855260205260408420558252600b6020526040822061292481546134b7565b90556129316001546134b7565b6001558152601360205242604082205580f35b61294d906131a3565b610e065783386128af565b925094506020823d602011612987575b8161297560209383613228565b810103126103ba578591519438612861565b3d9150612968565b6129a59250803d10610600576105e48183613228565b505050509650505050505050388061281e565b91935091506129ca8282989598613394565b6129d7575b50505061278e565b6129f5939650612786916129ea91613394565b60011c8486886139fc565b923880806129cf565b90506020813d602011612a28575b81612a1960209383613228565b810103126103ba575138612757565b3d9150612a0c565b9092506020813d602011612a5c575b81612a4c60209383613228565b810103126103ba57519138612723565b3d9150612a3f565b612a70909791976131a3565b95386126ea565b8280fd5b6001600160a01b03878116808a52601860208181526040808d20948b16808e52948252808d2062ffffff8b16808f52908352818e20879055948d52918152818c20928c52918252808b20928b52919052882081905561261d565b506001600160a01b038781168952601860209081526040808b209289168b52918152818a2062ffffff88168b52905288205415612618565b90506000805160206151b983398151915293506080809350612b3b92503d8111611f2257611f0c8183613228565b9194929350916125b4565b612b5c60843560643562ffffff861688886134c6565b916126ed565b506001600160a01b038581168752601760209081526040808920928716895291815281882062ffffff861689529052862054156124e3565b6020813d602011612bcb575b81612bb360209383613228565b81010312610d0757612bc49061327b565b503861249a565b3d9150612ba6565b6020813d602011612c04575b81612bec60209383613228565b81010312610d0757612bfd9061327b565b503861244f565b3d9150612bdf565b6020813d602011612c3d575b81612c2560209383613228565b81010312610d0757612c369061327b565b5038612404565b3d9150612c18565b6020813d602011612c76575b81612c5e60209383613228565b81010312610d0757612c6f9061327b565b50386123c4565b3d9150612c51565b9091506020813d602011612cae575b81612c9a60209383613228565b81010312612caa57519038612383565b8580fd5b3d9150612c8d565b90506020813d602011612ce0575b81612cd160209383613228565b81010312610bcd57513861234e565b3d9150612cc4565b600435906001600160a01b03821682036103ba57565b602435906001600160a01b03821682036103ba57565b6044359062ffffff821682036103ba57565b600435908160020b82036103ba57565b602435908160020b82036103ba57565b60409060031901126103ba576004359060243590565b606435906001600160801b03821682036103ba57565b60609060031901126103ba576001600160a01b039060043582811681036103ba579160243590811681036103ba579060443590565b15612dae57565b60405162461bcd60e51b81526020600482015260096024820152682737ba1037bbb732b960b91b6044820152606490fd5b8115612de9570490565b634e487b7160e01b600052601260045260246000fd5b60020b600081121561316a5780600003905b620d89e88211613158576001821615613146576001600160881b036ffffcb933bd6fad37aa2d162d1a5940015b16916002811661312a575b6004811661310e575b600881166130f2575b601081166130d6575b602081166130ba575b6040811661309e575b608090818116613083575b6101008116613068575b610200811661304d575b6104008116613032575b6108008116613017575b6110008116612ffc575b6120008116612fe1575b6140008116612fc6575b6180008116612fab575b620100008116612f90575b620200008116612f76575b620400008116612f5c575b6208000016612f41575b50600012612f32575b63ffffffff8116612f2a576000905b60201c60ff91909116016001600160a01b031690565b600190612f14565b8015612de95760001904612f05565b6b048a170391f7dc42444e8fa26000929302901c9190612efc565b6d2216e584f5fa1ea926041bedfe98909302811c92612ef2565b926e5d6af8dedb81196699c329225ee60402811c92612ee7565b926f09aa508b5b7a84e1c677de54f3e99bc902811c92612edc565b926f31be135f97d08fd981231505542fcfa602811c92612ed1565b926f70d869a156d2a1b890bb3df62baf32f702811c92612ec7565b926fa9f746462d870fdf8a65dc1f90e061e502811c92612ebd565b926fd097f3bdfd2022b8845ad8f792aa582502811c92612eb3565b926fe7159475a2c29b7443b29c7fa6e889d902811c92612ea9565b926ff3392b0822b70005940c7a398e4b70f302811c92612e9f565b926ff987a7253ac413176f2b074cf7815e5402811c92612e95565b926ffcbe86c7900a88aedcffc83b479aa3a402811c92612e8b565b926ffe5dee046a99a2a811c461f1969c305302811c92612e81565b916fff2ea16466c96a3843ec78b326b528610260801c91612e76565b916fff973b41fa98c081472e6896dfb254c00260801c91612e6d565b916fffcb9843d60f6159c9db58835c9266440260801c91612e64565b916fffe5caca7e10e4e61c3624eaa0941cd00260801c91612e5b565b916ffff2e50f5f656932ef12357cf3c7fdcc0260801c91612e52565b916ffff97272373d413259a46990580e213a0260801c91612e49565b6001600160881b03600160801b612e3e565b6040516315e4079d60e11b8152600490fd5b80612e11565b610160810190811067ffffffffffffffff82111761318d57604052565b634e487b7160e01b600052604160045260246000fd5b67ffffffffffffffff811161318d57604052565b60c0810190811067ffffffffffffffff82111761318d57604052565b610100810190811067ffffffffffffffff82111761318d57604052565b60a0810190811067ffffffffffffffff82111761318d57604052565b6080810190811067ffffffffffffffff82111761318d57604052565b90601f8019910116810190811067ffffffffffffffff82111761318d57604052565b51906001600160a01b03821682036103ba57565b51908160020b82036103ba57565b519061ffff821682036103ba57565b519081151582036103ba57565b9060020b9060020b0190627fffff198212627fffff83131761215657565b9060020b9060020b02908160020b91820361215657565b51906001600160801b03821682036103ba57565b9190826101809103126103ba5781516bffffffffffffffffffffffff811681036103ba57916133026020820161324a565b9161330f6040830161324a565b9161331c6060820161324a565b91608082015162ffffff811681036103ba579161333b60a0820161325e565b9161334860c0830161325e565b9161335560e082016132bd565b91610100820151916101208101519161337e61016061337761014085016132bd565b93016132bd565b90565b8181029291811591840414171561215657565b9190820391821161215657565b604051906133ae82613170565b816101406000918281528260208201528260408201528260608201528260808201528260a08201528260c08201528260e082015282610100820152826101208201520152565b9190820180921161215657565b91908260809103126103ba5781519161341c602082016132bd565b916060604083015192015190565b91909161016081019260018060a01b0380825116835280602083015116602084015262ffffff6040830151166040840152606082015160020b6060840152608082015160020b608084015260a082015160a084015260c082015160c084015260e082015160e084015261010080830151908401526101209081830151169083015261014080910151910152565b60001981146121565760010190565b949392919260018060a01b03809616906000948286526020906017825260409489868920911690818952835285882082895283528588205415156000146139c057848852601783528588208189528352858820828952835285882054945b88526018835285882090885282528487209087528152838620549488601554169885519963133f757160e31b8b5260049486868d0152610180808d602481865afa9c8d156139b6578b9c9d9b999a9b613991575b5050885191613586836131b7565b8883528886840152888a84015260609b83818e8096015281608082015260a00152600d5442906135b5916133f4565b8a51926135c1846131b7565b8984528784019687528b84019081528484018b815260808501918c835260a086019384528d5198899663219f5d1760e01b8852518c8801525160248701525160448601525160648501525160848401525160a483015281895a9260c493f194851561389957869987938897613945575b50818852600385528888206001548952855288882080546fffffffffffffffffffffffffffffffff19166001600160801b038d169081179091556014548a51631b8c9f6760e11b808252338a8301908152602081018f9052929096169995969095929493929188908790819060400103818d5afa95861561393b578b96613907575b508b5194855287850152838b0152820152608081018290527f9033c2b7ae20c1b69fbde8c69c9e4b94d38d13ce4964f6e5fd843e3d3833737c9060a090a1865163162eaef160e31b81528481018290528381602481895afa9081156138d05787916138da575b508751906332560fb560e11b8252828683015260248201528381604481895afa9081156138d05787916138a3575b508751916318c858b960e11b83528583015260248201528281604481885afa801561389957613865575b50855190815233838201908152602081018890528290829081906040010381875afa91821561385b57859261382d575b5050156137b1575b505050505090565b60015494823b15610e06578451636c95d51960e01b81529182019081523360208201526001600160801b03871660408201526060810195909552938291859182908490829060800103925af1918215613823575050613814575b808080806137a9565b61381d906131a3565b3861380b565b51903d90823e3d90fd5b90809250813d8311613854575b6138448183613228565b81010312610e06575138806137a1565b503d61383a565b86513d87823e3d90fd5b8281813d8311613892575b61387a8183613228565b81010312612caa5761388b906132bd565b5038613771565b503d613870565b87513d88823e3d90fd5b90508381813d83116138c9575b6138ba8183613228565b81010312610d07575138613747565b503d6138b0565b88513d89823e3d90fd5b90508381813d8311613900575b6138f18183613228565b81010312610d07575138613719565b503d6138e7565b9095508781813d8311613934575b61391f8183613228565b8101031261393057519460a06136b3565b8a80fd5b503d613915565b8c513d8d823e3d90fd5b9a50955091508489813d831161398a575b6139608183613228565b81010312612caa579087916139748a6132bd565b9188858c01519b0151929a929690919293613631565b503d613956565b816139a792903d10610600576105e48183613228565b50505050505050505050613578565b89513d8d823e3d90fd5b80885260178352858820858952835285882082895283528588205494613524565b9190916001600160801b038080941691160191821161215657565b92909192600060e0604051613a10816131d3565b8281528260208201528260408201528260608201528260808201528260a08201528260c08201520152613a45600d54426133f4565b9260405193613a53856131d3565b6001600160a01b0383811680875283821660208089019190915262ffffff89166040808a01919091523060608a0152608089019490945260a08801879052600060c0890181905260e08901819052601654945163095ea7b360e01b81529490931660048501526024840187905291839160449183915af180156120b957613cc0575b506016546040805163414bf38960e01b815286516001600160a01b039081166004830152602088810151821660248401529288015162ffffff1660448301526060880151811660648301526080880151608483015260a088015160a483015260c088015160c483015260e090970151871660e48201529590918691610104918391600091165af19384156120b957600094613c8c575b5060155460405163095ea7b360e01b81526001600160a01b039091166004820152602481018490526020818060448101038160006001600160a01b0388165af180156120b957613c53575b5060155460405163095ea7b360e01b81526001600160a01b039091166004820152602481018590526020818060448101038160006001600160a01b0387165af180156120b957613c11575b5062ffffff61337e9516916134c6565b6020813d602011613c4b575b81613c2a60209383613228565b810103126103ba5761337e95613c4362ffffff9261327b565b509550613c01565b3d9150613c1d565b6020813d602011613c84575b81613c6c60209383613228565b810103126103ba57613c7d9061327b565b5038613bb6565b3d9150613c5f565b9093506020813d602011613cb8575b81613ca860209383613228565b810103126103ba57519238613b6b565b3d9150613c9b565b6020813d602011613cf7575b81613cd960209383613228565b810103126103ba57600094613cef60209261327b565b509450613ad5565b3d9150613ccc565b91908260409103126103ba576020825192015190565b6001600160801b03918216908216039190821161215657565b6001600160a01b03908116600081815260186020908152604080832095851680845295825280832087845282528083205493835260178252808320958352948152848220958252948552838120546014548551631b8c9f6760e11b8152336004808301919091526024820186905292989793969186169590949392919083866044818a5afa95861561402a5788966140c1575b5060155416988151809a819263133f757160e31b83528583015261018092839160249d8e915afa80156140b757614092575b5050805163162eaef160e31b81528281018690529483868b818a5afa95861561402a578896614063575b508151956332560fb560e11b875281848801528a87015283866044818a5afa95861561402a578896614034575b508151956318c858b960e11b875281848801528a87015283866044818a5afa95861561402a578896613ff2575b5083908a83518099819363f82cdafb60e01b8352878301525afa958615613fe8578796613fb9575b50868099858252600b855282822054801515600014613fb057905b600a91828752848420916000198201918211613f9f57508352855282822054975b88811115613ef0575050505050505050509190565b8683528186528383208184528652838320548784526003875284842081855287526001600160801b038086862054169081613f37575b505050613f32906134b7565b613edb565b81613f32949f928b859f613f7c908f61191e948f8f8f908f909c61191e93613f969e613f769d613f7698169a8452815283832091835252205486613381565b906133f4565b9f8d8a5260058d528a8a20908a528c528989205490613381565b9b903880613f26565b634e487b7160e01b85526011875284fd5b50600190613eba565b9095508281813d8311613fe1575b613fd18183613228565b81010312610d0757519438613e9f565b503d613fc7565b81513d89823e3d90fd5b9095508381813d8311614023575b61400a8183613228565b81010312610def5761401c84916132bd565b9590613e77565b503d614000565b82513d8a823e3d90fd5b9095508381813d831161405c575b61404c8183613228565b81010312610def57519438613e4a565b503d614042565b9095508381813d831161408b575b61407b8183613228565b81010312610def57519438613e1d565b503d614071565b816140a892903d10610600576105e48183613228565b50505050505050505050613df3565b83513d8b823e3d90fd5b9095508381813d83116140e9575b6140d98183613228565b81010312610def57519438613dc1565b503d6140cf565b6001600160a01b0381811660008181526018602090815260408083208786168085529083528184208985528352818420549484526017835281842090845282528083208884528252808320546014549151631b8c9f6760e11b8152336004820152602481018690529894979396939593949390929189916044918391165afa968715611d5057859761484d575b5084606060405161418d8161320c565b8281528260208201528260408201520152604051906370a0823160e01b825230600483015260208260248160018060a01b0388165afa9182156122b0578692614819575b506040516370a0823160e01b8152306004820152906020826024816001600160a01b038a165afa918215610c005787926147e5575b5060155460405163133f757160e31b8152600481018390526001600160a01b03909116919061018081602481865afa8015610d4a5790604092916147bb575b5060846001600160801b03918a8360115416958551926142648461320c565b8352306020840190815286840188815260608501988952875163fc6f786560e01b81529451600486015290516001600160a01b0316602485015251851660448401529551909316606482015293849283915af18015610c005761479d575b506040516370a0823160e01b8152306004820152916020836024816001600160a01b0389165afa928315610c00578793614769575b506040516370a0823160e01b8152306004820152926020846024816001600160a01b038b165afa938415610dfb578894614733575b50614341929161433b91613394565b92613394565b9060018060a01b038416865260196020526143608160408820546133f4565b6001600160a01b03858116885260196020526040808920929092558616875286205461438d9083906133f4565b60018060a01b0386168752601960205260408720558686526006602052604086206143b98282546133f4565b90558686526007602052604086206143d28382546133f4565b9055868652600460205260408620600154875260205260408620558585526005602052604085206001548652602052604085205560018060a01b036014541660405163162eaef160e31b8152876004820152602081602481855afa9081156122b0578691614701575b5060001981019081116146ed57604051906318c858b960e11b82528860048301526024820152602081604481855afa80156122b0576146ae575b5060206024916040519283809263f82cdafb60e01b82528b60048301525afa8015611d5057614683575b506144ab908383613d2e565b9190948085526008602052604085206144c58782546133f4565b905584526009602052604084206144dd8382546133f4565b90558394806145ef575b5050836145db5780614555575b50506144fe575050565b6014546001546001600160a01b0390911692833b15612a77579060448392836040519687948593634829f32960e01b8552600485015260248401525af19081156112fc575061454a5750565b614553906131a3565b565b60405163a9059cbb60e01b815233600482015260248101919091526000935091506020908290604490829086906001600160a01b03165af18015610607576145a2575b50600138806144f4565b6020813d6020116145d3575b816145bb60209383613228565b810103126112f1576145cc9061327b565b5038614598565b3d91506145ae565b634e487b7160e01b84526011600452602484fd5b60405163a9059cbb60e01b8152336004820152602481019190915296959450600093506020908790604490829087906001600160a01b03165af1958615610bc25783949596614643575b50600192386144e7565b909192506020813d60201161467b575b8161466060209383613228565b81010312610e06579061467484939261327b565b5038614639565b3d9150614653565b602090813d83116146a7575b6146998183613228565b81010312610e06573861449f565b503d61468f565b6020813d6020116146e5575b816146c760209383613228565b81010312612caa576024916146dd6020926132bd565b509150614475565b3d91506146ba565b634e487b7160e01b86526011600452602486fd5b90506020813d60201161472b575b8161471c60209383613228565b81010312612caa57513861443b565b3d915061470f565b9093506020813d602011614761575b8161474f60209383613228565b81010312610def57519261434161432c565b3d9150614742565b9092506020813d602011614795575b8161478560209383613228565b81010312610d07575191386142f7565b3d9150614778565b6147b59060403d604011610c7557610c678183613228565b506142c2565b6147d5906101803d61018011610600576105e48183613228565b5050505050505050505050614245565b9091506020813d602011614811575b8161480160209383613228565b81010312610d0757519038614206565b3d91506147f4565b9091506020813d602011614845575b8161483560209383613228565b81010312612caa575190386141d1565b3d9150614828565b9096506020813d602011614879575b8161486960209383613228565b81010312610bcd5751953861417d565b3d915061485c565b6001600160a01b038181166000818152601860209081526040808320878616808552908352818420898552835281842054948452601783528184209084528252808320888452825291829020546014549251631b8c9f6760e11b8152336004820152602481018590529996979396959490928a916044918391165afa9788156120b95760009861501b575b506000606060405161491d8161320c565b8281528260208201528260408201520152604051906370a0823160e01b825230600483015260208260248160018060a01b0388165afa9182156120b957600092614fe7575b506040516370a0823160e01b8152306004820152906020826024816001600160a01b038c165afa9182156120b957600092614fb3575b5060155460405163133f757160e31b815260048101839052906001600160a01b031661018082602481845afa9182156120b957604092614f89575b5060846001600160801b0360115416938351906149ef8261320c565b8152306020820190815284820186815260608301968752855163fc6f786560e01b81529251600484015290516001600160a01b03166024830152516001600160801b03908116604483015294519094166064850152839182906000905af180156120b957614f6b575b506040516370a0823160e01b8152306004820152916020836024816001600160a01b0389165afa9283156120b957600093614f37575b506040516370a0823160e01b8152306004820152926020846024816001600160a01b038d165afa9384156120b957600094614efb575b5091614ae9614ad9614aef93614aff95613394565b6001600160801b038c1690613394565b93613394565b6001600160801b03861690613394565b9060018060a01b0384166000526019602052614b20816040600020546133f4565b6001600160a01b038581166000908152601960205260408082209390935590891681522054614b509083906133f4565b60018060a01b03881660005260196020526040600020558560005260066020526040600020614b808282546133f4565b90558560005260076020526040600020614b9b8382546133f4565b90558560005260046020526040600020600154600052602052604060002055846000526005602052604060002060015460005260205260406000205560018060a01b036014541660405163162eaef160e31b8152886004820152602081602481855afa9081156120b957600091614ec9575b5080600019810111612156576040516318c858b960e11b8152600481018a90526000199091016024820152602081604481855afa80156120b957614e8a575b5060206024916040519283809263f82cdafb60e01b82528c60048301525afa80156120b957614e5f575b50614c82908583613d2e565b938060005260086020526040600020614c9c8382546133f4565b905560005260096020526040600020614cb68582546133f4565b9055600095614cce6001600160801b038216836133f4565b614de3575b505050614ce96001600160801b038216836133f4565b614d3f575b505050614cf85750565b60018060a01b036014541690600154823b156103ba576044600092836040519586948593634829f32960e01b8552600485015260248401525af180156120b95761454a5750565b6000935091614d5d614d87926001600160801b0360209516906133f4565b60405163a9059cbb60e01b8152336004820152602481019190915293849283919082906044820190565b03926001600160a01b03165af180156120b957614daa575b506001388080614cee565b6020813d602011614ddb575b81614dc360209383613228565b810103126103ba57614dd49061327b565b5038614d9f565b3d9150614db6565b600093965091614d5d614e02926001600160801b0360209516906133f4565b03926001600160a01b03165af180156120b957614e26575b50600192388080614cd3565b6020813d602011614e57575b81614e3f60209383613228565b810103126103ba57614e509061327b565b5038614e1a565b3d9150614e32565b602090813d8311614e83575b614e758183613228565b810103126103ba5738614c76565b503d614e6b565b6020813d602011614ec1575b81614ea360209383613228565b810103126103ba57602491614eb96020926132bd565b509150614c4c565b3d9150614e96565b90506020813d602011614ef3575b81614ee460209383613228565b810103126103ba575138614c0d565b3d9150614ed7565b91929093506020823d602011614f2f575b81614f1960209383613228565b810103126103ba57905192909190614ae9614ac4565b3d9150614f0c565b9092506020813d602011614f63575b81614f5360209383613228565b810103126103ba57519138614a8e565b3d9150614f46565b614f839060403d604011610c7557610c678183613228565b50614a58565b614fa3906101803d61018011610600576105e48183613228565b50505050505050505050506149d3565b9091506020813d602011614fdf575b81614fcf60209383613228565b810103126103ba57519038614998565b3d9150614fc2565b9091506020813d602011615013575b8161500360209383613228565b810103126103ba57519038614962565b3d9150614ff6565b9097506020813d602011615047575b8161503760209383613228565b810103126103ba5751963861490c565b3d915061502a565b6001600160a01b03918216908216039190821161215657565b61507761507d91939293612dff565b92612dff565b906001600160a01b039082828116858416116150df575b506150b9906150a78385168487166150ea565b836150b2878761504f565b1691615135565b916001600160801b0383169283036103ba5761337e936150d89161504f565b16906150ea565b9392506150b9615094565b600019828209908281029283808410930391838303936000931461512a57600160601b928484111561021b57500990828211900360a01b910360601c1790565b505090505060601c90565b9160001982840992828102928380861095039480860395146151aa57848311156103ba5782910981806000031680920460028082600302188083028203028083028203028083028203028083028203028083028203028092029003029360018380600003040190848311900302920304170290565b5050809250156103ba57049056fe7edab622d67a956d1acbc6f3818450b7007a8a13fede7fcaff9d9033794b817ba2646970667358221220ea7b755412963d98f85afeb2462e69ee2557471e3f9119a3f88bc5d5bc88420164736f6c63430008130033",
  "linkReferences": {},
  "deployedLinkReferences": {}
}